:040000006F10801FDE
:1000040000000000000000006F0080086F00E02284
:1000140000000000000000000000000000000000DC
:1000240000000000000000000000000000000000CC
:100034006F004006000000006F00E00500000000B3
:100044006F0080056F00C0286F0040056F00200519
:100054006F0000056F00E0046F00C0260000000080
:100064006F0060046F0040046F0020046F00000400
:100074006F00E0236F00C003000000006F00600306
:100084006F0040036F0020036F0000036F00E00265
:1000940001A001A001A001A001A001A001A001A054
:1000A40001A001A001A001A001A001A001A001A044
:1000B40001A001A001A001A001A001A0B717004068
:1000C400130770052380E704130780FA2380E704ED
:1000D4002396A70223800704371700408347270588
:1000E400898BEDDF835707053717004083472705C2
:1000F400898BEDFF3717004083472705898BEDDF98
:10010400035507058280B7170040930670052380C6
:10011400D704130780FA2380E70403C6B7041376D1
:10012400F60DA385C70423800704137605022DC6A4
:1001340003C6A700118A0DE22380D7042380E704B5
:1001440003C7A700136747002385E7009307004B05
:1001540001000100FD17EDFFB7170040930670057D
:100164002380D704130780FA2380E7047D8923942E
:10017400A70001000100010001002380070423807F
:10018400D7042380E7049306100537270040A30310
:10019400D780238007048280137605046DDE03C6AE
:1001A400A700418A0DE22380D7042380E70403C714
:1001B400A700136707012385E7009307007D01006B
:1001C4000100FD17EDFFB71700409306700523806B
:1001D400D704130780FA7D892380E7041365050497
:1001E4002394A700010001000100010023800704FB
:1001F4002380D7042380E704930630053727004083
:1002040079B74111814601468145114506C6452A03
:10021400B7170040130770052380E704130780FA1B
:100224002380E70403C76704136717002383E704E5
:1002340023800704B2404101828081460146814502
:100244001145B52AB7170040930670052380D704DB
:10025400130780FA2380E7047D562396C702238080
:10026400D7042380E70403C76704136717002383B5
:10027400E7042380070401A0BD473305F50201000C
:100284007D1575FD8280411122C426C206C6AA844A
:10029400014463179400B240224492444101828095
:1002A40005041305803E4204C13F4180DDB7B71702
:1002B4000040130700032388E702854723A2F19433
:1002C4007300203097E0FFDFE7804089730020301F
:1002D400411122C6371400408357C40913972701DC
:1002E40063590700970000E0E78080AA8967231E0E
:1002F400F4083244410173002030411106C6A9219B
:10030400FDBF2303048015472303E4800100230277
:10031400A480828083076480E3CE07FE23030480E5
:10032400828083076480E3CE07FE03454480828095
:1003340083076480E3CE07FE2302A48082804111F8
:1003440026C44AC24EC006C61377F50BAD47AA8928
:100354002E8995446306F70019456537653F8D443A
:100364004E854537FD59FD1463983401B240A244CB
:100374001249824941018280135509011375F50F11
:10038400453F2209CDB7011126CC06CEB70408009B
:1003940051371545BD37713769372AC6A53F3245F0
:1003A4009377150089EB136515001375F50FF2406B
:1003B400E24405618280FD14E9FC0145CDBF397139
:1003C40026DC4ADA4ED852D656D45AD25ED006DE4D
:1003D40062CE66CCB7E700E07D5783AA070022C649
:1003E40003AA470023A0E71823A2E718B717004081
:1003F400130770052380E704130780FA2380E704BA
:1004040083C74704930B75FFB684E20793FBFB0F86
:100414008546AA892E8B328937240040E18701570B
:1004240063FA76016308D500894613070002631353
:10043400D5000157D98F93F7F70FB71C00402382DB
:10044400FC0411472303E4801305F00F5D3D094CC0
:10045400D13563697C11B70707003E9B37870700D6
:100464007955637EEB02B3079B00636AF702A947E1
:100474006399F90689E48144713D26850DA0DA85E6
:100484000945753D05090345F9FFFD14050B4D3577
:1004940081C49377FB0FFDF7FD3569FD7D55B717D3
:1004A4000040130770052380E704130780FA2380B4
:1004B400E70403C74704418B2382E704F250B7E7FC
:1004C40000E023A0571123A24711E25432445259A9
:1004D400C259325AA25A125B825B724CE24C2161BD
:1004E4008280A5476395F90685691309F00FB30661
:1004F4009900B3742B01B6941349F9FFB3749900AE
:10050400856B33796901416B9387F9FFB3F7270151
:1005140099E363FC340193D94900C147E3E637FF0B
:1005240099BF0569C1697D19D9B71305800D638821
:100534006901130500026384790113051008CA8553
:10054400FD3B913521DD4E99B3843441D9B7DA8529
:100554002D45F533CA94E30099F20509D933A30F65
:10056400A9FED5BF9387F9FF93F7F70F636CFC08D7
:1005740003C75C04B70708001377070219E3B787BA
:1005840007007955E37DFBF033079B00E3E9E7F0CF
:1005940089476390F9048980D549E38E04ECDA85B0
:1005A4000945713B11090327C9FF91472320E480C2
:1005B40003076480E34E07FE23033481FD17EDFB3C
:1005C400FD14110B81C49377FB0FE9FF6D3B71F5AB
:1005D400F1B58547E387F9F4DA852D458D339389A1
:1005E400F4FFE38A04E8353B93F7390091EB832663
:1005F40004800327090093074900E39FE6E63E8948
:10060400CE84F1BFB5476396F9001305900BD53935
:100614009DB5B1471305B00AE38BF9FE9947639E74
:10062400F902DA852D45213B81448D4BA149D53909
:1006340063967401832704802320F9008504E398DA
:1006440034FF8327048013172B01635507002312FB
:10065400F90015B52322F90039BD9D476399F902C4
:1006640081451305B004E139BD4423200900232248
:100674000900FD597D3193F77400CA9703C7070039
:10068400FD14398D2380A700E39634FFEDB3A14711
:100694006392F904CD398144630D0B008D479304B3
:1006A400C0036308FB009304000563048B019304F7
:1006B40040041375C507E30095DC19459931993950
:1006C400054581312685AD3109459D316D39E314E8
:1006D40005DAE9B391476399F9001305600615310A
:1006E40015391305900925B7E38709D8F15469B37F
:1006F40009CDB7170040130770052380E7041307DB
:1007040080FA2380E7042396A702828019C18147D7
:1007140099E982803387F500834607003307F500A3
:1007240085072300D700E397C7FEE5B719C1FD5736
:1007340081E98280910503A7C5FF1105232EE5FEFB
:100744007D16E319F6FEF5B7797122D4173400004B
:10075400130444E31C4006D626D24AD04ECE91C799
:1007640082979737000023AF07E05C4089CB03D51D
:100774008196BD3F5C40829703D5A196953F1C406E
:10078400639907189737000083C797F1858B95C73E
:1007940097370000A38607F017370000034777F068
:1007A400914763FCE7004D2B9737000083C777EF31
:1007B400F9178A07A2979C4382979737000083C74B
:1007C400E7F2918B89C7972001E0E78020E91C4478
:1007D40091C3829793874196984317360000034646
:1007E40036D83E8997340000938484D79737000025
:1007F40083C707D793961700BA9683D606006380FB
:1008040006109737000083C7A7D563F2C708860789
:100814003E97835507002310070003D581962EC603
:1008240023980196F1359387C1979C4317350000AF
:10083400034505D313172500BA979C43B245829705
:10084400AA8903D5A1966D359737000083C747D190
:10085400139717008327090003D501971345F5FF64
:10086400BA9703D7070033753501598D2390A70034
:1008740083C70400850793F7F70F17370000230198
:10088400F7CE173700000347B7CD63E6E700973785
:100894000000238707CC1C40ADEF93874197984312
:1008A4003E8425CB9737000083C7F7DF91CB97377A
:1008B400000083C717DF89E7972001E0E780C08A3B
:1008C4001C4082972A8431C59C48AA971737000098
:1008D4002320F7CA938781979C4385CF03D58196BC
:1008E400013D2285970000E0E78020792254B25030
:1008F40092540259F24903D5A1964561D5BB8507A7
:1009040093F7F70F97360000238CF6C4E3E0C7EEA5
:10091400CDBDB250225492540259F24945618280AD
:100924009167B7C600409387373023A6F6200F108F
:100934000000973700009387A7C2884F9387C1A60A
:100944009C43316713073730F053B7071000FD1786
:10095400918F99833A0523A6E6205D8D828041110B
:10096400B7170040985F3AC6945F3247E39CE6FEAF
:10097400324541018280411106C6D53797360000C1
:1009840083C686BB858AB1C6930730333307F50225
:10099400B337F5023983CA07D98F17370000130715
:1009A40027BC584B01456303F7023385E740636B6B
:1009B400F70037653D0889C637856F08130505902C
:1009C400198D3E95173700002326F7BAB24041012E
:1009D4008280E5473307F502B337F5022583DE0746
:1009E40065BF0327C50F8346B5009737000093877B
:1009F400E7CA9C4F58439386160295829043FD168E
:100A040093F6F60F10C3D04350C3904710C7D04796
:100A140050C7904B10CBD04B50CB904F10CFD04FF2
:100A240050CF91C61307070293870702C1BF828084
:100A34008347E50193F7E70FF1E72A870345F501BB
:100A440071E1034607018346870009CA8345A7026B
:100A54009737000083C757AE63E7F50093F70601A5
:100A6400C5C7814709C6C18A8357071581C603577D
:100A74004715BA97D1CB173700001307A7CD3847CE
:100A8400411122C406C67D548326070863F38600F9
:100A94003684184375FB173700000347E7A99316FC
:100AA4008701E18663D906029387C71395831737B5
:100AB4000000034707A9BA9763D006041D8C9387E7
:100AC40001989C4382973335A400B24022441345D5
:100AD400150041018280058B9387C71209CB8A07D1
:100AE4009387F7031305D007B3D7A702C9B78607BF
:100AF400FD071305D003CDBFE372F4FC3705C0A88E
:100B04002A946DBF014582808280411122C41384DE
:100B1400C1A518404AC006C61C5F26C2138981A518
:100B24009983858BC1C31C5F97340000938404B7F9
:100B340093F7F7F91CDF9737000083C727B693F7BD
:100B440007048DC3938701989C43829797370000CD
:100B540023AEA7B483C7040093F7F70B173700003D
:100B6400230EF7B2854717370000A30BF7B283C7EC
:100B7400440093F7070481EF9387C1A69C43D844AC
:100B8400B8D3930700FC17370000230BF7B0838713
:100B9400640063D90700832709009C4317370000CA
:100BA4002301F7B018401C5F8583858BC9CBF557AB
:100BB4001CDF01000100010001000100010001002F
:100BC4000100010001000100010001000100010019
:100BD4000100010001000100010001000100010009
:100BE40001000100010001000100010001000100F9
:100BF40001000100010001000100010001000100E9
:100C040001000100010001000100010001000100D8
:100C140001000100010001000100010001000100C8
:100C240001000100010001000100010001000100B8
:100C340001009387C1A69C4313075004B8CB184006
:100C44001C5F9183858B89CFBD571CDF9387C1A619
:100C54009C4323A807048547173700002302F7A401
:100C640083270900D8430583058B19C7D843759B8F
:100C7400D8C3D843799BD8C3B24022449244024992
:100C840041018280397106DE16DC1ADA1ED82AD6B2
:100C94002ED432D236D03ACE3ECC42CA46C872C6E0
:100CA40076C47AC27EC09535F250E2525253C25392
:100CB4003255A255125682567247E2475248C248EC
:100CC400324EA24E124F824F21617300203093871F
:100CD400C1A69443173700001307479CBC5289CF21
:100CE40083472700858B89EB83473700858BFDD7A6
:100CF400973700002386079A8280938781A69C43B6
:100D040099CB944BD04B9842518F98C294439C47B3
:100D14009842D98F9CC29387C1A69C4337C7004091
:100D24001306C003A8CB93062003973500009385D0
:100D3400E59683278720C18393F7F7036369F60059
:100D440083278720C18393F7F70363E6F60083C7FD
:100D54004500858BF9DF82809387C1A694431737BA
:100D640000001307A793BC5289CB83470700858BE8
:100D740091CB973700002385079297370000A38112
:100D84000792828083471700858BF1DFDDB7938755
:100D940081A69C4399CB944BD04B9842518F98C2D7
:100DA40094439C479842D98F9CC29387C1A694438D
:100DB40037C70040C145A8CA654683278720C18339
:100DC40093F7F70363FBF50083278720C18393F729
:100DD400F7036364F600BC52EDF382801387C1A568
:100DE4001843AA87185F1583058B25EF0345150063
:100DF40015051377C51F19C6B386E70083C62600F9
:100E04002300D60095C59736000083C6868993F6DD
:100E140006040945A1CAB386E70083C63600054621
:100E240093F5F6066390C504E206E18663CC0602F8
:100E34003385E7008347150003470500A20793F7AE
:100E44000770D98F1397070141839376074099C69A
:100E5400136707802392E1A6014582802392F1A6BD
:100E6400E5BF054582809386C1A68C4236859736B8
:100E740000009386A682984593170701C1831378CF
:100E840017203E86630408041377072079C303C739
:100E9400260013671700173800002302E8801307A1
:100EA4000019B8D1130700F897250000238AE57EBE
:100EB4001387C1A50C4337080010D855719B1367DD
:100EC4002700D8D598413367070198C113772610B6
:100ED40005C31376061059CE03C70600136717001F
:100EE40017260000230CE67A17270000231C077A34
:100EF40083C6460093C7F7FFC207E206E186C183B3
:100F0400184163D106029396170163DE0606305337
:100F14008D4663E9C6008546172600002302D6786D
:100F24003453FDFE972600009386C65F83864601F0
:100F340063DD060093960701C18663DC06047053E3
:100F4400894663E4C6007453FDFE1447F58F1CC73D
:100F5400828003C716001367170097250000A38F2C
:100F6400E57217270000230D077217270000231BC3
:100F74000772A9BF03C736001367170017260000BE
:100F8400A30FE67095B7854617260000230AD6708E
:100F940051BF54471396060163510602B706100069
:100FA400FD1674D3972600009386865B944E8506BF
:100FB400172600002322D65C49BFA166D58F71B7DE
:100FC400397106DE16DC1ADA1ED82AD62ED432D2AD
:100FD40036D03ACE3ECC42CA46C872C676C47AC22D
:100FE4007EC05135F250E2525253C2533255A2558B
:100FF400125682567247E2475248C248324EA24EB7
:10100400124F824F2161730020301727000013070D
:10101400A76A8346B7019727000083C7376DB69741
:1010240093F7F70FFD4663EAF6044C4B972600004E
:10103400A384F6689727000083C71768054733170A
:10104400F70097260000A383F66A6D8F1DEF97269D
:10105400000083C6F669B3F6D70213050002814780
:1010640033D6F500058A13F8F70F09CE6399E60025
:1010740097270000A3820765828081177DB7050743
:101084001377F70F8507E39DA7FC8280938781A7D9
:101094009843B75702009387279F8326070913961F
:1010A40056006358060083260709139666006344B6
:1010B4000600FD17FDF3828051C9AA870145C9C9FD
:1010C4008D07C207C183F19BC207C1831307400385
:1010D400636BF702138781B00843138701B014438D
:1010E4006396A602172700001307C743185B014540
:1010F40025C34111C20706C60545DD8D0297B240DE
:10110400014541018280138741B0F9B70357650057
:1011140005EF035745006369F702B306F74021461C
:101124006370D6021041938687001D8FAA966117BB
:1011340090C22392E6002393060014C12312F50003
:101144002313B50021058280084159BF01458280DF
:10115400828001CD938781B003A80700938701B0F3
:101164008C430147C28763E3B70082809443636F73
:10117400F50663EDA60613868700E368C5FE03D56E
:101184006700216605066317C50003C641A105066D
:10119400238AC1A02393070063840703138641B005
:1011A4001042630FF6000356670019EA83D747001D
:1011B40014C383564700B697A1072312F700BA87D2
:1011C4009843E304B7FA938641B09442E30FD7F807
:1011D40083566700D9FA83D647000356470018435D
:1011E400A106B2962392D70098C382803E87B68721
:0411F4009DBF00009B
:1011F800974100209381815B17710020130101E062
:1012080013054000972500209385455F1736002079
:101218001306067E63FAC5008322050023A0550045
:1012280011059105E3EAC5FE17E50100130585CF11
:10123800973500209385C57B1386018B63FAC5001B
:101248008322050023A0550011059105E3EAC5FE98
:101258001385018B97650020938545DA6377B50080
:10126800232005001105E36DB5FE9302800873A0E5
:101278000230972200209382625893E21200739002
:10128800523097320000938222EC7390123473002C
:101298002030938781B223A6F18C938781BE23A83F
:1012A800F18C938781C623AAF18C1C4123AEF18A65
:1012B8005C4123A0F18C828081471386018D13F74E
:1012C800F70F6364A7006F10C04418423E97834627
:1012D8000700850793C6F6FF2300D704CDB78147DB
:1012E8001386418D13F7F70F6364A7006F10C0438F
:1012F80018423E9783460700850793C6F6FF2300EA
:10130800D704CDB781471386818D13F7F70F636430
:10131800A7006F10C04218423E9783460700850712
:1013280093C6F6FF2300D704CDB781471386C18C37
:1013380013F7F70F6364A7006F10C04118423E9778
:1013480083460704850793C6F6FF2300D708CDB761
:10135800B787004003C767001377F70F9376270016
:10136800638D0672011106CE22CC26CA4AC84EC623
:1013780003C777009306000313770703630BD702AD
:1013880003C7770091461377F7036308D72463EA06
:10139800E60885466305D71A63020718894663007D
:1013A800D71C8D46630CD71EB78700400947238397
:1013B800E7003787004083477700E207E18763D07B
:1013C8000738930720FC2301F7029386C18C8842D3
:1013D800034775008347650022075D8F239BE18AD9
:1013E80083471500238AF18A8344050013F604060F
:1013F8006308062613F704046317072013F704028B
:1014080063030720F91793F7F70F2547636EF73043
:1014180017D70100130707BF8A07BA979C43BA97E3
:10142800828793062002630CD71463E9E6029306C9
:101438000002630CD70493061002E317D7F603C71C
:101448006702134707042383E70203C7670213777A
:10145800C70F136727002383E702B9B79306300243
:10146800630ED71493064002E310D7F403C727038B
:10147800134707042389E70203C727031377C70F16
:10148800136727002389E70205B703C7418B9546F1
:10149800630BD7069947630AF7008D47E306F7F011
:1014A800B78700402380070285A89387618B03D400
:1014B800070013070004BE84637487001304000444
:1014C8009387C18C1389418C884342048325090082
:1014D80041802286EFC0E10383D704009379F40F9B
:1014E800818F239BF18A832709003E9423A2818C54
:1014F800B78700402380370303C727021347070431
:101508002381E70255B503C7370083C6618B13777C
:101518000708558FA381E7000947DDB783C7870010
:1015280003C7418BA547E311F7E89387C18C98431C
:101538009387C18B9C43034507008297B5B503C7C2
:10154800770013770704E30107E603C76702134729
:1015580007082383E70203C58700B93BB1B503C772
:10156800770013770704E30107E403C7A7021347CB
:1015780007082385E70203C58700953335B503C7F8
:10158800A702134707042385E70203C7A7021377B7
:10159800C70F136727002385E70239B503C777000C
:1015A80013770704E30207E003C7E70213470708B6
:1015B8002387E70203C58700B133FDB303C7E702FA
:1015C800134707042387E70203C7E7021377C70F08
:1015D800136727002387E702C1BB03C77700137788
:1015E8000704E30307DC03C7270313470708238916
:1015F800E70203C58700153B45BB938781B283C7C4
:101608003700A388F18AE204E184814663D20402A8
:1016180083D7618B930600043E8763F4F6001307B3
:10162800000442074183998F9376F70F239BF18A31
:10163800B78700402380D702130700FCD5A89387FB
:1016480081B283C72700A389F18A75BF9387118B5D
:1016580083C707002384F1B27DB79387318BCDBF51
:101668002D466363F60C17D601001306269C8A07DD
:10167800B2979C43B29782878347350083462500FB
:101688000D46A207D58F93D68700638DC610636C6D
:10169800D6008547638EF60289476389F60A1304E4
:1016A800F00F814735A893071002638BF60A93075A
:1016B8002002E396F6FE83474500F9E797D7010035
:1016C8009387C79923A2F18C01449307E00309A8E3
:1016D80097D701009387C7A123A2F18C0144C9477A
:1016E800C207C18363F4E700239BF18A9387618B68
:1016F80003D607009307000463F4C7001306000429
:101708009389418C1319060183A50900135909010E
:101718004A86EFB0116003A609004A9623A2C18C3D
:101728009307F00FE311F4EEB78700401307F0FCBE
:101738002381E702B787004009472383E700F24087
:101748006244D2444249B2490561828097D7010078
:101758009387479623A2F18C01449307B00349B7B6
:101768008347450089CB8546E39BD7F297D701008D
:101778009387F79629A097D701009387C79423A248
:10178800F18C0144A547A9BF85466392D70697D631
:1017980001009386A69023A2D18C01442389F18A63
:1017A800DD473DBF93F7F70F85466380D7029DC796
:1017B8008946E396D7EE97D701009387E79523A24A
:1017C800F18C01449307A00221BF97D701009387AA
:1017D800679323A2F18C0144D14719B797D7010029
:1017E8009387076823A2F18C01449147D5BD014432
:1017F8009307F00FF5B583472500239BF18A21B5A0
:1018080083C7018B2300F50003D7618B8547E3FC71
:10181800E7DE8547DDB7834725002388F18AE5B3EE
:1018280013F7F40189476310F70A834745008D468B
:101838006382D70663EEF6008546638FD706E39585
:10184800E7EE378700408347A70293F7370795A04D
:10185800130720086387E704130730086381E7024A
:1018680013071008E392E7EC3787004083476702C5
:1018780093F7C70B93E727002303F70269B337876A
:1018880000408347E70293F7C70B93E72700230736
:10189800F70295BB378700408347E70293F737077E
:1018A800FDB7378700408347A70293F7C70B93E735
:1018B80027002305F70281BB37870040834767026B
:1018C80093F7370755BFE31107E68347350003470A
:1018D8002500A207D98F0547E397E7D283C7818BF5
:1018E80093F7E70F238CF18A39BB13F7F401894783
:1018F8006314F70A8347550083464500A207D58F2E
:101908008D466380D70663E0F6028546638DD70669
:10191800E39CE7E0378700408347A70293F7370740
:1019280093E7C70079B7130720086385E70413070F
:101938003008638FE70013071008E397E7DE37875F
:1019480000408347670293F7C70B93E737002DB72B
:10195800378700408347E70293F7C70B93E73700C1
:101968003DB7378700408347E70293F7370793E788
:10197800C70031BF378700408347A70293F7C70BDB
:1019880093E737003DB7378700408347670293F7EF
:10199800370793E7C700CDB5E31807D88347350065
:1019A80003472500A207D98F0547E39EE7C483C7ED
:1019B800818B93E717003DB723000500B1B593F578
:1019C800F4018947639FF50A23000500984283477D
:1019D800570003464700A207D18F0D46638BC70403
:1019E8006361F60205466384C7086386B7069C42AE
:1019F800A380070003D7618B8547E3F6E7C08947D3
:101A0800EDBB930520086383B70493053008638B07
:101A1800B70093051008E39CB7FCB787004083C75D
:101A2800670229A0B787004083C7E70293F7370406
:101A380001A8B787004083C7E702314693F7C70874
:101A4800E397C7FA85472300F70055B7B7870040E3
:101A580083C7A702E1BFB787004083C7A702B14584
:101A680093F7C708E395B7F82300C70049B7378647
:101A7800004003466602B1451376C608E319B6F678
:101A8800D9B7B5F52300050003C7818B19C3984260
:101A98005DBF9C422380070099BF9376170085C2DB
:101AA8000947A38107002381E7022383E7022385EF
:101AB800E7022387E70205472383E70082809376BE
:101AC8004700FDDA03C757001147FDB71C41011154
:101AD80006CE22CC2EC62A8482975C401305800746
:101AE80082975C4001458297B2455C402E8582977B
:101AF8000323C4006244F240056102831C410111C2
:101B080006CE22CC2EC62A8482975C401305800715
:101B180082975C40130500048297B2455C402E858D
:101B280082970323C4006244F24005610283411195
:101B380026C2AE849365060B06C622C42A8479376A
:101B480093D54400228593E505014937228522442F
:101B5800B24093F5F400924441018DBF011122CCAB
:101B68004AC84EC606CE26CA2A890144A1492286F9
:101B780081454A856D3F9304000881454A85FD14D7
:101B8800B53FE5FC05041374F40FE31234FFF2408B
:101B98006244D2444249B2490561828001118E05EE
:101BA800060626CA4AC8B6845AC01379F60F13FB2C
:101BB800F50F22CC56C24A86939A4400DA8517C498
:101BC8000100130424584EC652C406CEAA89A29A0C
:101BD800B93F214A811483C50AE07D1A4E85137ADC
:101BE800FA0F293F850AE3180AFE1306190013762F
:101BF800F60FDA854E85253F939644003694A14426
:101C080083458400FD144E8593F4F40FC53D050407
:101C1800E5F8F2406244D2444249B249224A924A23
:101C2800024B05618280797122D426D24AD04ECEE9
:101C380052CC06D6AA842E89B289368A0144631A00
:101C4800E400B250225492540259F249624A456162
:101C58008280B3078A0083C60700B30589004E86D1
:101C680093F5F50F26853AC6153F05043247C1BFDF
:101C7800297123202113232E3111232C41112A8964
:101C8800AE89328A9305001036860808141A23266E
:101C9800111223248112232291122328E112232ACC
:101CA800F112232C0113232E111336C6EFB0113372
:101CB8000808EFB0B12B9374F50F01449375F40F36
:101CC80063E095028320C112032481128324411208
:101CD800032901128329C111032A811131618280EC
:101CE8001C08A29783C60700CE95528693F5F50F78
:101CF8004A856D350504D9B741114AC02A8941453D
:101D080006C622C426C2AE84EFB011004146CA8579
:101D18002A84EFB0110022859305E00A453B22850D
:101D28009305500D653322859305000845332285B8
:101D38009305800A613B22859305F003413B228588
:101D48009305300D613322858145493322859305FA
:101D58000004AD3B22859305100A8D3B228593052F
:101D6800800CAD3322859305A00D8D332285C9459E
:101D7800B13B228593051008913B22859305F00C11
:101D8800B13322859305900D913322859305100F69
:101D9800353B22859305B00D153B2285930500033D
:101DA800353322859305400A153322859305600A49
:101DB800313B22859305D008113B2285D145393323
:101DC80022859305F00A19332285493BB24080C029
:101DD8002244924402494101828082802A830283FC
:101DE80041114AC02A89414506C622C426C2AE848A
:101DF800EFB08171CA8541462A84EFB081710840ED
:101E0800F13F0844E13FB24080C022449244024975
:101E180041018280411122C42A84484506C67D3F7B
:101E280008406D3F08442244B240410145BF0111BA
:101E380022CC26CA4AC84EC652C406CE2A84AE89C7
:101E48008144130A00082149B3579A40B3F7370170
:101E58008DC7084461370840850449374840BD3F6D
:101E6800E39424FF08409D3F48406244F240D24436
:101E78004249B249224A056195B748448537E1BFCE
:101E8800411122C42A84084506C6893F0840B9374B
:101E98004844A93748402244B240410181B7B717A6
:101EA800004003C777051377E70FA38BE7041307F1
:101EB80000F8A38DE7043D47238CE704130750037C
:101EC800A38CE7048280B717004003D587005D71B3
:101ED8005ED64205418186C6A2C4A6C2CAC04EDEED
:101EE80052DC56DA5AD862D466D26AD06ECE93776C
:101EF800050C13070008814B6388E71813070004D3
:101F0800639CE714B7240D8F7D8993840480B3D430
:101F1800A4029167938707E8BE94A167938707D0C7
:101F2800B3D4F402EFA0D17D97D70100938707813E
:101F38009043D443EFA09131EFB0013F2A8B939C9B
:101F4800040103D9818C93DC0C0163150900056930
:101F580013090980B7170040130770052380E704A9
:101F6800130780FA2380E704371A00400547939D3A
:101F78000401096C85662389E704D14A814E8145AD
:101F8800130D0A0413087005130680FA894893DDB7
:101F98000D01130C0C712943FD1623000D012300BC
:101FA800CD0023162A0323000D0083472A05898BB9
:101FB800EDDF83570A0583472A05898BEDFF8347A1
:101FC8002A05898BEDDF83570A052394218DC207E3
:101FD800C183338597419319050193D909416384D6
:101FE80009163387B902635E070C850EC20E93DEAD
:101FF8000E0163E8D80D63D9050A3305B04093157F
:102008000501C185C204C18063D7350B0965130575
:1020180005713385A502B7170040130770052380A3
:10202800E704130780FA2380E704239677032380C5
:1020380007043345950242054181B640264496443B
:102048000649F259625AD25A425BB25B225C925CF0
:10205800025DF24D61618280B1E3B77489097D89BF
:1020680093840480B3C4A4029167938707E8BE945D
:10207800A167938707D0B3C4F402EFA0716897C72C
:1020880001009387276C6DB597C701009387876A0E
:10209800856403AB07009384843855B5130B00009F
:1020A800954471BD3A89D5BDB387FC409399070122
:1020B80093D9094181BF0965130505713385A902C3
:1020C8008DBF3385B74163E4FC003385FD4033059C
:1020D80085033344B5036345830013150401A9BF81
:1020E8004E8536C642C432C2EFB0A117DA85EFA0DA
:1020F8003168EFB0E110931E050193DE0E41B3077E
:10210800D941C207C183056E3E87124622488948D5
:102118002943B24663E3C701368742074183631AFE
:10212800270113071900634430011307F9FF420719
:102138004183FD1A93FAFA0FCA8BCE85E3940AF607
:102148002394E18C59BF0145CDBDB717004003D595
:1021580087005D7186C642054181A2C4A6C2CAC075
:102168004EDE52DC56DA5AD85ED662D466D26AD0CF
:102178006ECE02C69377050C13070008638BE7142D
:1021880013070004639FE710B7240D8F7D8993849C
:102198000480B3D4A4029167938707E8BE94A1672B
:1021A800938707D0B3D4F402EFA0915597C70100E5
:1021B8009387C7589043D443EFA05109EFB0C11695
:1021C8002A89939A040103DBA18C93DA0A01631527
:1021D8000B00056B130B0B80B71700401307700536
:1021E8002380E704130780FA2380E704939B040104
:1021F80005478969056A2389E704D14D014D814C5A
:1022080093DB0B01938909717D1A5A859710002079
:10221800E780806A330C5541420C135C0C412395CE
:10222800618D63010C16B3079C0363D1070E050D7E
:10223800420D135D0D01894763EAA70D63DB0C0AA4
:1022480033059041931C050193DC0C41C204C18005
:1022580063D88C0B0965130505713385AC02B71774
:102268000040130770052380E704130780FA2380D2
:10227800E70432472396E702238007043345950293
:1022880042054181B640264496440649F259625AAD
:10229800D25A425BB25B225C925C025DF24D616194
:1022A8008280B1E3B77489097D8993840480B3C4BB
:1022B800A4029167938707E8BE94A167938707D024
:1022C800B3C4F402EFA0D14397C7010093878747AF
:1022D800D5B597C701009387E745856403A907002B
:1022E80093848438F9BD130900009544D9BD3E8B09
:1022F80029BF3385AA40131C0501135C0C41B9B7EB
:102308000965130505713305AC028DBF63FEAA008C
:102318003305754133053503A9473344750363C84D
:10232800870013150401B1BF3385AB40E5B762855B
:10233800EFA03173CA85EFA0B143EFA0716C131DF4
:102348000501135D0D413307AB41420741838565A4
:10235800BA876363B700D287C207C183639A6701EC
:1023680093071B00634480019307FBFFC207C183E7
:10237800FD1D93FDFD0F5AC6E28CE39A0DF62395D9
:10238800F18C45B70145FDBD41112A83014E930EDD
:10239800407E130F0019930F400663EB6E0A9308F3
:1023A800001913034006B3781503854E0D4FA14F4E
:1023B800337365020D891335150063E5BE0C1308E8
:1023C800F6FF794672984208135808013307C70286
:1023D80013D61700BE0732976146B3F6C602130636
:1023E8008070B386C6023697A166F58F42075D8F67
:1023F800B717004083C6F70293F60608A307D10073
:102408000346F10083C6F70293F60608E394C6FE76
:102418008346F10093F6F60FF1DE930670052380EC
:10242800D704930680FA2380D70423AA070383C618
:10243800170393E60608A388D702D8DB03C7170358
:1024480013670704A388E7022380070441018280F9
:102458007D133368E3039308E016630E08003368BE
:10246800F3039308D016630808009378330093B8F1
:1024780018009388D81633081E01131E0801135E2E
:102488000E0121BF6393E5030548638608000148F0
:10249800630303002A8871087298FD15131E08014A
:1024A800C205135E0E01C18109BF13F8150063F45C
:1024B800BF007908D5B713381800E5BF914763EE18
:1024C800B70217C70100130767288A05BA959C4108
:1024D800BA978287B717004003A7470B1345F5FF44
:1024E800698F23AAE70A03A7070B698F23A8E70ABE
:1024F80003A7070A798D23A0A70A8280B71700408F
:1025080083A6470B1347F5FFF98E23AAD70A83A69C
:10251800070B558D23A8A70A83A6070A758F23A042
:10252800E70A8280B717004003A7470B498F23AA01
:10253800E70A03A7070B1345F5FF45BFB717004088
:1025480083A6470B1347F5FF758F23AAE70A03A74E
:10255800070A598D4DB7B717004003A7470B498F96
:10256800EDB7914763EEB70217C701001307471F7E
:102578008A05BA959C41BA978287B717004003A786
:10258800470D1345F5FF698F23AAE70C03A7070D2D
:10259800698F23A8E70C03A7070C798D23A0A70C44
:1025A8008280B717004083A6470D1347F5FFF98EC1
:1025B80023AAD70C83A6070D558D23A8A70C83A69D
:1025C800070C758F23A0E70C8280B717004003A77C
:1025D800470D498F23AAE70C03A7070D1345F5FFFD
:1025E80045BFB717004083A6470D1347F5FF758F02
:1025F80023AAE70C03A7070C598D4DB7B71700405E
:1026080003A7470D498FEDB7931705010547C18308
:102618006382E5048DC10947638DE5040D47638036
:10262800E50637170040231EF70883560709D58F9C
:102638002318F7088280371700400356470993C6C6
:10264800F7FFF18E231AD7088326C70A558D23264C
:10265800A70AC1BF371700400356470993C6F7FFBB
:10266800F18E231AD7088326870A558D2324A70AB3
:102678004DBF3717004083564709DD8EE1B737173E
:10268800004083564709DD8EE9BFB7F700E0C8432D
:102698009C478280B7870040238007001307C0FC4F
:1026A8002386E700A386E70003D7C18C2398E700B9
:1026B80003D7018D239AE70003D7418D239CE700B8
:1026C80003D7818D239EE70089462381D702494796
:1026D8002383E7022385E7022387E7022389D702BA
:1026E800A3810700130790022380E700B716004074
:1026F80003D7A6011367070C239DE6007D572383A4
:10270800E700130710F8A380E7001D472381E700BF
:102718008280B78700402382A70203C76702137726
:10272800C70F2383E7028280B78700402384A7026C
:1027380003C7A7021377C70F2385E7028280B787ED
:1027480000402386A70203C7E7021377C70F238732
:10275800E7028280B78700402388A70203C72703C0
:102768001377C70F2389E70282809387818E9C4362
:10277800411106C691C382979387C18E9C4391C32A
:10278800829703D761809307001963F7E70403D59D
:1027980081809306F01863E4A6049386418E03A310
:1027A800060063070300B2401305001941010283C4
:1027B8000507098F3385A740E5473305F50242072A
:1027C800418309839307F7FF3E953345E502137567
:1027D800F50FB2404101828013054006DDBF014577
:1027E800CDBF03A84500411126C206C622C48347AF
:1027F800180003480800A944A207B3E70701C20765
:102808000D68C187130828906396070385473284AB
:10281800EF60C058AA8419ED9387018E9C4399CB29
:1028280003451400034704002205598D133515008C
:1028380005058297B2402244268592444101828050
:102848002D453DE7D841411122C426C206C683471B
:10285800170003470700B684A207D98F0D679306B0
:1028680097A132846396D702093783C7418063747E
:10287800F5002382A18085472390F40083C7418017
:102888002300F4000145B240224492444101828071
:10289800130787902945E398E7FECC45894723909D
:1028A800F4000946228597100020E780E065D9BF2B
:1028B800828083474500858BADC7011122CC2A84CD
:1028C80003552500938581CE06CEEF60E047058944
:1028D80029C503552400014781460546ED45EF60AB
:1028E800E0002AC61DC9972700209387271383D79E
:1028F800A70201462C002314F10085472315F10097
:1029080083C741802300F50003552400EF70A01F02
:1029180009C5ED452800EF604015F24062440561A5
:102928008280828041654111938581CE7D1506C6DE
:10293800EF80800EB24097260020938626134146EA
:102948009545172500201305650D41016F8000018D
:1029580023A0A18E8280411122C406C6854709445E
:102968006311F502834706000144238EF18C03C7E7
:1029780041806378F700170500001305C5F3EFA041
:1029880020392285B2402244410182808547630173
:10299800F50209C909476302E5020D476306E50226
:1029A8000945828083C741802380F50001458280E4
:1029B8009387C18D83C70700C5BF9727002083D79A
:1029C80087062390F500DDB71387C18003570700FA
:1029D8002392E50017270020130747048356A70210
:1029E8000357A7032383F5002390D5002391E5001F
:1029F80075BF411106C6953B83C74180637AF500D0
:102A08002382A180170500001305E5EAEFA04030F6
:102A1800B24001454101828041677917630CE502A4
:102A2800411122C406C685472A84639AF500228587
:102A38002244B240938581CE41016F70F07D894771
:102A48006396F5008545EFA0202775D1B240224452
:102A5800410182808280CC41411106C6328503C67D
:102A6800150083C5050022064D8E42068D654186F8
:102A7800138875A2630C060F6348C804138845A21F
:102A88006306060B634AC800938535A26309B60638
:102A980023900600294679A0138855A26308060BDF
:102AA800938565A2E316B6FEC1451D4663ECE506AF
:102AB8004546198E63F3C7003E862390C60097C526
:102AC8000100938525CC89A8138895A26300060F79
:102AD800634E060B1388A5A2630A060F938505A506
:102AE800E318B6FA99451D4663EEE502198E63F3BD
:102AF800C7003E862390C6009385418131A89D4535
:102B08001D4663E1E5022146198E63F3C7003E8640
:102B18002390C6009385018FBA9597100020E7800F
:102B2800A03E0146B240328541018280AD451D4636
:102B3800E3EAE5FE3146198E63F3C7003E8623902B
:102B4800C60097C501009385A5C7F9B7B1451D46CD
:102B5800E3EAE5FC3546198E63F3C7003E86239009
:102B6800C60097C501009385A5C67DB7C1451D461A
:102B7800E3EAE5FA4546198E63F3C7003E862390DB
:102B8800C60097C50100938525C179B7C1451D4683
:102B9800E3EAE5F84546198E63F3C7003E862390BD
:102BA800C60097C501009385A5C3BDB7C1451D469D
:102BB800E3EAE5F64546198E63F3C7003E8623909F
:102BC800C60097C50100938565BEB9B7B5451D46D2
:102BD800E3EAE5F43946198E63F3C7003E8623908D
:102BE800C60097C501009385E5B83DB79726002034
:102BF800938686FB4146CD45172500201305C5E77A
:102C08006F70D055828082809387C1909C4303C7A0
:102C1800019083C6F18201E781473E85828003D611
:102C280007006316A60003C66700E308D6FE7D17F3
:102C38001377F70FA107C5B78547631AF500116623
:102C4800130686A9894503C511906F10105289474C
:102C58006317F500894503C511906F10D06782800E
:102C680085476398F50019E2238DB18E2388C190BA
:102C7800828009476399E50019E6238DF18E03D513
:102C8800818F6F00B0058280938741909C4301112A
:102C980022CC06CE2E8481CB9C4791C78297F240E6
:102CA8006244056182806C0013057040EF608136D4
:102CB800324681452285EF602177D5B74111939738
:102CC800050122C406C6C1872E8463DF070003C539
:102CD8001190EF10607819C1EF1060712165218D96
:102CE800B24022444101828093F7150091CF172604
:102CF8000020130626EC9385018203C51190EF701E
:102D0800E17013451400E9BF93F725000145E9DB9D
:102D1800CD311166130686A9894503C51190EF10B8
:102D2800D044134524006DBF797126D24ECE06D605
:102D380022D44AD052CC9147AA84AE896314F504B0
:102D480083D7A5001306E100854513055030239C61
:102D5800F18E23070100238D018EEF7011189387E0
:102D680041909C4391C7DC4781C7CE8526858297D1
:102D7800B250225423AE918E02599254F249624ABB
:102D8800456182801387C18F1843E31AF7FC854594
:102D980003D5818F5131854503D5818FEF00C079E7
:102DA800C16703DA818FF9176313FA06054493059F
:102DB800E10013055041238D018EA38781822307EB
:102DC8000100EF6021258347E100B5EB03C70191BE
:102DD8009147E316F7F8930500030D45EF30D0242B
:102DE800930500051145EF3030249305C0030545D0
:102DF800EF30902385471306E100854513055030D1
:102E08002307F100EF70710D2388019089BF938724
:102E1800C19003A9070003C4019049D803552900AC
:102E280011C99305E100EF60805609C54C455285EC
:102E3800EF70903E7D141374F40F2109F9BF938746
:102E480081909C4383C74700898BC9D39305000AA7
:102E58000D45EF30701D9305000A1145EF30D01C69
:102E680081450545EF30501C1306E10085451305E3
:102E7800503023078100EF70510689BF01111705F3
:102E880000001305E5E306CE22CCEF10706813842A
:102E9800119085471306F10085452300A40013050A
:102EA8004041A307F100EF60817F7D55EF50606DD1
:102EB8007D55EF7050331D3BEFF0DFA6FD2317055E
:102EC80000001305A5D7EFF0BFA8170500001305EC
:102ED800C5D31125034504008545EF10B016F2400F
:102EE80062440561828023A2B19023A4A1908280CC
:102EF80023A6B1902380A19082809387C18F9843A5
:102F0800797122D406D626D24AD04ECE52CC9147D9
:102F18004144631FF70083C7A18F414491CB938736
:102F2800C190804303C7F18283C7019099EB554450
:102F38002285B250225492540259F249624A45619C
:102F4800828003484400631AA800034854006316AB
:102F5800B800034864006307E800FD1793F7F70F0C
:102F68002104E9B703552400930561003689B2842A
:102F7800EF60E0414DDD4C4503D5818FEF50D05CCB
:102F8800058955D59399040193D9090101478146CB
:102F98004E86ED4503D5818F035A0400EF50101576
:102FA8002AC64D4451D52686CA85231441012315C6
:102FB800310197100020E78020F501462C0003D549
:102FC800818FEF6050342A8425D5ED452800EF50D5
:102FD800D029B9BF011185471306F10085451305AE
:102FE800503006CEA307F100EF70216FF240056163
:102FF80082809387C18F984391476314F702011128
:1030080003D5818F06CEEF70D1131306F1008545E5
:1030180013055030A3070100EF70216CF2400561E1
:1030280082808280C841011122CC06CE32840346B8
:103038001500034505002206498E19CB0D681308B3
:10304800B8A42D4563090607F240624405618280F1
:103058000D651308D5A463000603130825A2630CA5
:10306800060175781308E85C32984208135808017D
:10307800854863EE080303D5A50036C632C4693611
:10308800B24615C1938741909C432246834555001B
:1030980003A30700A2876244F24003454500368730
:1030A80085460561028323900600014571BF130818
:1030B800B5A46317060303D681831D45E376C7F8D5
:1030C800198E63D3C7003E86CC452390C6004206BE
:1030D8004182BA95228597100020E780E0E2F1B797
:1030E8009307A5A46318F60091472390F6001146AC
:1030F800CC45CDB7930785906317F6008947239091
:10310800F6000946F5B79307E5A4631AF600DC450F
:103118002390160183C707002300F40079B713052D
:103128007590E314A6F8D9BF011122CC06CE26CAA1
:103138004AC82317D1002D4431EBDC412E89B284D3
:1031480003C4170083C7070022045D8C8D6793862C
:10315800D7A46306D400938627A36310D404035529
:10316800A900EFF07FAA19E101440DA093874190CF
:103178009C43834555000345450003A80700228664
:10318800A6871307E100814602982A842285F24027
:103198006244D2444249056182809386C7A463147D
:1031A800D4028357E10005473544E391E7FE034520
:1031B800060013040008E3EBA7FC938741909C43A7
:1031C800DC43829755B793862790631AD4028356B7
:1031D800E1008547EF50903C2A844DF99387C190D0
:1031E8008356A9009C4303C701903DDF03D62700FF
:1031F8006302D6047D171377F70FA107FDB79387EE
:10320800E7A4E313F4F68357E10005473544E39F49
:10321800E7F60345060013040008E3E9A7F6DC45D2
:103228002380A700938741909C433335A00009056C
:10323800DC4341BF13874190184303C5470083C54A
:10324800570083C714000328070003C70400A20718
:103258008946D98FC207C18705476383E7008D4632
:103268000D66A6871307E10013062690029839BF5A
:10327800411122C441641305F4FF938581D106C628
:1032880026C24AC0EF7040791305F4FF938581CFB9
:10329800EF7080781305F4FF938581D09724002080
:1032A80093840492EF70407797260020938646AF68
:1032B8004146F9452685EF70606ACC4C2A89094554
:1032C800EFF0CFEC1387818483460700938741840E
:1032D8000347170003C61700138481D283C507006C
:1032E800A306E40083D7A40CA30EE40003D7A41616
:1032F800A302C400A30AC40003D6A4132310F40035
:10330800231CE40083D7A40D1387C18303D5A4101D
:103318002318C4000357070003D6A4142311F4008C
:1033280085472303F4002306D4002307F400231958
:10333800C400230ED4002302B4002314A400230ADB
:10334800B40023150400230B0400231D0400230FDD
:1033580004002312E40203D7A418938581D523031C
:10336800F4022310E40203D7A4192307F402231557
:1033780004022311E40213870184035707000D4553
:103388002316E40203D7A41C2314E402EFF00FE091
:10339800A2851D45B13EB24022444A859244024965
:1033A800410182808D67138527A36301A604938753
:1033B800D7A40145631EF6008947639CF50085473D
:1033C80035456397F60083470700A38BF1900145C5
:1033D80082808D472945E39DF5FE85473545E3996C
:1033E800F6FE83470700A38AF190D5B78547354590
:1033F800E390F6FE83470700A389F190C9BF8D6764
:10340800138527A36308A6029387D7A46317F60238
:103418008947639BF50083C771912300F7008547AF
:103428002390F600014582808D476398F50083C795
:103438005191E5B783C73191CDB723900600DDB729
:103448000145828025E303A84500AE88834718001C
:1034580003480800A207B3E707010D68930EF8A414
:10346800639AD70391473548639FF60203A5C800BE
:103478004111B285114606C697100020E780C0A802
:10348800938741929C4305458297B2400148428503
:10349800410182809308289029486396170185473F
:1034A8006F50D00F2D484285828041654111938528
:1034B80001D67D1506C6EF702056B240972600202B
:1034C8009386C69441469945172500201305058E15
:1034D80041016F70A04823A2A192828001119385B7
:1034E80001D622CC06CE2A84EF501006058929C1C0
:1034F800014781460546ED452285EF50203F2AC603
:1035080005C9972700209387678A83D7A7050146AF
:103518002C002314F10085472315F1002300050032
:103528002285EF60405E09C5ED452800EF50E05365
:10353800F24062440561828041677917630CE502B5
:10354800411122C406C685472A84639AF50022855C
:103558002244B240938501D641016F70E04B894700
:103568006396F5008545EF90207575D1B2402244E9
:103578004101828082801C4123A4F1925C4123A6F0
:10358800F192828037170040938781920326470A79
:103598009386C1929C438C428326470A7D8EED8E8A
:1035A80011E691CA85472388F192828099E603271C
:1035B800470AF98FE5DB8947FDB78280411106C6C6
:1035C800EFE07F90BD4763F4A700EFE0DF8FEFE007
:1035D800DFB7BD4763F4A700EFE03FB7B24083D53C
:1035E800A18C03D5818C41016F10406041119396E5
:1035F8002500AA852D4506C697000020E780E05BD8
:10360800B240014541018280411126C293942500B0
:1036180022C44AC02A843289A686AA85014625453D
:1036280006C697000020E7804059A6864A86A285EC
:10363800294597000020E7804058B2402244924430
:103648000249014541018280011122CC06CE37147E
:10365800004026CA4AC84EC652C483447405034A69
:10366800B4058349840503499405EFE05F838347E4
:10367800A40593F4F40F137AFA0F93E71700230DB8
:10368800F40493F9F90F1379F90FB717004003C73A
:10369800A705058B6DFF03D5C705A38D4705238CAB
:1036A8003705A38C2705A38B9704F2406244D244C4
:1036B8004249B249224A0561828041119397050126
:1036C80022C406C6C1872E8463DD0700EF00D058E8
:1036D80019C1EF00D0512165218DB240224441012A
:1036E800828093F7150013C51500E5FB9397250114
:1036F80063D00702EF20E148D13537F60200130600
:1037080006E0896503C51193EF1020260965E9B71E
:10371800939715010145E3D207FC130600649165F0
:1037280003C51193EF10602411657DB71D714946DB
:1037380097B501009385C51117B501001305C53468
:1037480086CEEF10400A11E101A037F700E0F957E3
:103758005CC7FD571CCB8566B7E700E023A0D710F0
:103768001306701010C3B8434146B0C323A0D7183E
:10377800B8C3010001001306C00381454808EF10D3
:10378800600097270020938767D93ECA8967938787
:103798000780231CF100ED47A301F1029307A01055
:1037A8002312F102D1472303F102A167938707E0AF
:1037B8003ECE970700009387A7E3BEC49707000093
:1037C8009387C7E4BEC685472304F102B54723089B
:1037D800F10297F7FFFF938787EB3EDAB7F507000B
:1037E80097070000938787E63EDE8146970700002B
:1037F800938707DD7000E1051945BEC097000020DA
:10380800E780A03B58088147994670003E960346DA
:10381800060085070507A30AC700E398D7FED24725
:1038280091C70357810185676373F70001A04808B2
:10383800EF10805111C101A0F6402561828041112D
:10384800170500001305A5E706C622C4EF10404C73
:10385800138411932300A400B92A034504002244C9
:10386800B24037F60200130606E0896541016F1081
:10387800C00F971700209387271903A34700938742
:10388800819388430283971700209387E71703A340
:10389800870093878193AA8588430283971700201E
:1038A8009387871603A3070193878193884302832D
:1038B800371700409386C1938327870A9442D58F90
:1038C8002324F70A8280371700409386C193832701
:1038D800C70A9442D58F2326F70A828037170040FB
:1038E800938601948327870A9442D58F2324F70A65
:1038F800828037170040938601948327C70A944231
:10390800D58F2326F70A8280397122DC06DE26DA73
:1039180023A0C19423AED192368401CDAE8491C93F
:10392800814532C6EFE09FB981452685EFE01FB992
:10393800324632858D45EFE07FB822858D45EFE030
:10394800FFB7970700009387E7F63EC89707000080
:103958009387A7F73ECA97070000938767F83ECC7E
:1039680097070000938727F93ECE97170020938783
:10397800A7099C43080893858193829797070000BD
:10398800938767EF3ED097070000938767F13ED68D
:1039980097070000938767EF3ED297170020938719
:1039A80027059C430810938541938297F2506254EF
:1039B800D25421618280411106C622C49306700543
:1039C800371400402300D404130780FA2300E404CA
:1039D8008347F40293F7A70FA307F4022300D40444
:1039E8002300E4048347F40293E72700A307F402C3
:1039F800F1361305407E23000404814701478146C0
:103A080005468545EFE05F982244B24001454101F3
:103A18006F104060828083C78194850793F7F70F02
:103A28002384F19441111397050122C406C64187E6
:103A38002E84635F070003C5E185EF00F02119C1FB
:103A4800EF00F01A2165218DB240224441018280A5
:103A580013F7150013C5150065FB13F7450019CFBB
:103A680083C7E1851307401F81462146A14503D539
:103A7800C185EF60111313454400F9B713F725000A
:103A8800014579D3858B99CB938641952146854508
:103A98000545EFF08FC6134524007DB79386019541
:103AA800094685450945F5B77D15954763E2A7069B
:103AB80017B70100130707DB0A053A951C410111E6
:103AC80006CEBA9782872C0013054030EF60313359
:103AD8002C000545EF404029F2400561828023A073
:103AE8000186DDBF854723A0F18683D7A5000D6633
:103AF80013060620914503C5E185239EF184EF0056
:103B0800D066D9BF894723A0F186F9B78D47E5BFAD
:103B18008280011122CC4EC606CE26CA4AC852C49B
:103B280056C25AC0BA893E84D5E28D679387D7A416
:103B38002A8B2E8AB28A6315F60689476392F506A0
:103B48009387C19498438547631CF7048346140000
:103B5800171700201307C7E993874193858A03281D
:103B6800C7003A898843BE841147A1CE97B60100A1
:103B7800938646D20946994502988347140003283C
:103B8800C9008840898B114797B60100938606D1F2
:103B980089E797B60100938666D20946AD45029833
:103BA8002287624483C60900F240D2444249B2499E
:103BB8005686D285924A224A5A85024B05616FF091
:103BC8006FFE97B60100938666CF6DB78547639FF2
:103BD800F60022876244F240D2444249224A924A7D
:103BE800024BCE86B24905616FF07F8189476399A0
:103BF800F6001306401F894503C5E185EF00F0561E
:103C0800F2406244D2444249B249224A924A024BA3
:103C18000145056182800111170500001305E5DFE4
:103C280006CE22CC26CAEF10A00E9384E185054467
:103C38002380A400700085451305503023068100B9
:103C4800EF60B1291386C1849D4513056030EF608C
:103C5800D128171600201306261DFD4513057030C0
:103C6800EF60B12717B60100130646C1DD450145CF
:103C7800EF4050038D4770009145130570402305B0
:103C8800F10023048100A305810002C6A3040100FA
:103C9800EF50F1203000854513050040EF503120EA
:103CA80013069100854513051040EF50511F130668
:103CB800A100854513052040EF50711E1306B10081
:103CC800854513055040EF50911D99477000854573
:103CD80005452306F100EFE01FC8EFF06FD99715EF
:103CE80000209385651313854185EFF0CF9F03C5A9
:103CF80004008545EF001035F2406244D244056166
:103D08008280938641952146854505456FF0EF9E53
:103D1800938601950946854509456FF00F9E93875F
:103D2800C1949C43A5EB411122C42A841717002093
:103D3800130707CC9387419326C24AC006C69376D9
:103D480014000328C7003A898843BE84114795CEDA
:103D580097B60100938606B40946994502980988E2
:103D68000323C9008840114797B60100938606B31C
:103D780009E497B60100938666B42244B24092449F
:103D880002490946AD454101028397B60100938671
:103D9800E6B2D9B78280011197070000938767F8C8
:103DA8003EC497170020938767209C4306CE2800BF
:103DB8008297EFE03F8EF240B7E700E03707400018
:103DC80023A0E710056182809387018D8843411104
:103DD8002146938541951305050406C6EF90617346
:103DE800B240214541016FE0DF9213870195938727
:103DF800418D9C43834607000347170009452380EC
:103E0800D704A380E7046FE03F9293970501C18729
:103E180063D5070021652D8D82800111238A0194C5
:103E2800A38A0194238B0194A38B0194238C01947E
:103E3800A38C0194238D0194A38D0194238801946C
:103E4800A388019406CE22CC26CA4AC89387019338
:103E5800038407000DC48544630A941A8947630ED6
:103E6800F41C23880194892B2388019283C7919499
:103E780085078D8BA384F1948947A385F194B716A0
:103E8800004003A4460A03A7460A2166718C1377EB
:103E9800071013341400133717000E070A04598C3F
:103EA80003A7460C85677D8F83A7460C1337170039
:103EB8001207F18F93B71700598C96075D8C83A76B
:103EC800460C1167F98F93B717009A075D8C83A783
:103ED800460C0967F98F93B717009E075D8C62043B
:103EE80061849374F40F93F744008DCB9307D0FC4F
:103EF8002388F194D12197170020938767AF138502
:103F08004193DC4708410D4797B60100938686998F
:103F18000D46A945829723880194792913F98400CD
:103F2800630209021387419397170020938747ACD0
:103F38009C4B08439306E0050D46894582978547C3
:103F4800238AF19493F704019DC713874193971728
:103F580000209387E7A90843DC470D47630B091244
:103F680097B60100938646940D46A9458297930714
:103F78008005238DF19493F704028DC31387419331
:103F8800971700209387C7A69C4B08439306800584
:103F98000D4691458297ED47A38BF19493F704045E
:103FA8008DC31387419397170020938767A49C4B71
:103FB8000843930630040D46994582979947238C08
:103FC800F194635204021387419397170020938753
:103FD80027A29C4B0843930660050D46A14582978E
:103FE800E547A38CF19483C7A1940145638A9700A0
:103FF8002AC67D263245238591948947A385F19465
:10400800F2406244D244424905618280A557238820
:10401800F1945D2683C79194638F8702A9C70947E6
:104028006381E7060D47E39EE7E297170020938731
:10403800279C9C4B9306C00535A8A9572388F19463
:10404800A52E83C79194E38297FE91CF638B870255
:104058000D47E398E7E097170020938767999C4BF3
:104068009306F00201A897170020938767989C4B46
:104078009306C0071387419308430D4681458297ED
:10408800CDB3971700209387A7969C4B9306D00231
:10409800D5B797B60100938666810D46A9458297E4
:1040A8009307C002238BF194F9B50111170500009D
:1040B8001305E5D506CE22CCEF0090458967138419
:1040C800F1853EC091672300A4003EC20A8595474A
:1040D8002306F10002C4EFF00FCA85450965EFE039
:1040E800EFBD85451165EFE06FBD89450965EFE0D6
:1040F800AFD1B7E700E03707020023A0E710034578
:10410800040041468545EF00101A85451305001047
:10411800EFE0CFBA85452165EFE04FBA85450565E3
:10412800EFE02FC485452165EFE0AFC385451165F4
:10413800EFE02FC385450965EFE0AFC2F240624466
:104148000561828041111305800406C697F0FF1FA0
:10415800E780207B294597000020E7808092EFF0D8
:10416800EFDCEFF0CFEDEF601100012CAD20353F13
:10417800EFE0DFD0EFF03FAAEFF0FFC1970000209B
:10418800E780609793970501C18763D5070021658C
:104198002D8D828083C7B19499E301458280FD17F4
:1041A80093F7F70FA385F194EDFB971700209387FA
:1041B8002784138541930841DC47411106C64147CE
:1041C80097A601009386C66E0D4681458297B24038
:1041D8000145410182804111C14613060002814513
:1041E800014506C622C426C213844193EFF0CFF1DD
:1041F800970400209384C47FDC440840414797A675
:1042080001009386266C014681458297DC4408406C
:10421800414797A601009386266C054681458297FB
:10422800DC44084009468145414797A6010093862A
:10423800E66B829717050000130505F5EF00502D72
:104248002244B240924413060064854541016F0040
:10425800900583C7C1958507858B238EF194939725
:104268000501C18763D5070021652D8D8280B717A9
:10427800004003A7470A411122C413770720B33728
:10428800E00023A6F19406C69387018694433E84F2
:10429800894749E76384F600EFE0BFD5B787004058
:1042A80083C7370093F7F70F85CB13874193970799
:1042B80000209387E7739C47084397A601009386DD
:1042C80026640146B1458297854723A2F186B2400C
:1042D800224401454101828023A2018683C7C195FA
:1042E80091CF0547E395E7FE97070020938747702E
:1042F8009C4797A601009386266111A8970700207E
:104308009387076F9C4797A601009386A65F13873C
:10431800419308430146B145829755BF23A2F186D0
:104328006394F600EFE01FCB1C4091CF0547E39064
:10433800E7FA970700209387A76B9C4797A6010089
:104348009386465DE9B783C7C19591CF0547E3904A
:10435800E7F8970700209387A7699C4797A601006D
:104368009386065B6DB797070020938767689C471D
:1043780097A601009386865959BF41111705000079
:10438800130565ED06C6EF00B018854513060064F1
:10439800192FB24085451305002041016FE00F92A7
:1043A8009387C1949C4389C705476385E70082804A
:1043B8006FF09FA16FF0FF949387C1949C4389C7C6
:1043C80005476385E70082806FF03FA26FF05F9436
:1043D80023AC05FE1C4191E7010001000CC182805D
:1043E800BA8703A787FF6DFF23ACB7FE82801DC184
:1043F8008346E5FF1307F00F9147639EE6004111DE
:1044080006C697000020E7808054B24081473E8569
:104418004101828095473E85828001E9014582807D
:104428000145B240224441018280411122C42A84BC
:10443800210542059305D004418106C69700002056
:10444800E780404771DDFD572320050023128500D2
:104458002303F5002105F1B7138701961C43411189
:1044680022C426C24AC006C601440149BA8489E763
:10447800A16595250DC401A803C7E7FF6318A70226
:104488001DC8A165C1269840832784FF6317E402ED
:1044980023A0F196FD57232C04FE230FF4FE22855A
:1044A800B2402244924402494101828011E03E898F
:1044B80083A787FF6DBF3E84E5BF232CF9FED9BFD4
:1044C800A9C9411122C406C62A849737002083C788
:1044D800B7882E856368F400193F0D45B240224421
:1044E8004101828083A785FF99E703C7E5FF93070A
:1044F800F00F6305F700E53D1545CDB7238F85FE21
:1045080013850196F13522852244B240A165410107
:1045180015AE1545828023A00196828093878197E6
:104528009C4399E33E85828003D727006316B70032
:1045380003C70700E308A7FEDC47E5B741119397D7
:1045480005014AC006C622C426C2C1872E8963DE79
:104558000700193711C1613D21653345A900B240F3
:1045680022449244024941018280AA860145E5D944
:1045780001443D47B3578940858B95CB9387C196B6
:104588008443BD4791E28147A2978E070545BE94B3
:1045980033158500131405019C40C840418082975B
:1045A80023A0040023A20400334524014DBF0504C1
:1045B800E312E4FC0144CDBF9727002093870776D8
:1045C8009C53411122C406C61384818695C78297DD
:1045D80023A4A1860840B74703009387D73F330534
:1045E800F502B7A72600938737ECB24022443E95E0
:1045F80023A4A18641018280972700209387C7754D
:1046080018409C4BBA9723A4F186E9B79387419643
:1046180090439726002083C63674814713F7F70F17
:104628006360D70A1737002003473787914763E04D
:10463800E70A9737002083C7E78A918BC9EB0111F6
:10464800680006CE22CC26CAEFC0002EFD56630FA6
:10465800D50C32479727002083C7776D63F3E70CA3
:10466800172700201307476F4047172700200347E5
:10467800276C6305D406058B21CF51473304E40228
:1046880063F1870A97000020E78020ADB247637383
:10469800F400A2871727002003477769998F3E9572
:1046A80097270020938787678387470163CD070291
:1046B800B707C0A86369F502B70740573E9525A01C
:1046C80085071397170032970357E7FF21DB82808E
:1046D800130790023304E40205805DB7620761871F
:1046E800635707001D8D19E93705C0A801A8E37BAA
:1046F800F5FE3707C0A8B307F7403E959727002077
:104708009387C761DC53829709ED97270020938729
:1047180067789C4F99C7EF10E101EF10615AEF00DD
:10472800D175F2406244D244056182809727002007
:1047380093878762DC47E386A7FE172700201307C5
:10474800E75D83464701BA84858A9DC65144338410
:1047580087029727002083C7975DE3F487FC9700BB
:104768000020E780809F9727002083C7575C1D8C17
:104778002295838744011DBF130490023384870266
:104788000580C1BF2A9609E582800505A30FB5FEFD
:10479800E31DC5FED5BF81473307F50003070700B2
:1047A80019E33E8582808507C5BF01112E8626CA7A
:1047B800AA84131506019305F004418122CC06CE84
:1047C80032C697000020E780E00E2A8419C53246D9
:1047D800A68597F0FF1FE78020732285F240624488
:1047E800D2440561828081476314F60005458280C2
:1047F8003307F5008507B386F5000347070083C62E
:10480800F6FFE383E6FE014582809307F6FFBE9537
:104818002A966313C5008280FD1583C71500050518
:10482800A30FF5FEFDB7814711E9014582803307E3
:10483800F50003470700E31AB7FE8507E319F6FEFC
:10484800054582809727002083C71751637FF500AD
:10485800138741969317150008433E958357050023
:10486800DD8D2310B500014582800D458280FD57FE
:104878000111172700202327F74E9387819722CC11
:1048880080434EC6972900209389494926CA4AC8B9
:1048980052C456C206CE5AC02A8981444E8A972AE3
:1048A8000020938A6A4B184481476374E900B30770
:1048B800274103A749021CC409CB03A7CA0063F612
:1048C800E70017270020232FF748A1E78355240086
:1048D8009DE95C44A1E823ACF196032BC400228532
:1048E80097000020E780A0065A8455FC83274A02D7
:1048F80085CF6244F240D2444249B249224A924AA0
:10490800024B056121B3034504002D3F5C4081CB78
:104918001CC483572400D5DFA2844044F9B71C4443
:10492800CDDBC5BFDCC455BFF2406244D244424926
:10493800B249224A924A024B056182809727002099
:1049480083C797416371F502138741969317150042
:10495800084393C5F5FF3E9583570500FD8D231049
:10496800B500014582800D4582809727002083C7C6
:10497800B73E6364F50001458280411122C426C216
:104988004AC006C62A842E89B284EFF03FB901C511
:1049980004C505452DA0936504F0C205C1814145B4
:1049A80097000020E78000F10DE19727002093870A
:1049B800E7369C5B81C7A285114582970145B240C5
:1049C80022449244024941018280938781979C4303
:1049D8008DE323ACA19685472326050004C5231142
:1049E800250123008500A300F5002322050055B703
:1049F800BA87D84775FFC8C7F9BF45C539715AD0B6
:104A0800138BC19622DC26DA4AD84ED652D45ECE13
:104A180066CA6AC86EC606DE56D262CC3689328A43
:104A2800AE89AA8401445A8DB94D854BF94C0327A8
:104A38000B00131C3400937AF40F62971C43A9EF00
:104A480013B5FA0013451500B3978B0063F65D01A3
:104A5800930714FFB397FB0093950701C181528612
:104A680029371DC983270D000145E29784C323A276
:104A780037016304090023005901F2506254D254EB
:104A88004259B259225A925A025BF24B624CD24CAA
:104A9800424DB24D216182800504E31A94F9214503
:104AA800E9BF09458280411122C426C24AC006C610
:104AB800AA842E893284553DCA852685EFF01FA623
:104AC80009C940C10145B24022449244024941010A
:104AD80082802145CDBF411122C426C24AC006C6E4
:104AE800AA842E89EFF09FA32A8419C123110500F7
:104AF8009727002083C74726639497002398219718
:104B0800CA852685253D014511E01945B240224454
:104B180092440249410182807547636BA704138759
:104B2800C1961443411126C293143500A6969442A7
:104B380022C406C6AA873A84094595C613B5F70064
:104B48003947134515006373F700C5178545B395B5
:104B5800F500C205C18141371C400145A69723A035
:104B6800070023A20700B2402244924441018280F8
:104B780009458280411106C6EFF05F9A09C50845CC
:104B8800B240410182800145E5BFF54763EDA704C6
:104B98009387C1969C4313173500BA979843894762
:104BA80021C7011126CA06CE9334F50022CCB94795
:104BB80093C4140063F3A700451505443314A400F7
:104BC800420441802EC62685A2856D378947324624
:104BD80009C5A2852685513B8147F2406244D244EB
:104BE8003E850561828089473E8582802394A1960F
:104BF8002395B1968280411106C623AAA1960295F3
:104C0800B2409727002023A3A716014541018280BF
:104C1800994763E9B7008A05972700209387071605
:104C2800BE9588C18280411106C6EF50D15A71469F
:104C380081451725002013056514EFF0BFB413064E
:104C4800400281451725002013050511EFF09FB399
:104C580023AC019623AA01969727002083C7C70D86
:104C680013D527008D8B3E958D473305F5029305A7
:104C7800101035051375F50F97270020238FA70C03
:104C880099473305F5021305050F97000020E780C3
:104C980060C223A6A19635C9994717260020034666
:104CA800C60B3306F60281451306060FEFF09FADDB
:104CB8009387C1969C439387070F23AEF1961727D6
:104CC8000020034787090A07BA9723A2F196EFF055
:104CD8009F8445269387C19798439727002083C7C9
:104CE800B70793962700BA9617060000130646855D
:104CF80090C293862700850793F7F70F8A079725B1
:104D08000020A38BD504BA9790C3B240410182809A
:104D18009727002083C75704172700200347E70376
:104D280063F1E7021387C197184393861700172684
:104D38000020A303D60293962700369708C33E8522
:104D480082809307F00FE5BF1C41638E07184177F7
:104D58007D8FB706002089476318D7180357450089
:104D680063040718411122C419462A849305F00FD9
:104D7800590506C6EFF03FAB05478D476300E516BA
:104D88001C4481CB58589947630A0714185C630779
:104D980007141306C003814517250020130505F8DD
:104DA800EFF05F9E1306C003A285172500201305A8
:104DB800E5F697F0FF1FE78020159727002083D797
:104DC800A7F697260020938666F599E793070010C3
:104DD80017270020231AF7F49727002083C7E7F442
:104DE80091E78547172700202301F7F4972700202C
:104DF80083C7B7F391E7ED4717270020A307F7F21A
:104E08009727002083C787F291E795471727002047
:104E1800230EF7F09727002083C757F191E78547BE
:104E280017270020A304F7F09727002083C757F01F
:104E380099E783C7060117270020A30BF7EE9727EA
:104E4800002083C7C7EE91E7D1471727002023002A
:104E5800F7EE9727002083C747EE95E7172700202E
:104E6800034707ED1316870161869307C00263485D
:104E780006009377170093B717009387D702172771
:104E88000020230CF7EA9727002083C757EA95E705
:104E9800172700200347C7E9131687016186930780
:104EA800C002634806009377170093B717009387EB
:104EB800D70217270020A30CF7E68347D40191E710
:104EC800894717270020A309F7E69C5691C78297C0
:104ED800972700202395A7E8B9338147B240224499
:104EE8003E854101828089473E858280011122CC1E
:104EF80006CE2A842EC6EFF02FECB245F240818D03
:104F080033A5A502229562441375F50F05618280C9
:104F1800011122CC06CE2A842EC6EFF0EFE9B24565
:104F2800F240818D33A5A502229562444205418154
:104F380005618280011122CC06CE2A842EC6EFF0AC
:104F4800AFE7B245F240818D33B5A50222956244A0
:104F58000561828097270020938747DC985725C3EF
:104F6800411122C426C206C6BE8402971727002014
:104F78000357E7DE2A8441C7BA876373A700AA8765
:104F8800C207C183BA866373E400A286C206C182DF
:104F9800958F51476355F706DC5491C3829785472F
:104FA80017270020230CF7EEEF00B13D97270020CC
:104FB800239787DAB240224492444101828097279E
:104FC800002083C7A7ED9DE797270020938787ECEC
:104FD80083C79700850793F7F70F17270020A30FBC
:104FE800F7EAA18B9DC78547172700202318F7EA02
:104FF8006F00113F97270020A38207EAD5BF9727A4
:10500800002083C7A7E9DDD72244B240924441017A
:10501800C5B7828097270020938747D0D8570111BA
:1050280022CC06CE3E8401C72AC60297324511CD4E
:1050380023A0A19817F5FF1F1305A513EFF0BFBB19
:10504800F24062440145056182808307440163DDC3
:1050580007009727002023AD07D097F7FF1F9387F6
:10506800E70B23A0F198F9B797F7FF1F9387E70E8F
:10507800CDBF011122CC17240020130424CA0844F0
:1050880006CE26CA4AC801E90545F2406244D24420
:105098004249056182805C58E5DB185C75D7700071
:1050A800854582971844B247E300F7FE9305E0046C
:1050B80017250020035545C797F0FF1FE780807F1D
:1050C800172700202328A7CA61D1172600200356D6
:1050D800A6C59305F00FEFF0EFEA814417290020E9
:1050E800130989C79727002083C727C40326C90146
:1050F80063C1F402328597000020E78040850145AE
:105108009727002023A807C69727002023A607C6AD
:10511800ADBF9725002083D525C1B38795020844E4
:10512800185C898185043E9508C2029765BF4111C4
:1051380022C417240020130464BE1C4426C206C6D9
:105148004AC097240020938424C191EBC84C35E9C8
:10515800B2402244924402490145410182801C5CCC
:10516800F5D7DC4C99EF9305E0041725002003558B
:10517800A5BB97F0FF1FE780E0739727002023ABBC
:10518800A7BEC84C61D5172600200356E6B993057B
:10519800F00FEFF02FDF01499727002083C7E7B80A
:1051A800D04CE355F9FA9725002083D5E5B7338528
:1051B80025031C44898105093E951C5C08C2829719
:1051C800E1BF97F0FF1FE78080789727002023A38F
:1051D80007BA9727002023A107BA9DBF011156C21D
:1051E800972A0020938A8AB383A78A0022CC4AC8C8
:1051F8004EC606CE26CA52C45AC0AA892E843289FF
:105208006385072203A74A03630707147D4763667C
:10521800A71497240020938424B403AAC401631715
:105228000A0A9565938515E0172500200355C5AF33
:1052380097F0FF1FE78000689727002023ACA7B2EC
:105248002A86630A051083A74A0303A58A009725BF
:10525800002083D565AD8981829783A78A0003AA38
:10526800C401172700202329F7B08947639CF90850
:10527800C1476312F40E9725002083D5E5AA9385CC
:1052880005FC9147B3C5F5028A05D29503C7050009
:105298009307A005631DF70A83C715006399370BA9
:1052A8004A852286910597F0FF1FE780E0C5DC4C10
:1052B8005285639347150145F2406244D2444249FE
:1052C800B249224A924A024B056182809850E38E85
:1052D800E7F89565938525E0172500200355C5A4B3
:1052E80097F0FF1FE780005D2A8A35C52A8683A7C5
:1052F8004A0303A58A009725002083D5E5A2898162
:105308008297A5B78D47639DF900C1476315F404DB
:105318009725002083D545A1938545FDF199B5B71B
:105328009147639AF900631834039725002083D5C1
:10533800A59FA115E5B7C147639FF900A14763EC95
:1053480087009725002083D5259EC115C1BFDC4C59
:1053580052856397470D294585B71307F006568B85
:105368006361A70A130A05FE1947334AEA02172799
:1053780000200357679B972A0020938AEA9D330AE7
:10538800EA023E9A83A70A026395470183A4CA01E9
:105398009DE49305E004172500200355E59897F050
:1053A800FF1FE7802051AA845DD583274B039725EB
:1053B800002083D565972A868981528582979145F1
:1053C8001307A005898193972500A69783C6070030
:1053D8006393E60483C61700639C360385058A0534
:1053E8002286A6954A8597F0FF1FE780E0B183A73C
:1053F800CA01E38297EC268597F0FF1FE7802055C6
:105408005DBD1307E007E368A7F4130A05F985B73C
:1054180083D5270045BF83A7CA01E38E97F2268567
:1054280097F0FF1FE780A0523DB79727002093878A
:10543800A792CC4F8DD191479306A00589831397E6
:1054480027002E9703460700E317D6F003461700F8
:10545800631C360185078A072286BE954A8597F020
:10546800FF1FE78060AA81BD83572700C1BF972728
:1054780000209387A78A984739C79C5FA9C7054723
:105488006313E504411122C4172400201304C48CBB
:10549800504C06C60DC608509725002083D5C588F0
:1054A80089818297484C97F0FF1FE780404A9727E9
:1054B800002023A1078C9727002023AF078AB2403A
:1054C800224441018280828001111727002013079E
:1054D800E7844EC68329870022CC26CA4AC806CE4E
:1054E80052C456C2AA842E843289638A09201C5F5A
:1054F800BA8A99EB2945F2406244D2444249B249FA
:10550800224A924A056182805C5BEDD7FD4763E9D8
:10551800A70E972900209389298483A7C901B1CBB5
:1055280003A58A0083A709026395A70689476393A1
:10553800F408C147E310F4FC171500200355C57E95
:105548009147130505FC3345F5029317250003A57C
:10555800C9012286CA853E959307A0052300F50058
:10556800A3009500110597F0FF1FE780E09901451A
:1055780059B79305E004171500200355E57A97F00D
:10558800FF1FE78020339717002023A5A77E49F93E
:1055980095B783A74A0303A6C9019715002083D5A9
:1055A800A5788981829783A78A0017170020232569
:1055B800F77CADBF8D47639EF400C147E31CF4F24E
:1055C8001715002003554576130545FD9377C5FF4C
:1055D800BDBF9147639AF400E31E94F017150020AD
:1055E800035585742115DDB7C147E395F4F0A1474C
:1055F800E3E287F017150020035505734115F9B745
:105608009307F00663EAA706930705FE1947B3C791
:10561800E7021717002003572771171A0020130AEB
:10562800AA73B387E702BE998327CA01A9CF832744
:105638000A02639A37070325CA0191461308A00591
:10564800FD5593D72600C207C183139727002A97D1
:1056580003460700631D0607834817000356270003
:1056680063959806B306D64063CF860485078A07F4
:105678002286CA853E95C5BD9307E007E3ECA7E6F9
:10568800930705F979B79305E0041715002003552A
:10569800A56997F0FF1FE780E0219717002023AB4B
:1056A800A76C51F581BD83A74A030326CA01971544
:1056B800002083D5656789814E85829797170020DA
:1056C80023AC376B8DBFA300B700B2869DBFB385EF
:1056D800860017160020035626659105130606FC5A
:1056E800E3FAC5E0130634001376C60F1106B29626
:1056F80023000701A30097002311D70085BF971740
:10570800002093876765D44FBE89A1C203A5C9014C
:1057180091461308A005FD5593D72600C207C183FB
:10572800139727002A970346070063160605834840
:1057380017000356270063989800B306D640E3D7AE
:1057480086F2A300B700B286C1BF8357C7001715FA
:1057580000200345855D9305E0043305F502420505
:10576800418197F0FF1FE780E0149717002023A3DB
:10577800A76049FD41B3171600200356E65A97154E
:10578800002083C5855AB385C50233868600110675
:10579800E3E2C5D681BF01458280011106CE2EC63F
:1057A800EF70C04001C9B245F240035525000561BC
:1057B8006FA0E066F240494505618280A386019AA0
:1057C8002386019A23AA019823AC019823AE019855
:1057D80023A0019A23A8019823A6019897170020CF
:1057E8009387875B3707B40098C33747A000D8C3AF
:1057F800370710009306070A94C7B7065000C1067A
:10580800D4C7930607054107D8CB3707D007410708
:1058180098CF3707840398D337C70700130707B80B
:10582800D8D3416794CB93060701130717F8D8D745
:10583800417723AE070094D798DB8280011126CAEE
:10584800AA84214522CC06CE2E8432C636C43AC25A
:10585800EFE0BFBC1DC9A24612473246930700FDC0
:105868002300F5009947A30095002301F5002303C1
:10587800D500A303E5002312C500AA85228562444A
:10588800F240D24405616FE0BFC3F2406244D244A3
:105898000561828023AAA198828023ACA198828086
:1058A80023AEA198828023A0A19A8280011122CCE4
:1058B8004AC806CE26CA2A890144B3048900636807
:1058C800B400F2406244D2444249056182802EC647
:1058D800EFE09FCE93170501C183A183B2452380D2
:1058E800F4009307140093F7F70F850463F9B700E2
:1058F800CA9709042380A7001374F40F7DBF3E8460
:105908007DBFC167171500200355A54CFD1763021D
:10591800F502411103C681A39385419A06C6EF702B
:10592800200AB240FD57171700202314F74A4101F7
:105938008280828009C925151375F50F1335850EE8
:105948001345150082800145828023800500F947B0
:1059580063E2C708797122D426D24ECE56CA5AC8F5
:1059680006D64AD052CC5EC63684B289AE8A2A8B15
:10597800814463FF3405B307940003CA0700138901
:1059880014001379F90F63050A04B3072A0163C1E8
:10599800F904B307240183CB07005E85613F0DC975
:1059A8009307FAFF2380FA0063906B03130519002D
:1059B8002295B250225492540259F249624AD24A6C
:1059C800424BB24B45618280D29493F4F40F55B7A1
:1059D8000145C5B701458280411126C2AE8422C463
:1059E8009717002023AEC73E9717002023A8B73E7D
:1059F8009717002023A2A73E2A8441469305F00F5B
:105A080026854AC006C60549EFE0FFE1631E250367
:105A1800971700209387873B884BC145413D4146F6
:105A28009305F00F2285EFE01FE085446316950289
:105A380022449717002093876739B240924402495D
:105A4800C847C14541019DB5414681452685EFE0DE
:105A58009FDDE31625FD6DBF414681452285EFE0B8
:105A68009FDCE30795FCB24022449244024941017D
:105A78008280411122C426C22E84AA841306000201
:105A88008145171500201305653406C6EFE09FCF42
:105A980097170020A38D9732A38D81A2EFA0A0397C
:105AA800854719C181474945B2402244171700204C
:105AB800230EF730924441018280814781CD19C974
:105AC8008547631BF50083C7550093E707FCA3824E
