:040000006F10001D60
:1000040000000000000000006F0080086F00E02284
:1000140000000000000000000000000000000000DC
:1000240000000000000000000000000000000000CC
:100034006F004006000000006F00E00500000000B3
:100044006F0080056F0060056F0040056F0020059C
:100054006F0000056F00E0046F00402700000000FF
:100064006F0060046F0040046F0020046F00000400
:100074006F00E0236F00C003000000006F00600306
:100084006F0040036F0020036F0000036F00E00265
:1000940001A001A001A001A001A001A001A001A054
:1000A40001A001A001A001A001A001A001A001A044
:1000B40001A001A001A001A001A001A0B717004068
:1000C400130770052380E704130780FA2380E704ED
:1000D4002396A70223800704371700408347270588
:1000E400898BEDDF835707053717004083472705C2
:1000F400898BEDFF3717004083472705898BEDDF98
:10010400035507058280B7170040930670052380C6
:10011400D704130780FA2380E70403C6B7041376D1
:10012400F60DA385C70423800704137605022DC6A4
:1001340003C6A700118A0DE22380D7042380E704B5
:1001440003C7A700136747002385E7009307004B05
:1001540001000100FD17EDFFB7170040930670057D
:100164002380D704130780FA2380E7047D8923942E
:10017400A70001000100010001002380070423807F
:10018400D7042380E7049306100537270040A30310
:10019400D780238007048280137605046DDE03C6AE
:1001A400A700418A0DE22380D7042380E70403C714
:1001B400A700136707012385E7009307007D01006B
:1001C4000100FD17EDFFB71700409306700523806B
:1001D400D704130780FA7D892380E7041365050497
:1001E4002394A700010001000100010023800704FB
:1001F4002380D7042380E704930630053727004083
:1002040079B74111814601468145114506C65922F7
:10021400B7170040130770052380E704130780FA1B
:100224002380E70403C76704136717002383E704E5
:1002340023800704B2404101828081460146814502
:100244001145892AB7170040930670052380D70407
:10025400130780FA2380E7047D562396C702238080
:10026400D7042380E70403C76704136717002383B5
:10027400E7042380070401A0BD473305F50201000C
:100284007D1575FD8280411122C426C206C6AA844A
:10029400014463179400B240224492444101828095
:1002A40005041305803E4204C13F4180DDB7B71702
:1002B4000040130700032388E702854723A6F19033
:1002C40073002030411106C69929FDBF97F0FFDF66
:1002D400E780C056730020302303048015472303AE
:1002E400E48001002302A480828083076480E3CE3B
:1002F40007FE23030480828083076480E3CE07FE25
:1003040003454480828083076480E3CE07FE230292
:10031400A4808280411126C44AC24EC006C6137707
:10032400F50BAD47AA892E8995446306F700194554
:100334006537653F8D444E854537FD59FD146398F7
:100344003401B240A24412498249410182801355CA
:1003540009011375F50F453F2209CDB7011126CCCC
:1003640006CEB704080051371545BD3771376937D4
:100374002AC6A53F32459377150089EB136515000E
:100384001375F50FF240E24405618280FD14E9FC27
:100394000145CDBF397126DC4ADA4ED852D656D43F
:1003A4005AD25ED006DE62CE66CCB7E700E07D5757
:1003B40083AA070022C603AA470023A0E71823A2A2
:1003C400E718B7170040130770052380E7041307E5
:1003D40080FA2380E70483C74704930B75FFB68430
:1003E400E20793FBFB0F8546AA892E8B32893724BB
:1003F4000040E187015763FA76016308D500894616
:10040400130700026313D5000157D98F93F7F70F31
:10041400B71C00402382FC0411472303E480130526
:10042400F00F5D3D094CD13563697C11B7070700B6
:100434003E9B378707007955637EEB02B3079B0029
:10044400636AF702A9476399F90689E48144713D17
:1004540026850DA0DA850945753D05090345F9FF93
:10046400FD14050B4D3581C49377FB0FFDF7FD3566
:1004740069FD7D55B7170040130770052380E70415
:10048400130780FA2380E70403C74704418B2382C0
:10049400E704F250B7E700E023A0571123A2471165
:1004A400E25432445259C259325AA25A125B825B04
:1004B400724CE24C21618280A5476395F9068569F7
:1004C4001309F00FB3069900B3742B01B6941349C2
:1004D400F9FFB3749900856B33796901416B938794
:1004E400F9FFB3F7270199E363FC340193D9490079
:1004F400C147E3E637FF99BF0569C1697D19D9B7DB
:100504001305800D63886901130500026384790172
:1005140013051008CA85FD3B913521DD4E99B3843E
:100524003441D9B7DA852D45F533CA94E30099F2FD
:100534000509D933A30FA9FED5BF9387F9FF93F714
:10054400F70F636CFC0803C75C04B7070800137754
:10055400070219E3B78707007955E37DFBF03307FA
:100564009B00E3E9E7F089476390F9048980D54962
:10057400E38E04ECDA850945713B11090327C9FFB1
:1005840091472320E48003076480E34E07FE23039E
:100594003481FD17EDFBFD14110B81C49377FB0F20
:1005A400E9FF6D3B71F5F1B58547E387F9F4DA8529
:1005B4002D458D339389F4FFE38A04E8353B93F7A3
:1005C400390091EB8326048003270900930749002F
:1005D400E39FE6E63E89CE84F1BFB5476396F90012
:1005E4001305900BD5399DB5B1471305B00AE38BBC
:1005F400F9FE9947639EF902DA852D45213B814432
:100604008D4BA149D5396396740183270480232037
:10061400F9008504E39834FF8327048013172B0122
:10062400635507002312F90015B52322F90039BDDB
:100634009D476399F90281451305B004E139BD442E
:100644002320090023220900FD597D3193F774000A
:10065400CA9703C70700FD14398D2380A700E396CA
:1006640034FFEDB3A1476392F904CD398144630D9E
:100674000B008D479304C0036308FB00930400053B
:1006840063048B01930440041375C507E30095DCF0
:10069400194599319939054581312685AD31094589
:1006A4009D316D39E31405DAE9B391476399F90093
:1006B40013056006153115391305900925B7E3872D
:1006C40009D8F15469B309CDB71700401307700571
:1006D4002380E704130780FA2380E7042396A70204
:1006E400828019C1814799E982803387F500834666
:1006F40007003307F50085072300D700E397C7FEFB
:10070400E5B719C1FD5781E98280910503A7C5FFAB
:100714001105232EE5FE7D16E319F6FEF5B7797172
:1007240022D4173400001304A4FE1C4006D626D29B
:100734004AD04ECE91C782979737000023AA07FC70
:100744005C4089CB03D50199BD3F5C40829703D5BA
:100754002199953F1C40639907189737000083C778
:10076400F70C858B95C797370000A381070C1737C3
:1007740000000347D70B914763FCE7004D2B9737E5
:10078400000083C7D70AF9178A07A2979C43829768
:100794009737000083C7470E918B89C7972001E0E4
:1007A400E78020491C4491C382979387C19898435A
:1007B40017360000034696F33E899734000093846D
:1007C400E4F29737000083C767F293961700BA964E
:1007D40083D60600638006109737000083C707F1AD
:1007E40063F2C70886073E97835507002310070066
:1007F40003D501992EC6239C0198F1359387419A1C
:100804009C4317350000034565EE13172500BA977E
:100814009C43B2458297AA8903D521996D359737B0
:10082400000083C7A7EC139717008327090003D59B
:1008340081991345F5FFBA9703D70700337535013E
:10084400598D2390A70083C70400850793F7F70FFA
:1008540017370000230CF7E817370000034717E9A0
:1008640063E6E70097370000238207E81C40ADEFFA
:100874009387C19998433E8425CB9737000083C75B
:1008840057FB91CB9737000083C777FA89E7972006
:1008940001E0E780C0EA1C4082972A8431C59C4865
:1008A400AA9717370000232BF7E49387019A9C43F8
:1008B40085CF03D50199013D2285971000E0E7809B
:1008C400A0D92254B25092540259F24903D5219925
:1008D4004561D5BB850793F7F70F9736000023874B
:1008E400F6E0E3E0C7EECDBDB25022549254025973
:1008F400F249456182809167B7C6004093873730DB
:1009040023A6F6200F10000097370000938707DE18
:10091400884F938741A99C43316713073730F053BD
:10092400B7071000FD17918F99833A0523A6E62097
:100934005D8D82804111B7170040985F3AC6945F7D
:100944003247E39CE6FE324541018280411106C6EE
:10095400D5379736000083C6E6D6858AB1C6930795
:1009640030333307F502B337F5023983CA07D98F19
:1009740017370000130787D7584B01456303F70265
:100984003385E740636BF70037653D0889C63785D3
:100994006F0813050590198D3E9517370000232124
:1009A400F7D6B24041018280E5473307F502B337F9
:1009B400F5022583DE0765BF0327C50F8346B5000F
:1009C40097370000938747E69C4F58439386160257
:1009D40095829043FD1693F6F60F10C3D04350C38F
:1009E400904710C7D04750C7904B10CBD04B50CB3B
:1009F400904F10CFD04F50CF91C613070702938763
:100A04000702C1BF82808347E50193F7E70FF1E74F
:100A14002A870345F50171E10346070183468700F0
:100A240009CA8345A7029737000083C7B7C963E79C
:100A3400F50093F70601C5C7814709C6C18A8357E4
:100A4400071581C603574715BA97D1CB173700004E
:100A5400130707E93847411122C406C67D5483268B
:100A6400070863F386003684184375FB17370000C4
:100A7400034747C593168701E18663D90602938726
:100A8400C713958317370000034767C4BA9763D029
:100A940006041D8C9387819A9C4382973335A40066
:100AA400B24022441345150041018280058B93878F
:100AB400C71209CB8A079387F7031305D007B3D767
:100AC400A702C9B78607FD071305D003CDBFE3729C
:100AD400F4FC3705C0A82A946DBF0145828082804A
:100AE400411122C4138441A818404AC006C61C5FA1
:100AF40026C2138901A89983858BC1C31C5F9734CF
:100B04000000938464D293F7F7F91CDF9737000051
:100B140083C787D193F707048DC39387819A9C4336
:100B240082979737000023A9A7D083C7040093F7BF
:100B3400F70B173700002309F7CE85471737000056
:100B4400A306F7CE83C7440093F7070481EF938786
:100B540041A99C43D844B8D3930700FC173700003D
:100B64002306F7CC8387640063D907008327090031
:100B74009C4317370000230CF7CA18401C5F858379
:100B8400858BC9CBF5571CDF010001000100010072
:100B94000100010001000100010001000100010049
:100BA4000100010001000100010001000100010039
:100BB4000100010001000100010001000100010029
:100BC4000100010001000100010001000100010019
:100BD4000100010001000100010001000100010009
:100BE40001000100010001000100010001000100F9
:100BF40001000100010001000100010001000100E9
:100C04000100010001000100938741A99C431307DF
:100C14005004B8CB18401C5F9183858B89CFBD5796
:100C24001CDF938741A99C4323A8070485471737F2
:100C34000000230DF7BE83270900D8430583058BE5
:100C440019C7D843759BD8C3D843799BD8C3B2403E
:100C540022449244024941018280397106DE16DC45
:100C64001ADA1ED82AD62ED432D236D03ACE3ECC78
:100C740042CA46C872C676C47AC27EC09535F2505E
:100C8400E2525253C2533255A255125682567247FB
:100C9400E2475248C248324EA24E124F824F21615F
:100CA40073002030938741A994431737000013073A
:100CB400A7B7BC5289CF83472700858B89EB83472D
:100CC4003700858BFDD797370000238107B68280D4
:100CD400938701A99C4399CB944BD04B9842518F55
:100CE40098C294439C479842D98F9CC2938741A948
:100CF4009C4337C700401306C003A8CB93062003C8
:100D040097350000938545B283278720C18393F7E5
:100D1400F7036369F60083278720C18393F7F703FA
:100D240063E6F60083C74500858BF9DF82809387ED
:100D340041A9944317370000130707AFBC5289CB6E
:100D440083470700858B91CB97370000238007AE3C
:100D540097370000A38C07AC828083471700858BEC
:100D6400F1DFDDB7938701A99C4399CB944BD04B1A
:100D74009842518F98C294439C479842D98F9CC201
:100D8400938741A9944337C70040C145A8CA654623
:100D940083278720C18393F7F70363FBF500832739
:100DA4008720C18393F7F7036364F600BC52EDF325
:100DB4008280138741A81843AA87185F1583058B7F
:100DC40025EF0345150015051377C51F19C6B3860E
:100DD400E70083C626002300D60095C59736000099
:100DE40083C6E6A493F606040945A1CAB386E700C0
:100DF40083C63600054693F5F6066390C504E206FD
:100E0400E18663CC06023385E70083471500034778
:100E14000500A20793F70770D98F13970701418341
:100E24009376074099C6136707802396E1A8014586
:100E340082802396F1A8E5BF05458280938641A967
:100E44008C423685973600009386069E9845931704
:100E54000701C183137817203E86630408041377BF
:100E6400072079C303C7260013671700173800004B
:100E7400230DE89A13070019B8D1130700F8973522
:100E840000002385E59A138741A80C433708001016
:100E9400D855719B13672700D8D59841336707014C
:100EA40098C11377261005C31376061059CE03C7CD
:100EB400060013671700173600002307E696173756
:100EC40000002317079683C6460093C7F7FFC2079F
:100ED400E206E186C183184163D1060293961701A5
:100EE40063DE060630538D4663E9C6008546173631
:100EF4000000230DD6923453FDFE972600009386FE
:100F0400267B8386460163DD060093960701C1862E
:100F140063DC06047053894663E4C6007453FDFE23
:100F24001447F58F1CC7828003C716001367170088
:100F340097350000A38AE58E173700002308078E33
:100F4400173700002316078EA9BF03C7360013679F
:100F5400170017360000A30AE68C95B785461736A6
:100F640000002305D68C51BF5447139606016351E4
:100F74000602B7061000FD1674D397260000938668
:100F8400E676944E850617260000232DD67649BFB3
:100F9400A166D58F71B7397106DE16DC1ADA1ED850
:100FA4002AD62ED432D236D03ACE3ECC42CA46C805
:100FB40072C676C47AC27EC05135F250E2525253A0
:100FC400C2533255A255125682567247E2475248CE
:100FD400C248324EA24E124F824F2161730020301C
:100FE40017370000130707868346B70197370000B9
:100FF40083C79788B69793F7F70FFD4663EAF6041D
:101004004C4B97360000A38FF6829737000083C7B6
:10101400778305473317F70097360000A38EF684CD
:101024006D8F1DEF9736000083C65685B3F6D70241
:1010340013050002814733D6F500058A13F8F70F2C
:1010440009CE6399E60097270000A38D077F82806D
:1010540081177DB705071377F70F8507E39DA7FC75
:101064008280938701AA9843B75702009387279FEA
:10107400832607091396560063580600832607093A
:101084001396660063440600FD17FDF3828051C980
:10109400AA870145C9C98D07C207C183F19BC2074D
:1010A400C18313074003636BF702138701B308433B
:1010B400138781B214436396A6021727000013070F
:1010C400275F185B014525C34111C20706C60545C4
:1010D400DD8D0297B2400145410182801387C1B280
:1010E400F9B70357650005EF035745006369F70235
:1010F400B306F74021466370D602104193868700F9
:101104001D8FAA96611790C22392E60023930600CE
:1011140014C12312F5002313B50021058280084170
:1011240059BF01458280828001CD938701B303A812
:101134000700938781B28C430147C28763E3B700FA
:1011440082809443636FF50663EDA60613868700D9
:10115400E368C5FE03D56700216605066317C5006D
:1011640003C6C1A30506238EC1A22393070063848B
:1011740007031386C1B21042630FF60003566700DB
:1011840019EA83D7470014C383564700B697A107CB
:101194002312F700BA879843E304B7FA9386C1B2DF
:1011A4009442E30FD7F883566700D9FA83D64700F1
:1011B400035647001843A106B2962392D70098C35A
:0811C40082803E87B6879DBFC3
:1011D000974100209381816C17710020130181E2F7
:1011E00013054000972500209385C5611736002020
:1011F0001306C67D63FAC5008322050023A05500AF
:1012000011059105E3EAC5FE17D501001305C51ABE
:10121000973500209385857B1386818A63FAC50004
:101220008322050023A0550011059105E3EAC5FEC0
:101230001385818A97650020938545F56377B5000E
:10124000232005001105E36DB5FE9302800873A00D
:101250000230972200209382E25A93E212007390A8
:101260005230972200009382A29A73901234730036
:101270002030B717004003C777051377E70FA38B1C
:10128000E704130700F8A38DE7043D47238CE70428
:1012900013075003A38CE7048280B717004003D5DF
:1012A00087005D715ED64205418186C6A2C4A6C292
:1012B000CAC04EDE52DC56DA5AD862D466D26AD040
:1012C0006ECE9377050C13070008814B6388E718EF
:1012D00013070004639CE714B7240D8F7D89938462
:1012E0000480B3D4A4029167938707E8BE94A167F2
:1012F000938707D0B3D4F402EFC0611E97D70100E3
:101300009387478A9043D443EFB03152EFC0A15F37
:101310002A8B939C040103D9818A93DC0C01631509
:101320000900056913090980B71700401307700504
:101330002380E704130780FA2380E704371A00406C
:101340000547939D0401096C85662389E704D14A0A
:10135000814E8145130D0A0413087005130680FAA7
:10136000894893DD0D01130C0C712943FD162300F0
:101370000D012300CD0023162A0323000D0083470F
:101380002A05898BEDDF83570A0583472A05898B58
:10139000EDFF83472A05898BEDDF83570A052394E8
:1013A000218BC207C183338597419319050193D9D6
:1013B0000941638409163387B902635E070C850E01
:1013C000C20E93DE0E0163E8D80D63D9050A33051A
:1013D000B04093150501C185C204C18063D7350BA8
:1013E0000965130505713385A502B717004013077A
:1013F00070052380E704130780FA2380E70423960F
:101400007703238007043345950242054181B640A6
:10141000264496440649F259625AD25A425BB25B5C
:10142000225C925C025DF24D61618280B1E3B7742F
:1014300089097D8993840480B3C4A402916793874A
:1014400007E8BE94A167938707D0B3C4F402EFC046
:10145000010997C70100938767756DB597C70100AC
:1014600093870774856403AB07009384843855B56C
:10147000130B0000954471BD3A89D5BDB387FC407C
:101480009399070193D9094181BF09651305057136
:101490003385A9028DBF3385B74163E4FC003385F2
:1014A000FD40330585033344B503634583001315BD
:1014B0000401A9BF4E8536C642C432C2EFC04138CE
:1014C000DA85EFC0C108EFC08131931E050193DEBC
:1014D0000E41B307D941C207C183056E3E8712464C
:1014E000224889482943B24663E3C7013687420749
:1014F0004183631A2701130719006344300113075E
:10150000F9FF42074183FD1A93FAFA0FCA8BCE8581
:10151000E3940AF62394E18A59BF0145CDBDB7177C
:10152000004003D587005D7186C642054181A2C493
:10153000A6C2CAC04EDE52DC56DA5AD85ED662D493
:1015400066D26AD06ECE02C69377050C13070008E8
:10155000638BE71413070004639FE710B7240D8F14
:101560007D8993840480B3D4A4029167938707E8AC
:10157000BE94A167938707D0B3D4F402EFB031765D
:1015800097C70100938707629043D443EFB0F129D6
:10159000EFC061372A89939A040103DBA18A93DAA9
:1015A0000A0163150B00056B130B0B80B717004086
:1015B000130770052380E704130780FA2380E704EC
:1015C000939B040105478969056A2389E704D14D86
:1015D000014D814C93DB0B01938909717D1A5A856A
:1015E00097200020E780C02D330C5541420C135C3E
:1015F0000C412395618B63010C16B3079C0363D1E7
:10160000070E050D420D135D0D01894763EAA70D15
:1016100063DB0C0A33059041931C050193DC0C41FC
:10162000C204C18063D88C0B09651305057133852D
:10163000AC02B7170040130770052380E7041307B7
:1016400080FA2380E70432472396E70223800704C9
:101650003345950242054181B640264496440649E9
:10166000F259625AD25A425BB25B225C925C025DD2
:10167000F24D61618280B1E3B77489097D899384F9
:101680000480B3C4A4029167938707E8BE94A1675E
:10169000938707D0B3C4F402EFB0716497C7010019
:1016A0009387C750D5B597C701009387674F856467
:1016B00003A9070093848438F9BD130900009544F9
:1016C000D9BD3E8B29BF3385AA40131C0501135C8D
:1016D0000C41B9B70965130505713305AC028DBF1F
:1016E00063FEAA003305754133053503A94733442A
:1016F000750363C8870013150401B1BF3385AB4080
:10170000E5B76285EFC0C113CA85EFB05164EFC081
:10171000010D131D0501135D0D413307AB41420758
:1017200041838565BA876363B700D287C207C183E7
:10173000639A670193071B00634480019307FBFFD3
:10174000C207C183FD1D93FDFD0F5AC6E28CE39ACB
:101750000DF62395F18A45B70145FDBD41112A8358
:10176000014E930E407E130F0019930F400663EB5A
:101770006E0A9308001913034006B3781503854ECB
:101780000D4FA14F337365020D891335150063E5C5
:10179000BE0C1308F6FF79467298420813580801E8
:1017A0003307C70213D61700BE0732976146B3F658
:1017B000C60213068070B386C6023697A166F58FFF
:1017C00042075D8FB717004083C6F70293F60608FD
:1017D000A307D1000346F10083C6F70293F606087B
:1017E000E394C6FE8346F10093F6F60FF1DE93060E
:1017F00070052380D704930680FA2380D70423AA98
:10180000070383C6170393E60608A388D702D8DB2D
:1018100003C7170313670704A388E702238007049D
:10182000410182807D133368E3039308E016630E61
:1018300008003368F3039308D01663080800937810
:10184000330093B818009388D81633081E01131E6E
:101850000801135E0E0121BF6393E503054863860B
:1018600008000148630303002A8871087298FD1577
:10187000131E0801C205135E0E01C18109BF13F8D2
:10188000150063F4BF007908D5B713381800E5BF19
:10189000914763EEB70217C701001307A7318A0506
:1018A000BA959C41BA978287B717004003A7470BA8
:1018B0001345F5FF698F23AAE70A03A7070B698F72
:1018C00023A8E70A03A7070A798D23A0A70A828025
:1018D000B717004083A6470B1347F5FFF98E23AADD
:1018E000D70A83A6070B558D23A8A70A83A6070A44
:1018F000758F23A0E70A8280B717004003A7470B24
:10190000498F23AAE70A03A7070B1345F5FF45BF35
:10191000B717004083A6470B1347F5FF758F23AA1F
:10192000E70A03A7070A598D4DB7B717004003A769
:10193000470B498FEDB7914763EEB70217C7010018
:10194000130787288A05BA959C41BA978287B717EB
:10195000004003A7470D1345F5FF698F23AAE70C45
:1019600003A7070D698F23A8E70C03A7070C798D40
:1019700023A0A70C8280B717004083A6470D13470A
:10198000F5FFF98E23AAD70C83A6070D558D23A842
:10199000A70C83A6070C758F23A0E70C8280B717CE
:1019A000004003A7470D498F23AAE70C03A7070DA3
:1019B0001345F5FF45BFB717004083A6470D1347F2
:1019C000F5FF758F23AAE70C03A7070C598D4DB7B8
:1019D000B717004003A7470D498FEDB7B7F700E0F1
:1019E000C8439C478280B7870040238007001307C5
:1019F000C0FC2386E700A386E70003D7C18A2398AB
:101A0000E70003D7018B239AE70003D7418B239C80
:101A1000E70003D7818B239EE70089462381D70205
:101A200049472383E7022385E7022387E7022389C7
:101A3000D702A3810700130790022380E700B7169F
:101A4000004003D7A6011367070C239DE6007D57CE
:101A50002383E700130710F8A380E7001D472381C5
:101A6000E7008280B78700402382A70203C767028E
:101A70001377C70F2383E7028280B7870040238450
:101A8000A70203C7A7021377C70F2385E702828047
:101A9000B78700402386A70203C7E7021377C70F63
:101AA0002387E70282809387818C9C43411106C67D
:101AB00091C382979387C18C9C4391C382971737B8
:101AC00000200357C75D9307001963F7E70403D5A8
:101AD00041809306F01863E4A6049386418C03A327
:101AE000060063070300B240130500194101028399
:101AF0000507098F3385A740E5473305F5024207FF
:101B0000418309839307F7FF3E953345E50213753B
:101B1000F50FB2404101828013054006DDBF01454B
:101B2000CDBF03A84500411126C206C622C4834783
:101B3000180003480800A944A207B3E70701C20739
:101B40000D68C18713082890639607038547328480
:101B5000EF70B002AA8419ED9387018C9C4399CB56
:101B600003451400034704002205598D1335150061
:101B700005058297B2402244268592444101828025
:101B80002D452DEFD841411122C426C206C68347F8
:101B9000170003470700B684A207D98F0D67930685
:101BA00097A13284639CD702FD3D9737002083C7FD
:101BB000E74E6376F500973700202381A74E8547CF
:101BC0002390F4009737002083C7474D2300F4008B
:101BD0000145B2402244924441018280130787901C
:101BE0002945E398E7FECC4589472390F400094650
:101BF000228597200020E780002FD9BF828083476D
:101C00004500858BBDC7011122CC2A8403552500D0
:101C1000938541B406CEEF700071058939C503552F
:101C20002400014781460546ED45EF70002A2AC68B
:101C30000DCD97370020938767D983D7A702014638
:101C40002C002314F10085472315F100973700205D
:101C500083C7C7442300F50003552400EF80804864
:101C600009C5ED452800EF70203EF2406244056151
:101C70008280828041654111938541B47D1506C6FD
:101C8000EF906037B24097360020938626D94146C0
:101C9000954517350020130565D341016F90E02964
:101CA00023A0A18C8280411122C406C68547094425
:101CB0006313F502834706000144238EF18A173728
:101CC00000200347A73D6378F700170500001305C0
:101CD00045F3EFB0C0612285B240224441018280C9
:101CE00085476303F50209C909476304E5020D4707
:101CF0006308E502094582809737002083C7073AC9
:101D00002380F500014582809387C18B83C707003C
:101D1000C5BF9737002083D707CC2390F500DDB7E8
:101D200013878180035707002392E50017370020AF
:101D30001307C7C98356A7020357A7032383F500D8
:101D40002390D5002391E50075BF411106C6A13B44
:101D50009737002083C78734637CF50097370020CE
:101D6000238EA732170500001305A5E9EFB0205810
:101D7000B24001454101828041677917630CE50259
:101D8000411122C406C685472A84639AF50022853C
:101D90002244B240938541B441016F90C0258947E8
:101DA0006396F5008545EFB0004F75D1B2402244EF
:101DB000410182808280CC41411106C6328503C632
:101DC000150083C5050022064D8E42068D654186AD
:101DD000138875A2630C060F6348C804138845A2D4
:101DE0006306060B634AC800938535A26309B606ED
:101DF00023900600294679A0138855A26308060B94
:101E0000938565A2E316B6FEC1451D4663ECE50663
:101E10004546198E63F3C7003E862390C60097C5DA
:101E200001009385A5DC89A8138895A26300060F9D
:101E3000634E060B1388A5A2630A060F938505A5BA
:101E4000E318B6FA99451D4663EEE502198E63F371
:101E5000C7003E862390C6009385018131A89D4529
:101E60001D4663E1E5022146198E63F3C7003E86F5
:101E70002390C6009385018DBA9597200020E780B6
:101E800080060146B240328541018280AD451D4643
:101E9000E3EAE5FE3146198E63F3C7003E862390E0
:101EA000C60097C50100938525D8F9B7B1451D46F1
:101EB000E3EAE5FC3546198E63F3C7003E862390BE
:101EC000C60097C50100938525D77DB7C1451D463E
:101ED000E3EAE5FA4546198E63F3C7003E86239090
:101EE000C60097C501009385A5D179B7C1451D46A8
:101EF000E3EAE5F84546198E63F3C7003E86239072
:101F0000C60097C50100938525D4BDB7C1451D46C0
:101F1000E3EAE5F64546198E63F3C7003E86239053
:101F2000C60097C501009385E5CEB9B7B5451D46F6
:101F3000E3EAE5F43946198E63F3C7003E86239041
:101F4000C60097C50100938565C93DB79736002047
:101F5000938686C04146CD45173500201305C5AC94
:101F60006F80B07D828082809387C18E9C4303C73F
:101F7000018E83C6B18201E781473E85828003D608
:101F800007006316A60003C66700E308D6FE7D17A8
:101F90001377F70FA107C5B78547631AF5001166D8
:101FA000130686A9894503C5118E6F20707A89476B
:101FB0006317F500894503C5118E6F3020108280AC
:101FC00085476398F50019E2238DB18C2388C18E73
:101FD000828009476399E50019E6238DF18C03D5CA
:101FE000818D6F00B00782809387418E9C430111E1
:101FF00022CC06CE2E8481CB9C4791C78297F2409B
:102000006244056182806C0013057040EF70615E70
:10201000324681452285EF70111FD5B74111939744
:10202000050122C406C6C1872E8463DF070003C5ED
:10203000118EEF20D02019C1EF20D0192165218DFC
:10204000B24022444101828093F7150091CF1736A8
:102050000020130626B19385C18103C5118EEF8040
:10206000D11813451400E9BF93F725000145E9DBBA
:10207000E9391166130686A9894503C5118EEF203B
:10208000306D134524006DBF797126D24ECE06D631
:1020900022D44AD052CC9147AA84AE896314F50465
:1020A00083D7A5001306E100854513055030239C16
:1020B000F18C23070100238D018CEF80F13F938782
:1020C000418E9C4391C7DC4781C7CE852685829788
:1020D000B250225423AE918C02599254F249624A72
:1020E000456182801387C18D1843E31AF7FC85454B
:1020F00003D5818D5131854503D5818DEF00C07B9E
:10210000C16703DA818DF917631DFA06054493054B
:10211000E10013055041238D018CA38581822307A3
:102120000100EF70014D8347E100C1E703C7018F54
:102130009147E316F7F8930500030D45EF40104D66
:10214000930500051145EF40704C9305C00305450C
:10215000EF40D04B930500051D45EF40304B9305F4
:1021600000052145EF40904A85471306E10085456B
:10217000130550302307F100EF8011342388018EBE
:102180003DBF9387C18E03A9070003C4018E3DDCC8
:102190000355290011C99305E100EF70207D09C5A1
:1021A0004C455285EF8030657D141374F40F21097E
:1021B000F9BF9387818E9C4383C74700898BBDD726
:1021C0009305000A0D45EF4070449305000A114540
:1021D000EF40D04381450545EF405043930500054E
:1021E0001D45EF40B042930500052145EF401042E8
:1021F0001306E10085451305503023078100EF8069
:10220000B12B2DB7011117050000130565E106CEAE
:1022100022CCEF30400E1384118E85471306F10057
:1022200085452300A40013054041A307F100EF708A
:10223000F1247D55EF60D0127D55EF80B0583933D1
:10224000153CE52317050000130545D5913C1705FE
:102250000000130585D10125034504008545EF20C5
:10226000D03CF24062440561828023A2B18E23A457
:10227000A18E828023A6B18E2380A18E8280938737
:10228000C18D9843797122D406D626D24AD04ECE3B
:1022900052CC91474144631FF70083C7A18D41444D
:1022A00091CB9387C18E804303C7B18283C7018ED0
:1022B00099EB55442285B250225492540259F24966
:1022C000624A4561828003484400631AA8000348BB
:1022D00054006316B800034864006307E800FD1764
:1022E00093F7F70F2104E9B7035524009305610024
:1022F0003689B284EF7080674DDD4C4503D5818D02
:10230000EF706002058955D59399040193D90901AD
:10231000014781464E86ED4503D5818D035A040061
:10232000EF60B03A2AC64D4451D52686CA8523149B
:1023300041012315310197200020E780C0BA0146F2
:102340002C0003D5818DEF70F0592A8425D5ED45F9
:102350002800EF60704FB9BF011185471306F100E7
:1023600085451305503006CEA307F100EF80D11448
:10237000F240056182809387C18D9843011106CE9A
:1023800091476316F70003D5818DEF8071391306ED
:10239000F100854513055030A3070100EF80D111EE
:1023A000F24005618280C841011122CC06CE328400
:1023B00003461500034505002206498E19CB0D681A
:1023C0001308B8A42D4563090607F240624405616D
:1023D00082800D651308D5A463000603130825A2A7
:1023E000630C060175781308E85C329842081358AC
:1023F0000801854863EE080303D5A50036C632C43C
:10240000A536B24615C19387418E9C43224683452B
:10241000550003A30700A2876244F240034545002C
:10242000368785460561028323900600014571BF0A
:102430001308B5A46317060303D641831D45E3764D
:10244000C7F8198E63D3C7003E86CC452390C600DB
:1024500042064182BA95228597200020E780A0A8F5
:10246000F1B79307A5A46318F60091472390F600EF
:102470001146CC45CDB7930785906317F600894781
:102480002390F6000946F5B79307E5A4631AF60012
:10249000DC452390160183C707002300F40079B7B9
:1024A00013057590E314A6F8D9BF011122CC06CE0E
:1024B00026CA4AC82317D1002D4429EBDC412E89B6
:1024C000B28403C4170083C7070022045D8C8D67A4
:1024D0009386D7A46306D400938627A3631FD402F0
:1024E0000355A900513419E101440DA09387418E91
:1024F0009C43834555000345450003A807002286F9
:10250000A6871307E100814602982A842285F240BB
:102510006244D2444249056182809386C7A4631411
:10252000D4028357E10005473544E391E7FE0345B4
:10253000060013040008E3EBA7FC9387418E9C433D
:10254000DC43829755B793862790631AD40283564B
:10255000E1008547EF6070622A844DF99387C18E50
:102560008356A9009C4303C7018E3DDF03D6270095
:102570006302D6047D171377F70FA107FDB7938782
:10258000E7A4E313F4F68357E10005473544E39FDE
:10259000E7F60345060013040008E3E9A7F6DC4567
:1025A0002380A7009387418E9C433335A000090503
:1025B000DC4341BF1387418E184303C5470083C5E1
:1025C000570083C714000328070003C70400A207AD
:1025D0008946D98FC207C18705476383E7008D46C7
:1025E0000D66A6871307E10013062690029839BFEF
:1025F000411122C441641305F4FF938541B706C617
:1026000026C24AC0EF80301F1305F4FF938541B501
:10261000EF80701E1305F4FF938541B697240020C8
:1026200093840455EF80301D9726002093864672D0
:102630004146F9452685EF805010CC4C2A89094542
:10264000EFF00FEA138741848346070093870184E4
:102650000347170003C61700138441B883C507005A
:10266000A306E40083D7A40CA30EE40003D7A416AA
:10267000A302C400A30AC40003D6A4132310F400C9
:10268000231CE40083D7A40D1387818303D5A410F2
:102690002318C4000357070003D6A4142311F40021
:1026A00085472303F4002306D4002307F4002319ED
:1026B000C400230ED4002302B4002314A400230A70
:1026C000B40023150400230B0400231D0400230F72
:1026D00004002312E40203D7A418938541BB23030B
:1026E000F4022310E40203D7A4192307F4022315EC
:1026F00004022311E4021387C183035707000D4529
:102700002316E40203D7A41C2314E402EFF04FDDE8
:10271000A28521458536B24022444A859244024929
:10272000410182808D67138527A36301A6049387E7
:10273000D7A40145631EF6008947639CF5008547D1
:1027400035456397F60083470700A38BF18E01455B
:1027500082808D472945E39DF5FE85473545E39900
:10276000F6FE83470700A38AF18ED5B78547354526
:10277000E390F6FE83470700A389F18EC9BF8D67FA
:10278000138527A36308A6029387D7A46317F602CD
:102790008947639BF50083C7718F2300F700854746
:1027A0002390F600014582808D476398F50083C72A
:1027B000518FE5B783C7318FCDB723900600DDB7C2
:1027C0000145828025E303A84500AE8883471800B1
:1027D00003480800A207B3E707010D68930EF8A4A9
:1027E000639AD70391473548639FF60203A5C80053
:1027F0004111B285114606C697100020E780A06EF1
:10280000938741909C4305458297B2400148428599
:1028100041018280930828902948639617018547D3
:102820006F60B0352D4842858280416541119385A6
:1028300041BC7D1506C6EF80007CB2409726002083
:102840009386C65741469945172500201305055123
:1028500041016F80806E23A2A19082800111938537
:1028600041BC22CC06CE2A84EF60F02B058929C119
:10287000014781460546ED452285EF6000652AC681
:1028800005C9972700209387674D83D7A705014681
:102890002C002314F10085472315F10023000500C7
:1028A0002285EF70300409C5ED452800EF60C0793E
:1028B000F24062440561828041677917630CE5024A
:1028C000411122C406C685472A84639AF5002285F1
:1028D0002244B240938541BC41016F80C071894759
:1028E0006396F5008545EFA0101B75D1B2402244D8
:1028F000410182808280411106C6EFE01F9ABD47E8
:1029000063F4A700EFE07F99EFE07FC1BD4763F478
:10291000A700EFE0DFC0B24083D5A18A03D5818A4A
:1029200041016F20100B411193962500AA852D457A
:1029300006C697100020E7802026B24001454101DD
:102940008280411126C29394250022C44AC02A8461
:102950003289A686AA850146254506C6971000201D
:10296000E7808023A6864A86A28529459710002005
:10297000E7808022B240224492440249014541014D
:102980008280011122CC06CE3714004026CA4AC8E4
:102990004EC652C483447405034AB4058349840572
:1029A00003499405EFE0FF8C8347A40593F4F40FEB
:1029B000137AFA0F93E71700230DF40493F9F90F34
:1029C0001379F90FB717004003C7A705058B6DFFF3
:1029D00003D5C705A38D4705238C3705A38C270591
:1029E000A38B9704F2406244D2444249B249224A3E
:1029F0000561828041119397050122C406C6C187F3
:102A00002E8463DD0700EF20800319C1EF10907C56
:102A10002165218DB24022444101828093F7150047
:102A200013C51500E5FB9397250163D00702EF302E
:102A30002173D13537F60200130606E0896503C518
:102A40008190EF20E0500965E9B7939715010145A2
:102A5000E3D207FC13060064916503C58190EF2063
:102A6000204F11657DB71D71494697B501009385CB
:102A7000A52417B501001305254E86CEEF2000359D
:102A800011E101A037F700E0F9575CC7FD571CCBF7
:102A90008566B7E700E023A0D7101306701010C3B7
:102AA000B8434146B0C323A0D718B8C30100010002
:102AB0001306C00381454808EF20202B97370020DC
:102AC0009387079B3ECA896793870780231CF10081
:102AD000ED47A301F1028567938707452312F102B1
:102AE000D1472303F102A167938707E03ECE970702
:102AF0000000938787E3BEC4970700009387A7E48D
:102B0000BEC685472304F102B5472308F10297F7B3
:102B1000FFFF9387E7EC3EDAB7F507009707000061
:102B2000938767E63EDE8146970700009387E7DCE0
:102B30007000E1051945BEC097100020E780C00570
:102B400058088147994670003E960346060085075F
:102B50000507A30AC700E398D7FED24791C70357DA
:102B6000810185676373F70001A04808EF20207C8E
:102B700011C101A0F64025618280411117050000B6
:102B8000130585E706C622C4EF20E0761384819002
:102B90002300A4002928034504002244B24037F64C
:102BA0000200130606E0896541016F20603A411179
:102BB00006C622C493067005371400402300D404CF
:102BC000130780FA2300E4048347F40293F7A70F66
:102BD000A307F4022300D4042300E4048347F4028F
:102BE00093E72700A307F40239331305407E23003F
:102BF000040481470147814605468545EFE01FB63D
:102C00002244B240014541016F20301F411113059C
:102C1000800406C697100020E78020CF2945971032
:102C20000020E78080E6EF10104B353DB9376D246A
:102C3000EF804131EFF00FDD9122EF10F0418D4533
:102C40004145EFE05FCF8D4513050008EFE0BFCEB3
:102C50008D450565EFE0DFC3B717004003A7870C7C
:102C600085661367070123A4E70C03A7870C136786
:102C7000070823A4E70C03A7870A558F23A4E70AB4
:102C8000EF10102097100020E78000E482800111EF
:102C900006CE85476308F5009147630FF500F240C3
:102CA000056182802C0013054030EF7031732C00D9
:102CB0000545EF504069E5B783D7A5000D661306BB
:102CC0000620914503C5A185239CF184EF2040286F
:102CD000F9B7B688AA8EBA862E83328E3E87639560
:102CE00008020D661306D6A483C606006319CE003B
:102CF00089476396F50085473548639CF6007286E0
:102D00009A8576856FF01FA2854701486393F80086
:102D1000BDB44285828041119397050122C406C645
:102D2000C1872E8463DF070003C5A185EF103051F2
:102D300019C1EF10304A2165218DB2402244410172
:102D4000828093F7150013C51500E5FB93F7450046
:102D500099CF83C7A1851307401F81462146A1450E
:102D600003D58185EF70D14113454400F9B793F73E
:102D700025000145F9D313C52500C1B70111170579
:102D80000000130585F906CE22CC26CAEF20A056F6
:102D90009384A185894705442380A4001306B100CC
:102DA0008545130550302316F100A3058100EF700F
:102DB000B170138681849D4513056030EF70D16F2B
:102DC0001726002013064601FD4513057030EF70ED
:102DD000B16E7000894513051031EF70F16D700010
:102DE000894513052031EF70316D17B601001306C8
:102DF000E6EDDD450145EF50D0488D477000914527
:102E0000130570402305F10023048100A305810010
:102E100002C6A3040100EF6071663000854513050A
:102E20000040EF60B1651306910085451305104021
:102E3000EF60D1641306A100854513052040EF60C3
:102E4000F1631306B100854513055040EF6011632F
:102E500099477000854505452306F100EFE0BFE482
:102E6000EFF00FF997250020938505F6138501856E
:102E7000EFF0AFBF03C504008545EF10107BF240B3
:102E80006244D2440561828083C70191850793F72C
:102E9000F70F41112388F19006C6858B8DE3938649
:102EA000C197214685450545EFF06FBD9386819713
:102EB000114685450945B24041016FF04FBC9386EC
:102EC0008197114685450945EFF06FBB9386C19701
:102ED000214685450545C5B797470020938747D9C3
:102EE00023A6F18A97470020938787E423A8F18AD5
:102EF000974700209387C7EB411123AAF18A974790
:102F000000209387E7F206C623ACF18AEFE0BFAD5D
:102F1000B240B7E700E03707400023A0E7104101C7
:102F2000828081471386018B13F7F70F6364A70034
:102F30006FE05FB318423E9783460700850793C64C
:102F4000F6FF2300D704CDB781471386418B13F7D3
:102F5000F70F6364A7006FE05FB218423E978346A5
:102F60000700850793C6F6FF2300D704CDB74111AC
:102F700022C41384C18A1C4006C626C283C6070425
:102F8000130770076391E60493060010014681451C
:102F9000254583C4170497100020E780E0BF104048
:102FA000A686814513062604294597100020E78050
:102FB000A0BE9387818B9C43130720040545238083
:102FC000E704EFE0FFAC1C401307200783C60704AB
:102FD0006393E60283C417049387818B9043A6868C
:102FE0008145130606042D4597100020E780C0BADE
:102FF0002685EFE0FFA91C4003C70704930750078D
:103000006317F7029387818B88432D46972500200D
:103010009385C5F71305050497100020E780A0EC01
:103020002244B24092442D4541016FE07FA6B24058
:103030002244924441018280B787004003C7670061
:103040001377F70F93762700638F0670011106CE72
:1030500022CC26CA4AC84EC603C77700930600038F
:1030600013770703630BD70203C7770091461377E3
:10307000F7036306D72263EAE60885466304D71898
:10308000630D071E8946630FD7188D46630BD71C47
:10309000B787004009472383E7003787004083470D
:1030A0007700E207E18763D40736930720FC23010A
:1030B000F7029386C18A88420347750083476500FB
:1030C00022075D8F239BE19083471500A38AF1902F
:1030D0008344050013F60406630C062413F7040466
:1030E0006317071E13F704026303071EF91793F70C
:1030F000F70F25476362F73017B70100130787BE44
:103100008A07BA979C43BA97828793062002630B7B
:10311000D71263E9E60293060002630CD704930614
:103120001002E317D7F603C7670213470704238388
:10313000E70203C767021377C70F136727002383CC
:10314000E702B9B793063002630CD7129306400228
:10315000E310D7F403C72703134707042389E702C3
:1031600003C727031377C70F136727002389E702D5
:1031700005B703C751919546630BD7069947630A74
:10318000F7008D47E306F7F0B7870040238007027A
:1031900085A89387619103D4070013070004BE84B8
:1031A00063748700130400049387C18A1389C19153
:1031B000884342048325090041802286EFA0B11292
:1031C00083D704009379F40F818F239BF190832799
:1031D00009003E9423AE8190B787004023803703D7
:1031E00003C72702134707042381E70255B503C726
:1031F000370083C6619113770708558FA381E700D5
:103200000947DDB703C7770013770704E30207E830
:1032100003C76702134707082383E70203C5870034
:103220000933BDB503C7770013770704E30207E648
:1032300003C7A702134707082385E70203C58700D2
:103240002133B9B503C7A702134707042385E70253
:1032500003C7A7021377C70F136727002385E70269
:1032600005BD03C7770013770704E30307E203C72D
:10327000E702134707082387E70283C7870009BDD2
:1032800003C7E702134707042387E70203C7E702E0
:103290001377C70F136727002387E702D5BB03C740
:1032A000770013770704E30507DE03C727031347F7
:1032B00007082389E70203C587005539D1BB974723
:1032C00000209387E79A83C737002389F190E204AF
:1032D000E184814663D2040283D76191930600049E
:1032E0003E8763F4F6001307000442074183998F79
:1032F0009376F70F239BF190B78700402380D70286
:10330000130700FCF5A8974700209387679683C7AB
:103310002700238AF19065BF9387219183C7070017
:10332000174700202306F7945DB793874191FDB7B7
:103330002D466363F60C17B601001306269D8A0717
:10334000B2979C43B2978287834735008346250016
:103350000D46A207D58F93D68700638FC610636C86
:10336000D6008547638EF60289476389F60A1304FF
:10337000F00F814735A893071002638DF60A930773
:103380002002E396F6FE83474500E9EB97B701007C
:103390009387C79A23AEF19001449307F00F09A8D1
:1033A00097B701009387079F23AEF1900144C94767
:1033B000C207C18363F4E700239BF1909387619177
:1033C00003D607009307000463F4C7001306000444
:1033D0009389C1911319060183A5090013590901A5
:1033E0004A86EFA0417003A609004A9623AEC19019
:1033F0009307F00FE31DF4ECB78700401307F0FCD0
:103400002381E702B787004009472383E700F240A2
:103410006244D2444249B249056182809727002024
:103420009387879D23AEF19001449727002083C79F
:10343000C79CBDBF8347450089CB8546E399D7F23A
:10344000972700209387F79D29A09727002093872F
:10345000C79B23AEF1900144A54799BF854663976A
:10346000D70097B70100938767912DB70946E39579
:10347000C7F2A389D1900DB793F7F70F8546638004
:10348000D7029DC78946E394D7EE97B7010093878B
:10349000E79223AEF19001449307A00211BF97B7C2
:1034A00001009387679023AEF1900144D14709B79B
:1034B00097B70100938707EC23AEF1900144914741
:1034C000C5BD83472500239BF19011B583C711919A
:1034D0002300F50003D761918547E3FAE7DE8547CE
:1034E000DDB783472500A388F190D5B313F7F40126
:1034F00089476310F70A834745008D466382D706E4
:1035000063EEF6008546638FD706E397E7EE3787CD
:1035100000408347A70293F7370795A013072008B9
:103520006387E704130730086381E7021307100875
:10353000E394E7EC378700408347670293F7C70BB4
:1035400093E727002303F70259B3378700408347E7
:10355000E70293F7C70B93E727002307F70285BB22
:10356000378700408347E70293F73707FDB7378770
:1035700000408347A70293F7C70B93E72700230573
:10358000F702B1B3378700408347670293F73707E5
:1035900055BFE31307E68347350003472500A2071D
:1035A000D98F0547E395E7D283C7819193F7E70F5A
:1035B000238CF19029BB13F7F40189476314F70AB0
:1035C0008347550083464500A207D58F8D4663800B
:1035D000D70663E0F6028546638DD706E39EE7E0F3
:1035E000378700408347A70293F7370793E7C70061
:1035F00079B7130720086385E70413073008638F42
:10360000E70013071008E399E7DE37870040834798
:10361000670293F7C70B93E737002DB73787004052
:103620008347E70293F7C70B93E737003DB7378728
:1036300000408347E70293F7370793E7C70031BF9E
:10364000378700408347A70293F7C70B93E73700FC
:103650003DB7378700408347670293F7370793E703
:10366000C700CDB5E31A07D88347350003472500C7
:10367000A207D98F0547E39CE7C483C7819193E7ED
:1036800017003DB723000500B1B593F5F401894754
:10369000639FF50A230005009842834757000346BD
:1036A0004700A207D18F0D46638BC7046361F60202
:1036B00005466384C7086386B7069C42A38007005B
:1036C00003D761918547E3F4E7C08947EDBB9305D4
:1036D00020086383B70493053008638BB700930514
:1036E0001008E39CB7FCB787004083C7670229A096
:1036F000B787004083C7E70293F7370401A8B7876D
:10370000004083C7E702314693F7C708E397C7FA3B
:1037100085472300F70055B7B787004083C7A70246
:10372000E1BFB787004083C7A702B14593F7C70839
:10373000E395B7F82300C70049B737860040034632
:103740006602B1451376C608E319B6F6D9B7B5F5E2
:103750002300050003C7819119C398425DBF9C42B5
:103760002380070099BF9376170085C20947A3817C
:1037700007002381E7022383E7022385E7022387EB
:10378000E70205472383E700828093764700FDDA4E
:1037900003C757001147FDB7B717004003A7470CF1
:1037A0009717002083C7077F9316070163C406108D
:1037B000A388019603C79196631AF70E03C7019673
:1037C000136747002380E196A384019637170040D2
:1037D0000327470C9316170163C50610238501962E
:1037E00003C72196631BF70E03C701961367870073
:1037F0002380E19623810196371700400327470C69
:103800009316270163C606102388019603C7819685
:10381000631CF70E03C70196136707012380E19627
:1038200023840196371700400327470A13770710B0
:1038300063170710A385019603C73196631DF70E22
:1038400003C70196136717002380E196A3810196B1
:10385000371700400327470C9316370163C806103B
:103860002386019603C74196631EF70E03C7019690
:10387000136727002380E1962382019637170040C3
:103880000327470A9316070163C906102387019689
:1038900003C76196631FF70E83C7019693E707027C
:1038A0002380F19623830196014582800507A38436
:1038B000E19629BFA384019603C71197631BF70004
:1038C00003C701961377B70F2380E196A38801966B
:1038D000F5BD0507A388E196D5BD05072381E196CF
:1038E00021BF2381019603C7A196631BF70003C77D
:1038F00001961377770F2380E19623850196EDBD1E
:1039000005072385E196CDBD05072384E19619BF00
:103910002384019603C70197631BF70003C7019631
:103920001377F70E2380E19623880196E5BD0507FE
:103930002388E196C5BD0507A381E19611BFA38148
:10394000019603C7B196631BF70003C7019613776F
:10395000E70F2380E196A3850196DDBD0507A385CA
:10396000E196FDB505072382E19609BF2382019602
:1039700003C7C196631BF70003C701961377D70FE0
:103980002380E19623860196D5BD05072386E1961F
:10399000F5B505072383E19601BF2383019603C78D
:1039A000E196631BF70083C7019693F7F70D238019
:1039B000F19623870196CDBD05072387E196EDB5E6
:1039C000B717004083A7470A171700200347875CF3
:1039D0009396170163CC0604A386019683C751967C
:1039E0006392E70483C7019693E707042380F19667
:1039F000A3820196B717004083A7470A9396270131
:103A000063CD0604A387019683C771966393E70489
:103A100083C7019693E707F82380F196A383019665
:103A2000014582808507A382F196E9B7A3820196BA
:103A300083C7D196639BE70083C7019693F7F70B83
:103A40002380F196A386019675B78507A386F19624
:103A500055B78507A383F196E1B7A383019683C782
:103A6000F196639BE70083C7019693F7F7072380DE
:103A7000F196A38701966DB78507A387F1964DB799
:103A800003C7019683C711961376470093F6470044
:103A90005DC291E683C691958506A38CD194137679
:103AA000870093F6870059CE91E683C6119285066A
:103AB000A380D1921376070193F6070159CA91E6C4
:103AC00083C611958506A388D1941376170093F6C3
:103AD000170059C691E683C691928506A384D192B8
:103AE0001376270093F6270059C291E683C61193F7
:103AF0008506A388D1921376070293F607023DCE7E
:103B000091E683C691938506A38CD1921316870103
:103B1000937607046186638C060A93F50704D1E95E
:103B2000634B060883C711948507A380F194A38093
:103B3000E19601458280A5D683C681958506238CB2
:103B4000D194B1BFA5DA83C6019285062380D192B4
:103B500095B7A5DE83C6019585062388D194B5B7B0
:103B6000C1D283C6819285062384D19295BFC1D6E6
:103B700083C6019385062388D192B5BFC1DA83C677
:103B800081938506238CD19251B7D5D2B98F93F604
:103B9000070491C683C6019485062380D194E20769
:103BA000E187E3D607F883C7819485072384F194DE
:103BB000BDBFE35E06F6139687016186E34706FC08
:103BC000F1F683C791948507A384F1948DB7E35FE1
:103BD00006FAD5B783C7018699E79387419798433B
:103BE0008947E30DF7281717002003477739971700
:103BF000002083C7E73822075D8F9717002083C70F
:103C00004738C20741115D8F9717002083C7773768
:103C100022C4E2071384C195D98F184026C206C674
:103C20004AC0971400209384E4336367F70089C780
:103C3000A6850565EF00505003C6919529CA1387E4
:103C4000C1978547A545B38697000345070083C6FE
:103C5000060085070507C98EA30FD7FEE395B7FEBB
:103C600093878197171700201307C72F9385C19754
:103C700083C607000345970085070507C98EA38FF4
:103C8000D7FEE397B7FE1C40850723AEF194971744
:103C9000002083C7B72E6363F60095E397170020D3
:103CA00083C7E72D03C781956363F70089EB18404D
:103CB0009717002083C7B72C6368F706B5C7171797
:103CC00000201307272A9387C19793854198BA86C6
:103CD00003C6070003C5D60085078506698EA38F36
:103CE000C7FEE397B7FE938781971386C19783C674
:103CF00007008345570185070507ED8EA38FD7FE83
:103D0000E397C7FEA38C0194238C019423AE019406
:103D10009717002083C7472781CB971500209385ED
:103D200065240565EF001048171700200347D713D7
:103D30009717002083C7471322075D8F971700202E
:103D400083C7A712C2075D8F9717002083C7F7119B
:103D5000E20713844192D98F18409714002093846E
:103D6000E40E6367F70089C7A6850965EF00D03CBC
:103D700003C6119229CA1387C1978547A545B38603
:103D800097000345070083C6060085070507C98E0F
:103D9000A30FD7FEE395B7FE9387819717170020EF
:103DA0001307C70A9385C19783C607000345970089
:103DB00085070507C98EA38FD7FEE397B7FE1C4082
:103DC000850723A2F1929717002083C7B709636381
:103DD000F60095E39717002083C7E70803C7019211
:103DE0006363F70089EB18409717002083C7B70774
:103DF0006368F706B5C717170020130727059387D1
:103E0000C19793854198BA8603C6070003C5D600BB
:103E100085078506698EA38FC7FEE397B7FE938754
:103E200081971386C19783C607008345570185078D
:103E30000507ED8EA38FD7FEE397C7FEA3800192FF
:103E40002380019223A201929717002083C7470283
:103E500081CB97150020938565FF0965EF009034AD
:103E6000171700200347570F9717002083C7C70E67
:103E700022075D8F9717002083C7270EC2075D8F2B
:103E80009717002083C7770DE20713844195D98FD8
:103E90001840971400209384640A6367F70089C769
:103EA000A6850D65EF00502903C6119529CA138711
:103EB000C1978547A545B38697000345070083C68C
:103EC000060085070507C98EA30FD7FEE395B7FE49
:103ED0009387819717170020130747069385C1978B
:103EE00083C607000345970085070507C98EA38F82
:103EF000D7FEE397B7FE1C40850723AAF1949717D6
:103F0000002083C737056363F60095E39717002009
:103F100083C7670403C701956363F70089EB184003
:103F20009717002083C737036368F706B5C71717CD
:103F300000201307A7009387C19793854198BA86FD
:103F400003C6070003C5D60085078506698EA38FC3
:103F5000C7FEE397B7FE938781971386C19783C601
:103F600007008345570185070507ED8EA38FD7FE10
:103F7000E397C7FEA38801942388019423AA0194A0
:103F80009717002083C7C7FD81CB97150020938525
:103F9000E5FA0D65EF00102117170020034757EFD2
:103FA0009717002083C7C7EE22075D8F9717002061
:103FB00083C727EEC2075D8F9717002083C777ED71
:103FC000E2071384C192D98F18409714002093847C
:103FD00064EA6367F70089C7A6851165EF00D0150D
:103FE00003C6919229CA1387C1978547A545B38611
:103FF00097000345070083C6060085070507C98E9D
:10400000A30FD7FEE395B7FE93878197171700207C
:10401000130747E69385C19783C6070003459700BA
:1040200085070507C98EA38FD7FEE397B7FE1C400F
:10403000850723A6F1929717002083C737E56363AE
:10404000F60095E39717002083C767E403C78192C2
:104050006363F70089EB18409717002083C737E3A5
:104060006368F706B5C7171700201307A7E0938703
:10407000C19793854198BA8603C6070003C5D60049
:1040800085078506698EA38FC7FEE397B7FE9387E2
:1040900081971386C19783C607008345570185071B
:1040A0000507ED8EA38FD7FEE397C7FEA384019289
:1040B0002384019223A601929717002083C7C7DDAE
:1040C00081CB971500209385E5DA1165EF00900DFF
:1040D00017170020034757DE9717002083C7C7DD57
:1040E00022075D8F9717002083C727DDC2075D8FEA
:1040F0009717002083C777DCE20713844193D98F99
:10410000184097140020938464D96367F70089C727
:10411000A6851565EF00500203C6119329CA1387BF
:10412000C1978547A545B38697000345070083C619
:10413000060085070507C98EA30FD7FEE395B7FED6
:104140009387819717170020130747D59385C19749
:1041500083C607000345970085070507C98EA38F0F
:10416000D7FEE397B7FE1C40850723AAF192971765
:10417000002083C737D46363F60095E397170020C8
:1041800083C767D303C701936363F70089EB1840C4
:104190009717002083C737D26368F706B5C717178C
:1041A00000201307A7CF9387C19793854198BA86BC
:1041B00003C6070003C5D60085078506698EA38F51
:1041C000C7FEE397B7FE938781971386C19783C68F
:1041D00007008345570185070507ED8EA38FD7FE9E
:1041E000E397C7FEA38801922388019223AA019234
:1041F0009717002083C7C7CC81CB971500209385E4
:10420000E5C91565EF00007A17170020034757CD61
:104210009717002083C7C7CC22075D8F9717002010
:1042200083C727CCC2075D8F9717002083C777CB42
:10423000E2071384C193D98F184097140020938408
:1042400064C86368F70091C7A68513050050EF00A6
:10425000A06E03C6919329CA1387C1978547A545C8
:10426000B38697000345070083C606008507050748
:10427000C98EA30FD7FEE395B7FE938781971717D3
:104280000020130727C49385C19783C60700034501
:10429000970085070507C98EA38FD7FEE397F5FE24
:1042A0001C40850723AEF1929717002083C717C3E0
:1042B0006363F60095E39717002083C747C203C7DF
:1042C00081936363F70089EB18409717002083C739
:1042D00017C16369F706BDC717170020130787BE0C
:1042E0009387C19793854198BA8603C6070003C593
:1042F000D60085078506698EA38FC7FEE397F5FE76
:10430000938781971386C19783C60700834557011A
:1043100085070507ED8EA38FD7FEE397C7FEA38C15
:104320000192238C019223AE01929717002083C73C
:10433000A7BB89CB971500209385C5B813050050FE
:10434000EF00406617170020034717BC971700209F
:1043500083C787BB22075D8F9717002083C7E7BA03
:10436000C2075D8F9717002083C737BAE20713840F
:104370004194D98F184097140020938424B7636622
:10438000F70081C7A6851965452B03C7119411CB8A
:1043900083C7219785072389F1961C40850723A2AF
:1043A000F1949717002083C7F7B56363F70095E38F
:1043B0009717002083C727B503C701946363F700ED
:1043C00089EB18409717002083C7F7B3636DF70692
:1043D000BDCB83C7219781C7FD172389F196171796
:1043E00000201307A7B09387C19793854198BA8699
:1043F00003C6070003C5D60085078506698EA38F0F
:10440000C7FEE397F5FE938781971386C19783C60E
:1044100007008345570185070507ED8EA38FD7FE5B
:10442000E317F6FEA38001942380019423A2019454
:104430009717002083C7C7AD99C7971500209385AC
:10444000E5AA1965852317170020034777AE97174C
:10445000002083C7E7AD22075D8F9717002083C731
:1044600047ADC2075D8F9717002083C797ACE2075F
:104470001384C194D98F184017190020130989A9F2
:104480006366F70081C7CA851D657D2103C79194C6
:1044900001CF9387319783C707008507A389F196DA
:1044A0001C40850723A6F1949717002083C717A8FF
:1044B0006363F70095E39717002083C747A703C7F7
:1044C00081946363F70089EB18409717002083C736
:1044D00017A6636DF706BDCB83C7319781C7FD175C
:1044E000A389F196171700201307C7A29387C197D6
:1044F00093854198BA8603C6070003C5D600850791
:104500008506698EA38FC7FEE397F5FE9387819793
:104510001386C19783C607008345570185070507A2
:10452000ED8EA38FD7FEE317F6FEA38401942384B8
:10453000019423A601949717002083C7E79F99C78A
:10454000971500209385059D1D65A92903C721970F
:1045500083C7319763FDE706A389019683C7F18579
:104560006387070C83C72197A5CBFD172389F19695
:104570001387C19785472546B38697008345070073
:1045800083C6060085070507CD8EA30FD7FEE395EA
:10459000C7FE938781971717002013072795138667
:1045A000C19783C607008345970085070507CD8E11
:1045B000A38FD7FEE317F6FEA38F0184B2402244F7
:1045C0002380018692440249014541018280E377BC
:1045D000F7F82389019659B783C73197E5D3FD17BB
:1045E000A389F1961387C19785472546B38627018E
:1045F0008345070083C6060085070507CD8EA30FF8
:10460000D7FEE395C7FE93878197171700201307FE
:1046100067901386C19783C6070083459700850777
:104620000507CD8EA38FD7FEE317F6FE71B71717D8
:1046300000201307278E9387C19793854198BA86E8
:1046400003C6070003C5D60085078506698EA38FBC
:10465000C7FEE397F5FE938781971386C19783C6BC
:1046600007008345570185070507ED8EA38FD7FE09
:10467000E317F6FE8547A38FF18489B70145828051
:104680003965011185451305051006CE22CC26CAD1
:104690004AC84EC6EFD0CF9F85453D65EFD0AFA944
:1046A00017F5FFFF1305850FEF00F0449389C185CF
:1046B0002380A90017F5FFFF1305C530EF00B043B5
:1046C0001389B1852300A90017F5FFFF1305853B6A
:1046D000EF0070429384D1852380A40017F5FFFF7B
:1046E0001305854FEF0030411384E1852300A400BA
:1046F00003C5090011468545EF005019034509001F
:1047000011468545EF00901803C5040021468545F4
:10471000EF00D017034504006244F240D2444249FE
:10472000B2492146854505616F00501693970501F2
:10473000C18763D5070021652D8D8280858901455C
:10474000B5CD938741979C43411106C60547638ABF
:10475000E70009476382E7041716002003465683E3
:1047600091A09387018B884321469385C1971305B8
:104770000504EF9041379387418B88431146938519
:10478000819713050504EF9001362145EFD08FADD9
:104790001145EFD08FAEC9B7EFE00FEF170600203D
:1047A0000346267F854503C52186EF00607AB24027
:1047B00085472380F186014541018280828093975D
:1047C0000501C18763D5070021652D8D828085890C
:1047D0000145D1C1B717004083A7470A411106C65A
:1047E00093F70720B337F000850723AAF1961387C4
:1047F000419818436308F70005476388E7040947B1
:104800006388E704938741979C431706002003467B
:104810000678220623A2F1989707002083C717770E
:104820005D8E9707002083C79776C207D18F170642
:1048300000200346E67562065D8E854503C5118638
:10484000012FB240014541018280EFD0DFB25DBF50
:10485000EFD09FB045BF82804111854513050020F0
:1048600006C622C426C24AC0EFD08F8217050000B8
:10487000130525F5EF003028138911862300A900C0
:10488000170500001305C5EAEF00F0261704002005
:104890001304C46F034624008347140093842186C5
:1048A00022065D8E834734002380A400034509005F
:1048B000C207D18F03464400854562065D8E492DAF
:1048C00003465400224403C50400B2409244024906
:1048D00085454101B5AD01118546700081452D45E5
:1048E00006CE2306010097F0FF1FE780E02A03476A
:1048F000C1009307900E6309F7029306001001466A
:104900008145254597F0FF1FE7800029AD46170632
:1049100000201306A6678145294597F0FF1FE78011
:10492000A027F24005618280AD46170600201306DD
:10493000E66581452D45D5B7011126CA06CE22CCA4
:1049400083C7150203C40502AE84A207C18F03C446
:104950002502854670004204C18F03C43502230638
:10496000010062045D8C930750023304F4022A9420
:10497000A2852D4597F0FF1FE78000220347C10065
:104980009307900E631BF700930650022686A285BC
:104990002D4597F0FF1FE7802020F2406244D2446B
:1049A000056182802E8693065002AA852D4517F355
:1049B000FF1F6700631E23AC05FE1C4191E7010049
:1049C00001000CC18280BA8703A787FF6DFF23AC6B
:1049D000B7FE82801DC18346E5FF1307F00F9147A4
:1049E000639EE600411106C697000020E78000F4B0
:1049F000B24081473E854101828095473E85828055
:104A000001E9014582800145B24022444101828092
:104A1000411122C42A84210542059305D004418115
:104A200006C697000020E780C0E671DDFD57232011
:104A30000500231285002303F5002105F1B7138734
:104A400081981C43411122C426C24AC006C60144B3
:104A50000149BA8489E7A16595250DC401A803C75A
:104A6000E7FF6318A7021DC8A165C12698408327E8
:104A700084FF6317E40223A4F198FD57232C04FE5E
:104A8000230FF4FE2285B2402244924402494101A0
:104A9000828011E03E8983A787FF6DBF3E84E5BF1A
:104AA000232CF9FED9BFA9C9411122C406C62A8404
:104AB0009727002083C797432E856368F400193F2A
:104AC0000D45B24022444101828083A785FF99E7CA
:104AD00003C7E5FF9307F00F6305F700E53D1545B4
:104AE000CDB7238F85FE13858198F1352285224429
:104AF000B240A165410115AE1545828023A40198FD
:104B000082809387019A9C4399E33E85828003D7F4
:104B100027006316B70003C70700E308A7FEDC47BA
:104B2000E5B74111939705014AC006C622C426C2C3
:104B3000C1872E8963DE0700193711C1613D2165E8
:104B40003345A900B2402244924402494101828087
:104B5000AA860145E5D901443D47B3578940858B75
:104B600095CB938741998443BD4791E28147A297B2
:104B70008E070545BE9433158500131405019C402E
:104B8000C8404180829723A0040023A2040033453B
:104B900024014DBF0504E312E4FC0144CDBF972777
:104BA00000209387E7309C53411122C406C613842A
:104BB000418695C7829723A2A1860840B747030084
:104BC0009387D73F3305F502B7A72600938737ECC5
:104BD000B24022443E9523A2A186410182809727BC
:104BE00000209387A73018409C4BBA9723A2F186E8
:104BF000E9B79387C19890439726002083C6162F64
:104C0000814713F7F70F6360D70A17270020034780
:104C10001742914763E0E70A9727002083C7C745FB
:104C2000918BC9EB0111680006CE22CC26CAEFC0D9
:104C3000802DFD56630FD50C32479727002083C780
:104C4000572863F3E70C172700201307272A40474C
:104C500017270020034707276305D406058B21CFBC
:104C600051473304E40263F1870A97F0FF1FE7809E
:104C7000A04CB2476373F400A287172700200347B4
:104C80005724998F3E959727002093876722838723
:104C9000470163CD0702B707C0A86369F502B707EC
:104CA00040573E9525A08507139717003297035765
:104CB000E7FF21DB8280130790023304E4020580C2
:104CC0005DB762076187635707001D8D19E93705D6
:104CD000C0A801A8E37BF5FE3707C0A8B307F740DB
:104CE0003E95972700209387A71CDC53829709EDF8
:104CF00097270020938747339C4F99C7EF10610196
:104D0000EF10E159EF005175F2406244D244056161
:104D10008280972700209387671DDC47E386A7FEE4
:104D2000172700201307C71883464701BA84858ACE
:104D30009DC65144338487029727002083C7771884
:104D4000E3F487FC97F0FF1FE780003F97270020E0
:104D500083C737171D8C2295838744011DBF130419
:104D60009002338487020580C1BF2A9609E58280BC
:104D70000505A30FB5FEE31DC5FED5BF814733076B
:104D8000F5000307070019E33E8582808507C5BF4C
:104D900001112E8626CAAA84131506019305F00474
:104DA000418122CC06CE32C697000020E78060AE5B
:104DB0002A8419C53246A68597F0FF1FE780A01206
:104DC0002285F2406244D2440561828081476314A7
:104DD000F600054582803307F5008507B386F500A8
:104DE0000347070083C6F6FFE383E6FE01458280A2
:104DF0009307F6FFBE952A966313C5008280FD15C2
:104E000083C715000505A30FF5FEFDB7814711E91E
:104E1000014582803307F50003470700E31AB7FE18
:104E20008507E319F6FE054582809727002083C792
:104E3000F70B637FF5001387C1989317150008439C
:104E40003E9583570500DD8D2310B5000145828016
:104E50000D458280FD57011117270020232EF708EA
:104E60009387019A22CC80434EC6972900209389CC
:104E7000290426CA4AC852C456C206CE5AC02A8934
:104E800081444E8A972A0020938A4A061844814713
:104E90006374E900B307274103A749021CC409CB87
:104EA00003A7CA0063F6E700172700202326F704AC
:104EB000A1E7835524009DE95C44A1E823A0F19A71
:104EC000032BC400228597000020E78020A65A8487
:104ED00055FC83274A0285CF6244F240D2444249BE
:104EE000B249224A924A024B056121B303450400AC
:104EF0002D3F5C4081CB1CC483572400D5DFA284A6
:104F00004044F9B71C44CDDBC5BFDCC455BFF240FB
:104F10006244D2444249B249224A924A024B056154
:104F200082809727002083C777FC6371F50213877F
:104F3000C19893171500084393C5F5FF3E95835715
:104F40000500FD8D2310B500014582800D4582804E
:104F50009727002083C797F96364F5000145828095
:104F6000411122C426C24AC006C62A842E89B284B0
:104F7000EFF03FB901C504C505452DA0936504F0C8
:104F8000C205C181414597000020E78080900DE176
:104F9000972700209387C7F19C5B81C7A2851145A5
:104FA00082970145B24022449244024941018280E5
:104FB0009387019A9C438DE323A0A19A85472326DA
:104FC000050004C52311250123008500A300F50079
:104FD0002322050055B7BA87D84775FFC8C7F9BF60
:104FE00045C539715AD0138B419922DC26DA4AD84B
:104FF0004ED652D45ECE66CA6AC86EC606DE56D299
:1050000062CC3689328AAE89AA8401445A8DB94D60
:10501000854BF94C03270B00131C3400937AF40FD3
:1050200062971C43A9EF13B5FA0013451500B39717
:105030008B0063F65D01930714FFB397FB00939514
:105040000701C181528629371DC983270D000145FB
:10505000E29784C323A237016304090023005901A6
:10506000F2506254D2544259B259225A925A025BB7
:10507000F24B624CD24C424DB24D2161828005040C
:10508000E31A94F92145E9BF09458280411122C400
:1050900026C24AC006C6AA842E893284553DCA85D6
:1050A0002685EFF01FA609C940C10145B240224440
:1050B00092440249410182802145CDBF411122C461
:1050C00026C24AC006C6AA842E89EFF09FA32A846E
:1050D00019C1231105009727002083C727E1639496
:1050E0009700239C2199CA852685253D014511E01D
:1050F0001945B240224492440249410182807547D9
:10510000636BA704138741991443411126C293147A
:105110003500A696944222C406C6AA873A84094559
:1051200095C613B5F7003947134515006373F700AB
:10513000C5178545B395F500C205C18141371C40AF
:105140000145A69723A0070023A20700B2402244EE
:1051500092444101828009458280411106C6EFF0E8
:105160005F9A09C50845B240410182800145E5BF0B
:10517000F54763EDA704938741999C4313173500C6
:10518000BA979843894721C7011126CA06CE93349E
:10519000F50022CCB94793C4140063F3A70045156A
:1051A00005443314A400420441802EC62685A285FE
:1051B0006D378947324609C5A2852685513B81470F
:1051C000F2406244D2443E850561828089473E8533
:1051D00082802398A1982399B1988280411106C6B4
:1051E00023AEA1980295B2409727002023AAA7D00A
:1051F000014541018280994763E9B7008A059727F5
:1052000000209387E7D0BE9588C18280411106C6F1
:10521000EF50515A7146814517250020130545CF9F
:10522000EFF0BFB413064002814517250020130597
:10523000E5CBEFF09FB323A0019A23AE0198972707
:10524000002083C7A7C813D527008D8B3E958D47B7
:105250003305F5029305101035051375F50F9727E3
:1052600000202386A7C899473305F5021305050FCB
:1052700097F0FF1FE780E06123AAA19835C99947FD
:10528000172600200346A6C63306F60281451306FC
:10529000060FEFF09FAD938741999C439387070FCB
:1052A00023A2F19A17270020034767C40A07BA9779
:1052B00023A6F198EFF09F8445269387419A98435F
:1052C0009727002083C797C293962700BA961706A0
:1052D00000001306468590C293862700850793F742
:1052E000F70F8A0797250020A382D5C0BA9790C3ED
:1052F000B240410182809727002083C737BF17271C
:1053000000200347C7BE63F1E7021387419A1843A1
:105310009386170017260020A30AD6BC9396270071
:10532000369708C33E8582809307F00FE5BF1C4186
:10533000638E071841777D8FB70600208947631871
:10534000D7180357450063040718411122C41946B2
:105350002A849305F00F590506C6EFF03FAB0547C9
:105360008D476300E5161C4481CB58589947630A62
:105370000714185C630707141306C003814517253B
:1053800000201305E5B2EFF05F9E1306C003A2856F
:10539000172500201305C5B197F0FF1FE780A0B4C3
:1053A0009727002083D787B197260020938646B0A1
:1053B00099E793070010172700202311F7B09727CC
:1053C000002083C7C7AF91E7854717270020230830
:1053D000F7AE9727002083C797AE91E7ED471727D1
:1053E0000020A30EF7AC9727002083C767AD91E795
:1053F0009547172700202305F7AC9727002083C780
:1054000037AC91E7854717270020A30BF7AA97270A
:10541000002083C737AB99E783C706011727002011
:10542000A302F7AA9727002083C7A7A991E7D1472E
:10543000172700202307F7A89727002083C727A94D
:1054400095E7172700200347E7A713168701618612
:105450009307C002634806009377170093B71700BD
:105460009387D702172700202303F7A6972700204A
:1054700083C737A595E7172700200347A7A413166E
:10548000870161869307C00263480600937717007F
:1054900093B717009387D70217270020A303F7A21B
:1054A0008347D40191E7894717270020A300F7A27B
:1054B0009C5691C7829797270020239CA7A2B933B7
:1054C0008147B24022443E854101828089473E8522
:1054D0008280011122CC06CE2A842EC6EFF02FEC5A
:1054E000B245F240818D33A5A50222956244137521
:1054F000F50F05618280011122CC06CE2A842EC6CA
:10550000EFF0EFE9B245F240818D33A5A502229577
:1055100062444205418105618280011122CC06CEA0
:105520002A842EC6EFF0AFE7B245F240818D33B545
:10553000A502229562440561828097270020938707
:105540002797985725C3411122C426C206C6BE8498
:105550000297172700200357C7992A8441C7BA87A3
:105560006373A700AA87C207C183BA866373E40086
:10557000A286C206C182958F51476355F706DC5457
:1055800091C382978547172700202303F7AAEF00CE
:10559000313D97270020239E8794B24022449244B5
:1055A000410182809727002083C787A89DE797271E
:1055B0000020938767A783C79700850793F7F70FA6
:1055C00017270020A306F7A6A18B9DC7854717279D
:1055D0000020231FF7A46F00913E97270020A38986
:1055E00007A4D5BF9727002083C787A4DDD722440F
:1055F000B24092444101C5B782809727002093872B
:10560000278BD857011122CC06CE3E8401C72AC66B
:105610000297324511CD23A4A19A17F5FF1F130558
:1056200025B3EFF0BFBBF2406244014505618280C3
:105630008307440163DD07009727002023A4078C1C
:1056400097F7FF1F938767AB23A4F19AF9B797F7F2
:10565000FF1F938767AECDBF011122CC1724002016
:1056600013040485084406CE26CA4AC801E9054544
:10567000F2406244D2444249056182805C58E5DBD5
:10568000185C75D77000854582971844B247E300CF
:10569000F7FE9305E004172500200355258297F0B7
:1056A000FF1FE780001F17270020232FA78461D149
:1056B00017260020035686809305F00FEFF0EFEADF
:1056C000814417290020130969829717002083C796
:1056D000077F0326C90163C1F402328597F0FF1FDB
:1056E000E780C02401459727002023AF0780972734
:1056F000002023AD0780ADBF9715002083D5057C22
:10570000B38795020844185C898185043E9508C2D8
:10571000029765BF411122C4171400201304447975
:105720001C4426C206C64AC0971400209384047CF9
:1057300091EBC84C35E9B2402244924402490145FC
:10574000410182801C5CF5D7DC4C99EF9305E004A5
:10575000171500200355857697F0FF1FE78060132B
:105760009717002023A2A77AC84C61D517160020EE
:105770000356C6749305F00FEFF02FDF014997171A
:10578000002083C7C773D04CE355F9FA9715002062
:1057900083D5C572338525031C44898105093E954F
:1057A0001C5C08C28297E1BF97F0FF1FE7800018DA
:1057B0009717002023AA07749717002023A80774BF
:1057C0009DBF011156C2971A0020938A6A6E83A763
:1057D0008A0022CC4AC84EC606CE26CA52C45AC037
:1057E000AA892E8432896385072203A74A036307A7
:1057F00007147D476366A714971400209384046FF1
:1058000003AAC40163170A0A9565938515E0171565
:1058100000200355A56A97F0FF1FE78080079717C0
:10582000002023A3A76E2A86630A051083A74A03D4
:1058300003A58A009715002083D545688981829742
:1058400083A78A0003AAC401171700202320F76C3E
:105850008947639CF908C1476312F40E971500202D
:1058600083D5C565938505FC9147B3C5F5028A05C7
:10587000D29503C705009307A005631DF70A83C7E8
:1058800015006399370B4A852286910597E0FF1F23
:10589000E7806065DC4C5285639347150145F24013
:1058A0006244D2444249B249224A924A024B0561BB
:1058B00082809850E38EE7F89565938525E017156B
:1058C00000200355A55F97F0FF1FE78080FC2A8A20
:1058D00035C52A8683A74A0303A58A0097150020A9
:1058E00083D5C55D89818297A5B78D47639DF900F2
:1058F000C1476315F4049715002083D5255C938573
:1059000045FDF199B5B79147639AF90063183403DF
:105910009715002083D5855AA115E5B7C147639F28
:10592000F900A14763EC87009715002083D505593E
:10593000C115C1BFDC4C52856397470D294585B71A
:105940001307F006568B6361A70A130A05FE194771
:10595000334AEA021717002003574756971A0020C8
:10596000938ACA58330AEA023E9A83A70A026395C9
:10597000470183A4CA019DE49305E00417150020A4
:105980000355C55397F0FF1FE780A0F0AA845DD5AB
:1059900083274B039715002083D545522A8689819A
:1059A0005285829791451307A00589819397250019
:1059B000A69783C607006393E60483C61700639C1B
:1059C000360385058A052286A6954A8597E0FF1F3E
:1059D000E780605183A7CA01E38297EC268597F0A0
:1059E000FF1FE780A0F45DBD1307E007E368A7F49D
:1059F000130A05F985B783D5270045BF83A7CA01D8
:105A0000E38E97F2268597F0FF1FE78020F23DB7DF
:105A1000971700209387874DCC4F8DD191479306E0
:105A2000A0058983139727002E9703460700E317E5
:105A3000D6F003461700631C360185078A072286C5
:105A4000BE954A8597E0FF1FE780E04981BD8357F7
:105A50002700C1BF9717002093878745984739C70C
:105A60009C5FA9C705476313E504411122C41714BD
:105A700000201304A447504C06C60DC608509715C5
:105A8000002083D5A54389818297484C97F0FF1F5A
:105A9000E780C0E99717002023A807469717002042
:105AA00023A60746B2402244410182808280011130
:105AB000171700201307C73F4EC68329870022CC43
:105AC00026CA4AC806CE52C456C2AA842E84328937
:105AD000638A09201C5FBA8A99EB2945F240624427
