:040000006F108021DC
:1000040000000000000000006F0080086F00E02284
:1000140000000000000000000000000000000000DC
:1000240000000000000000000000000000000000CC
:100034006F004006000000006F00E00500000000B3
:100044006F0080056F0060056F0040056F0020059C
:100054006F0000056F00E0046F00402700000000FF
:100064006F0060046F0040276F0020046F000004DD
:100074006F00E0236F00C003000000006F00600306
:100084006F0040036F0020036F0000036F00E00265
:1000940001A001A001A001A001A001A001A001A054
:1000A40001A001A001A001A001A001A001A001A044
:1000B40001A001A001A001A001A001A0B717004068
:1000C400130770052380E704130780FA2380E704ED
:1000D4002396A70223800704371700408347270588
:1000E400898BEDDF835707053717004083472705C2
:1000F400898BEDFF3717004083472705898BEDDF98
:10010400035507058280B7170040930670052380C6
:10011400D704130780FA2380E70403C6B7041376D1
:10012400F60DA385C70423800704137605022DC6A4
:1001340003C6A700118A0DE22380D7042380E704B5
:1001440003C7A700136747002385E7009307004B05
:1001540001000100FD17EDFFB7170040930670057D
:100164002380D704130780FA2380E7047D8923942E
:10017400A70001000100010001002380070423807F
:10018400D7042380E7049306100537270040A30310
:10019400D780238007048280137605046DDE03C6AE
:1001A400A700418A0DE22380D7042380E70403C714
:1001B400A700136707012385E7009307007D01006B
:1001C4000100FD17EDFFB71700409306700523806B
:1001D400D704130780FA7D892380E7041365050497
:1001E4002394A700010001000100010023800704FB
:1001F4002380D7042380E704930630053727004083
:1002040079B74111814601468145114506C6C12A87
:10021400B7170040130770052380E704130780FA1B
:100224002380E70403C76704136717002383E704E5
:1002340023800704B2404101828081460146814502
:100244001145712AB7170040930670052380D7041F
:10025400130780FA2380E7047D562396C702238080
:10026400D7042380E70403C76704136717002383B5
:10027400E7042380070401A0BD473305F50201000C
:100284007D1575FD8280411122C426C206C6AA844A
:10029400014463179400B240224492444101828095
:1002A40005041305803E4204C13F4180DDB7B71702
:1002B4000040130700032388E702854723A6F19033
:1002C40073002030411106C64521FDBF97F0FFDFC2
:1002D400E780C06973002030373700408347678068
:1002E400858B81C785472303F780373700408347D1
:1002F4006780A18B8DC7A1472303F78083C77197BC
:1003040099EF13060038971500009385E53E1715FD
:1003140000001305657697B001E0E780E0FA73000A
:1003240020302303048015472303E48001002302C3
:10033400A480828083076480E3CE07FE23030480C5
:10034400828083076480E3CE07FE03454480828075
:1003540083076480E3CE07FE2302A48082804111D8
:1003640026C44AC24EC006C61377F50BAD47AA8908
:100374002E8995446306F70019456537653F8D441A
:100384004E854537FD59FD1463983401B240A244AB
:100394001249824941018280135509011375F50FF1
:1003A400453F2209CDB7011126CC06CEB70408007B
:1003B40051371545BD37713769372AC6A53F3245D0
:1003C4009377150089EB136515001375F50FF2404B
:1003D400E24405618280FD14E9FC0145CDBF397119
:1003E40026DC4ADA4ED852D656D45AD25ED006DE2D
:1003F40062CE66CCB7E700E07D5783AA070022C629
:1004040003AA470023A0E71823A2E718B717004060
:10041400130770052380E704130780FA2380E70499
:1004240083C74704930B75FFB684E20793FBFB0F66
:100434008546AA892E8B328937240040E1870157EB
:1004440063FA76016308D500894613070002631333
:10045400D5000157D98F93F7F70FB71C00402382BB
:10046400FC0411472303E4801305F00F5D3D094CA0
:10047400D13563697C11B70707003E9B37870700B6
:100484007955637EEB02B3079B00636AF702A947C1
:100494006399F90689E48144713D26850DA0DA85C6
:1004A4000945753D05090345F9FFFD14050B4D3557
:1004B40081C49377FB0FFDF7FD3569FD7D55B717B3
:1004C4000040130770052380E704130780FA238094
:1004D400E70403C74704418B2382E704F250B7E7DC
:1004E40000E023A0571123A24711E2543244525989
:1004F400C259325AA25A125B825B724CE24C21619D
:100504008280A5476395F90685691309F00FB30640
:100514009900B3742B01B6941349F9FFB37499008D
:10052400856B33796901416B9387F9FFB3F7270131
:1005340099E363FC340193D94900C147E3E637FFEB
:1005440099BF0569C1697D19D9B71305800D638801
:100554006901130500026384790113051008CA8533
:10056400FD3B913521DD4E99B3843441D9B7DA8509
:100574002D45F533CA94E30099F20509D933A30F45
:10058400A9FED5BF9387F9FF93F7F70F636CFC08B7
:1005940003C75C04B70708001377070219E3B7879A
:1005A40007007955E37DFBF033079B00E3E9E7F0AF
:1005B40089476390F9048980D549E38E04ECDA8590
:1005C4000945713B11090327C9FF91472320E480A2
:1005D40003076480E34E07FE23033481FD17EDFB1C
:1005E400FD14110B81C49377FB0FE9FF6D3B71F58B
:1005F400F1B58547E387F9F4DA852D458D33938981
:10060400F4FFE38A04E8353B93F7390091EB832642
:1006140004800327090093074900E39FE6E63E8927
:10062400CE84F1BFB5476396F9001305900BD53915
:100634009DB5B1471305B00AE38BF9FE9947639E54
:10064400F902DA852D45213B81448D4BA149D539E9
:1006540063967401832704802320F9008504E398BA
:1006640034FF8327048013172B01635507002312DB
:10067400F90015B52322F90039BD9D476399F902A4
:1006840081451305B004E139BD4423200900232228
:100694000900FD597D3193F77400CA9703C7070019
:1006A400FD14398D2380A700E39634FFEDB3A147F1
:1006B4006392F904CD398144630D0B008D47930493
:1006C400C0036308FB009304000563048B019304D7
:1006D40040041375C507E30095DC19459931993930
:1006E400054581312685AD3109459D316D39E314C8
:1006F40005DAE9B391476399F900130560061531EA
:1007040015391305900925B7E38709D8F15469B35E
:1007140009CDB7170040130770052380E7041307BA
:1007240080FA2380E7042396A702828019C18147B7
:1007340099E982803387F500834607003307F50083
:1007440085072300D700E397C7FEE5B719C1FD5716
:1007540081E98280910503A7C5FF1105232EE5FEDB
:100764007D16E319F6FEF5B7797122D4173400002B
:10077400130444741C4006D626D24AD04ECE91C7E8
:1007840082979737000023A707725C4089CB03D573
:10079400419ABD3F5C40829703D5619A953F1C40C6
:1007A400639907189747000083C79782858B95C77D
:1007B40097470000A38E07801747000003477781FF
:1007C400914763FCE7004D2B9747000083C7778070
:1007D400F9178A07A2979C4382979747000083C71B
:1007E400E783918B89C7973001E0E78060E11C447F
:1007F40091C382979387019A984317360000034662
:1008040036693E89973400009384846897370000E2
:1008140083C7076893961700BA9683D60600638049
:1008240006109737000083C7A76663F2C7088607D8
:100834003E97835507002310070003D5419A2EC61F
:100844002396019AF1359387819B9C4317350000C9
:100854000345056413172500BA979C43B245829754
:10086400AA8903D5619A6D359737000083C747621B
:10087400139717008327090003D5C19A1345F5FF81
:10088400BA9703D7070033753501598D2390A70014
:1008940083C70400850793F7F70F17370000230970
:1008A400F75E173700000347B75E63E6E700973744
:1008B4000000238F075C1C40ADEF9387019B984396
:1008C4003E8425CB9737000083C7F77091CB9737C9
:1008D400000083C7177089E7973001E0E780008341
:1008E4001C4082972A8431C59C48AA971737000078
:1008F4002328F75A9387419B9C4385CF03D5419A7C
:10090400013D2285971000E0E78060712254B250C7
:1009140092540259F24903D5619A4561D5BB8507C2
:1009240093F7F70F973600002384F656E3E0C7EEFB
:10093400CDBDB250225492540259F249456182808D
:100944009167B7C600409387373023A6F6200F106F
:100954000000973700009387A753884F938781AA95
:100964009C43316713073730F053B7071000FD1766
:10097400918F99833A0523A6E6205D8D82804111EB
:10098400B7170040985F3AC6945F3247E39CE6FE8F
:10099400324541018280411106C6D53797360000A1
:1009A40083C6864C858AB1C6930730333307F50274
:1009B400B337F5023983CA07D98F173700001307F5
:1009C400274D584B01456303F7023385E740636BBA
:1009D400F70037653D0889C637856F08130505900C
:1009E400198D3E9517370000232EF74AB240410176
:1009F4008280E5473307F502B337F5022583DE0726
:100A040065BF0327C50F8346B5009737000093875A
:100A1400E75B9C4F58439386160295829043FD16DC
:100A240093F6F60F10C3D04350C3904710C7D04776
:100A340050C7904B10CBD04B50CB904F10CFD04FD2
:100A440050CF91C61307070293870702C1BF828064
:100A54008347E50193F7E70FF1E72A870345F5019B
:100A640071E1034607018346870009CA8345A7024B
:100A74009737000083C7573F63E7F50093F70601F4
:100A8400C5C7814709C6C18A8357071581C603575D
:100A94004715BA97D1CB173700001307A75E38471D
:100AA400411122C406C67D548326070863F38600D9
:100AB4003684184375FB173700000347E73A93164B
:100AC4008701E18663D906029387C7139583173795
:100AD40000000347073ABA9763D006041D8C938736
:100AE400C19B9C4382973335A400B24022441345F2
:100AF400150041018280058B9387C71209CB8A07B1
:100B04009387F7031305D007B3D7A702C9B786079E
:100B1400FD071305D003CDBFE372F4FC3705C0A86D
:100B24002A946DBF014582808280411122C41384BE
:100B340081A918404AC006C61C5F26C2138941A970
:100B44009983858BC1C31C5F973400009384044848
:100B540093F7F7F91CDF9737000083C7274793F70C
:100B640007048DC39387C19B9C43829797370000EA
:100B740023A6A74683C7040093F7F70B1737000093
:100B84002306F744854717370000A303F74483C7B8
:100B9400440093F7070481EF938781AA9C43D844C8
:100BA400B8D3930700FC173700002303F742838769
:100BB400640063D90700832709009C4317370000AA
:100BC4002309F74018401C5F8583858BC9CBF557F3
:100BD4001CDF01000100010001000100010001000F
:100BE40001000100010001000100010001000100F9
:100BF40001000100010001000100010001000100E9
:100C040001000100010001000100010001000100D8
:100C140001000100010001000100010001000100C8
:100C240001000100010001000100010001000100B8
:100C340001000100010001000100010001000100A8
:100C44000100010001000100010001000100010098
:100C54000100938781AA9C4313075004B8CB184022
:100C64001C5F9183858B89CFBD571CDF938781AA35
:100C74009C4323A80704854717370000230AF73449
:100C840083270900D8430583058B19C7D843759B6F
:100C9400D8C3D843799BD8C3B24022449244024972
:100CA40041018280397106DE16DC1ADA1ED82AD692
:100CB4002ED432D236D03ACE3ECC42CA46C872C6C0
:100CC40076C47AC27EC09535F250E2525253C25372
:100CD4003255A255125682567247E2475248C248CC
:100CE400324EA24E124F824F2161730020309387FF
:100CF40081AA9443173700001307472DBC5289CFAC
:100D040083472700858B89EB83473700858BFDD785
:100D140097370000238E072A8280938741AA9C4339
:100D240099CB944BD04B9842518F98C294439C4793
:100D34009842D98F9CC2938781AA9C4337C70040AD
:100D44001306C003A8CB93062003973500009385B0
:100D5400E52783278720C18393F7F7036369F600A8
:100D640083278720C18393F7F70363E6F60083C7DD
:100D74004500858BF9DF8280938781AA94431737D6
:100D840000001307A724BC5289CB83470700858B37
:100D940091CB97370000238D072297370000A38952
:100DA4000722828083471700858BF1DFDDB79387A5
:100DB40041AA9C4399CB944BD04B9842518F98C2F3
:100DC40094439C479842D98F9CC2938781AA9443A9
:100DD40037C70040C145A8CA654683278720C18319
:100DE40093F7F70363FBF50083278720C18393F709
:100DF400F7036364F600BC52EDF38280138781A984
:100E04001843AA87185F1583058B25EF0345150042
:100E140015051377C51F19C6B386E70083C62600D8
:100E24002300D60095C59736000083C6861A93F62C
:100E340006040945A1CAB386E70083C63600054601
:100E440093F5F6066390C504E206E18663CC0602D8
:100E54003385E7008347150003470500A20793F78E
:100E64000770D98F1397070141839376074099C67A
:100E7400136707802390E1AA014582802390F1AA99
:100E8400E5BF05458280938681AA8C4236859736D4
:100E940000009386A613984593170701C18313781E
:100EA40017203E86630408041377072079C303C719
:100EB40026001367170017380000230AE8101307E9
:100EC4000019B8D1130700F8973500002382E51004
:100ED400138781A90C4337080010D855719B1367F9
:100EE4002700D8D598413367070198C11377261096
:100EF40005C31376061059CE03C7060013671700FF
:100F0400173600002304E60C173700002314070CDF
:100F140083C6460093C7F7FFC207E206E186C18392
:100F2400184163D106029396170163DE0606305317
:100F34008D4663E9C600854617360000230AD608A5
:100F44003453FDFE973600009386C6F0838646012F
:100F540063DD060093960701C18663DC06047053C3
:100F6400894663E4C6007453FDFE1447F58F1CC71D
:100F7400828003C716001367170097350000A38704
:100F8400E50417370000230507041737000023136F
:100F94000704A9BF03C736001367170017360000FC
:100FA400A307E60295B78546173600002302D6024A
:100FB40051BF54471396060163510602B706100049
:100FC400FD1674D397360000938686EC944E8506FE
:100FD40017360000232AD6EC49BFA166D58F71B716
:100FE400397106DE16DC1ADA1ED82AD62ED432D28D
:100FF40036D03ACE3ECC42CA46C872C676C47AC20D
:101004007EC05135F250E2525253C2533255A2556A
:10101400125682567247E2475248C248324EA24E96
:10102400124F824F216173002030173700001307DD
:10103400A7FB8346B7019737000083C737FEB697EF
:1010440093F7F70FFD4663EAF6044C4B973600001E
:10105400A38CF6F89737000083C717F905473317B1
:10106400F70097360000A38BF6FA6D8F1DEF9736C5
:10107400000083C6F6FAB3F6D702130500028147CF
:1010840033D6F500058A13F8F70F09CE6399E60005
:1010940097370000A38A07F5828081177DB705077B
:1010A4001377F70F8507E39DA7FC8280938741ABF5
:1010B4009843B75702009387279F832607091396FF
:1010C4005600635806008326070913966600634496
:1010D4000600FD17FDF3828051C9AA870145C9C9DD
:1010E4008D07C207C183F19BC207C1831307400365
:1010F400636BF702138741B408431387C1B31443E6
:101104006396A602173700001307C7D4185B01457E
:1011140025C34111C20706C60545DD8D0297B240BD
:10112400014541018280138701B4F9B70357650073
:1011340005EF035745006369F702B306F7402146FC
:101144006370D6021041938687001D8FAA9661179B
:1011540090C22392E6002393060014C12312F500E3
:101164002313B50021058280084159BF01458280BF
:10117400828001CD938741B403A807009387C1B34C
:101184008C430147C28763E3B70082809443636F53
:10119400F50663EDA60613868700E368C5FE03D54E
:1011A4006700216605066317C50003C601A5050689
:1011B4002388C1A42393070063840703138601B41F
:1011C4001042630FF6000356670019EA83D74700FD
:1011D40014C383564700B697A1072312F700BA87B2
:1011E4009843E304B7FA938601B49442E30FD7F823
:1011F40083566700D9FA83D647000356470018433D
:10120400A106B2962392D70098C382803E87B68700
:041214009DBF00007A
:1012180097510020938101E117710020130101DE2D
:1012280013054000972500209385455D173600205B
:101238001306067E63FAC5008322050023A0550025
:1012480011059105E3EAC5FE17E501001305051B25
:10125800973500209385C57B1386818A63FAC5007C
:101268008322050023A0550011059105E3EAC5FE78
:101278001385818A976500209385056B6377B50090
:10128800232005001105E36DB5FE9302800873A0C5
:101298000230972200209382625693E212007390E4
:1012A8005230972200009382A2A8739012347300E0
:1012B80020303D432A876373C3029377F700BDEF5D
:1012C800ADE5937606FF3D8ABA960CC34CC30CC7AE
:1012D8004CC74107E36BD7FE11E28280B306C340D7
:1012E8008A069702000096966780A6002307B70033
:1012F800A306B7002306B700A305B7002305B70068
:10130800A304B7002304B700A303B7002303B7005F
:10131800A302B7002302B700A301B7002301B70057
:10132800A300B7002300B700828093F5F50F9396CA
:101338008500D58D93960501D58D61B793962700C5
:101348009702000096968682E78086FA9680C117F3
:101358001D8F3E96E374C3F8A5B7B717004003C7BF
:1013680077051377E70FA38BE704130700F8A38D1E
:10137800E7043D47238CE70413075003A38CE704D5
:101388008280B717004003D587005D715ED642059D
:10139800418186C6A2C4A6C2CAC04EDE52DC56DA55
:1013A8005AD862D466D26AD06ECE9377050C1307EA
:1013B8000008814B6388E71813070004639CE7144F
:1013C800B7240D8F7D8993840480B3D4A4029167D8
:1013D800938707E8BE94A167938707D0B3D4F40234
:1013E800EFD0410D97D70100938747799043D443B5
:1013F800EFC0513BEFD0814E2A8B939C040103D957
:10140800818A93DC0C0163150900056913090980B9
:10141800B7170040130770052380E704130780FA05
:101428002380E704371A00400547939D0401096C9F
:1014380085662389E704D14A814E8145130D0A0444
:1014480013087005130680FA894893DD0D01130C03
:101458000C712943FD1623000D012300CD0023162E
:101468002A0323000D0083472A05898BEDDF835764
:101478000A0583472A05898BEDFF83472A05898B4F
:10148800EDDF83570A052394218BC207C183338577
:1014980097419319050193D9094163840916338744
:1014A800B902635E070C850EC20E93DE0E0163E877
:1014B800D80D63D9050A3305B04093150501C185D8
:1014C800C204C18063D7350B0965130505713385DF
:1014D800A502B7170040130770052380E704130718
:1014E80080FA2380E7042396770323800704334593
:1014F800950242054181B640264496440649F25970
:10150800625AD25A425BB25B225C925C025DF24D37
:1015180061618280B1E3B77489097D89938404800D
:10152800B3C4A4029167938707E8BE94A167938721
:1015380007D0B3C4F402EFC0F17797D701009387BF
:1015480067646DB597D7010093870763856403AB1C
:1015580007009384843855B5130B0000954471BD7A
:101568003A89D5BDB387FC409399070193D90941BE
:1015780081BF0965130505713385A9028DBF3385C0
:10158800B74163E4FC003385FD40330585033344EC
:10159800B5036345830013150401A9BF4E8536C6FC
:1015A80042C432C2EFD02127DA85EFC0B177EFD03D
:1015B8006120931E050193DE0E41B307D941C2078E
:1015C800C183056E3E871246224889482943B246A0
:1015D80063E3C701368742074183631A270113076C
:1015E8001900634430011307F9FF42074183FD1ACC
:1015F80093FAFA0FCA8BCE85E3940AF62394E18A0C
:1016080059BF0145CDBDB717004003D587005D71AF
:1016180086C642054181A2C4A6C2CAC04EDE52DCBB
:1016280056DA5AD85ED662D466D26AD06ECE02C670
:101638009377050C13070008638BE714130700045E
:10164800639FE710B7240D8F7D8993840480B3D4FA
:10165800A4029167938707E8BE94A167938707D090
:10166800B3D4F402EFC0116597D7010093870751EF
:101678009043D443EFC01113EFD041262A89939A9F
:10168800040103DBA18A93DA0A0163150B00056BD9
:10169800130B0B80B7170040130770052380E7046E
:1016A800130780FA2380E704939B0401054789699F
:1016B800056A2389E704D14D014D814C93DB0B0169
:1016C800938909717D1A5A8597200020E780C01EEA
:1016D800330C5541420C135C0C412395618B63011B
:1016E8000C16B3079C0363D1070E050D420D135D5D
:1016F8000D01894763EAA70D63DB0C0A33059041A6
:10170800931C050193DC0C41C204C18063D88C0B87
:101718000965130505713385AC02B7170040130737
:1017280070052380E704130780FA2380E704324713
:101738002396E70223800704334595024205418139
:10174800B640264496440649F259625AD25A425B38
:10175800B25B225C925C025DF24D61618280B1E312
:10176800B77489097D8993840480B3C4A4029167FE
:10177800938707E8BE94A167938707D0B3C4F402A0
:10178800EFC0515397D701009387C73FD5B597D777
:1017980001009387673E856403A907009384843812
:1017A800F9BD130900009544D9BD3E8B29BF338587
:1017B800AA40131C0501135C0C41B9B70965130550
:1017C80005713305AC028DBF63FEAA003305754170
:1017D80033053503A9473344750363C887001315D8
:1017E8000401B1BF3385AB40E5B76285EFD0A102F4
:1017F800CA85EFC03153EFC0F17B131D0501135D9E
:101808000D413307AB41420741838565BA8763635E
:10181800B700D287C207C183639A670193071B0089
:10182800634480019307FBFFC207C183FD1D93FD3D
:10183800FD0F5AC6E28CE39A0DF62395F18A45B757
:101848000145FDBD41112A83014E930E407E130FC1
:101858000019930F400663EB6E0A930800191303EF
:101868004006B3781503854E0D4FA14F33736502BB
:101878000D891335150063E5BE0C1308F6FF79468C
:1018880072984208135808013307C70213D6170085
:10189800BE0732976146B3F6C60213068070B38658
:1018A800C6023697A166F58F42075D8FB7170040CD
:1018B80083C6F70293F60608A307D1000346F10092
:1018C80083C6F70293F60608E394C6FE8346F10042
:1018D80093F6F60FF1DE930670052380D70493067E
:1018E80080FA2380D70423AA070383C6170393E645
:1018F8000608A388D702D8DB03C7170313670704B2
:10190800A388E70223800704410182807D1333689E
:10191800E3039308E016630E08003368F3039308A3
:10192800D016630808009378330093B8180093889A
:10193800D81633081E01131E0801135E0E0121BFBD
:101948006393E503054863860800014863030300C1
:101958002A8871087298FD15131E0801C205135EC6
:101968000E01C18109BF13F8150063F4BF0079089F
:10197800D5B713381800E5BF914763EEB70217D7FC
:1019880001001307A7208A05BA959C41BA97828758
:10199800B717004003A7470B1345F5FF698F23AA24
:1019A800E70A03A7070B698F23A8E70A03A7070A13
:1019B800798D23A0A70A8280B717004083A6470B1A
:1019C8001347F5FFF98E23AAD70A83A6070B558D6F
:1019D80023A8A70A83A6070A758F23A0E70A82808F
:1019E800B717004003A7470B498F23AAE70A03A7A5
:1019F800070B1345F5FF45BFB717004083A6470BF4
:101A08001347F5FF758F23AAE70A03A7070A598D1D
:101A18004DB7B717004003A7470B498FEDB791475C
:101A280063EEB70217D70100130787178A05BA951F
:101A38009C41BA978287B717004003A7470D134503
:101A4800F5FF698F23AAE70C03A7070D698F23A861
:101A5800E70C03A7070C798D23A0A70C8280B71782
:101A6800004083A6470D1347F5FFF98E23AAD70C2C
:101A780083A6070D558D23A8A70C83A6070C758F81
:101A880023A0E70C8280B717004003A7470D498FB2
:101A980023AAE70C03A7070D1345F5FF45BFB717A2
:101AA800004083A6470D1347F5FF758F23AAE70C5F
:101AB80003A7070C598D4DB7B717004003A7470D6B
:101AC800498FEDB7B7F700E0C8439C4782801205FD
:101AD8009A054D8D1365C5001375F50FB73700408E
:101AE8002380A7808280B737004001E5A380078064
:101AF8008280239CB780239EC780154791E20547C3
:101B0800A380E7808280B7870040238007001307FF
:101B1800C0FC2386E700A386E70003D7C18A239881
:101B2800E70003D7018B239AE70003D7418B239C57
:101B3800E70003D7818B239EE70089462381D702DC
:101B480049472383E7022385E7022387E70223899E
:101B5800D702A3810700130790022380E700B71676
:101B6800004003D7A6011367070C239DE6007D57A5
:101B78002383E700130710F8A380E7001D4723819C
:101B8800E7008280B78700402382A70203C7670265
:101B98001377C70F2383E7028280B7870040238427
:101BA800A70203C7A7021377C70F2385E70282801E
:101BB800B78700402386A70203C7E7021377C70F3A
:101BC8002387E70282809387818C9C43411106C654
:101BD80091C382979387C18C9C4391C3829717477F
:101BE8000020035747C49307001963F7E70403D598
:101BF80041809306F01863E4A6049386418C03A3FE
:101C0800060063070300B24013050019410102836F
:101C18000507098F3385A740E5473305F5024207D5
:101C2800418309839307F7FF3E953345E502137512
:101C3800F50FB2404101828013054006DDBF014522
:101C4800CDBF03A84500411126C206C622C483475A
:101C5800180003480800A944A207B3E70701C20710
:101C68000D68C18713082890639607038547328457
:101C7800EF80000DAA8419ED9387018C9C4399CBC2
:101C880003451400034704002205598D1335150038
:101C980005058297B24022442685924441018280FC
:101CA8002D452DEFD841411122C426C206C68347CF
:101CB800170003470700B684A207D98F0D6793065C
:101CC80097A13284639CD702FD3D9747002083C7C4
:101CD80067B56376F500974700202385A7B4854745
:101CE8002390F4009747002083C7C7B32300F4006C
:101CF8000145B240224492444101828013078790F3
:101D08002945E398E7FECC4589472390F400094626
:101D1800228597200020E7802021D9BF8280834731
:101D28004500858BBDC7011122CC2A8403552500A7
:101D3800938581B506CEEF70707B058939C503554B
:101D48002400014781460546ED45EF7070342AC6E8
:101D58000DCD973700209387A7CB83D7A7020146DD
:101D68002C002314F10085472315F1009747002024
:101D780083C747AB2300F50003552400EF80F052DA
:101D880009C5ED452800EF709048F24062440561AE
:101D98008280828041654111938581B57D1506C693
:101DA800EF90D041B24097360020938666CB4146EB
:101DB8009545173500201305A5C541016F9050348E
:101DC80023A0A18C8280411122C406C685470944FC
:101DD8006313F502834706000144238EF18A1747EF
:101DE8000020034727A46378F700170500001305B0
:101DF80045F3EFB0306C2285B24022444101828025
:101E080085476303F50209C909476304E5020D47DD
:101E18006308E502094582809747002083C787A0A9
:101E28002380F500014582809387C18B83C7070013
:101E3800C5BF9737002083D747BE2390F500DDB78D
:101E480013878180035707002392E5001737002086
:101E5800130707BC8356A7020357A7032383F5007C
:101E68002390D5002391E50075BF411106C6A13B1B
:101E78009747002083C7079B637CF500974700209E
:101E88002382A79A170500001305A5E9EFB0906211
:101E9800B24001454101828041677917630CE50230
:101EA800411122C406C685472A84639AF500228513
:101EB8002244B240938581B541016F903030894703
:101EC8006396F5008545EFB0705975D1B24022444C
:101ED800410182808280CC41411106C6328503C609
:101EE800150083C5050022064D8E42068D65418684
:101EF800138875A2630C060F6348C804138845A2AB
:101F08006306060B634AC800938535A26309B606C3
:101F180023900600294679A0138855A26308060B6A
:101F2800938565A2E316B6FEC1451D4663ECE5063A
:101F38004546198E63F3C7003E862390C60097D5A1
:101F48000100938525C889A8138895A26300060F08
:101F5800634E060B1388A5A2630A060F938505A591
:101F6800E318B6FA99451D4663EEE502198E63F348
:101F7800C7003E862390C6009385018131A89D4500
:101F88001D4663E1E5022146198E63F3C7003E86CC
:101F98002390C6009385018DBA9597200020E7808D
:101FA800A0F80146B240328541018280AD451D4608
:101FB800E3EAE5FE3146198E63F3C7003E862390B7
:101FC800C60097D501009385A5C3F9B7B1451D464D
:101FD800E3EAE5FC3546198E63F3C7003E86239095
:101FE800C60097D501009385A5C27DB7C1451D469A
:101FF800E3EAE5FA4546198E63F3C7003E86239067
:10200800C60097D50100938525BD79B7C1451D4602
:10201800E3EAE5F84546198E63F3C7003E86239048
:10202800C60097D501009385A5BFBDB7C1451D461C
:10203800E3EAE5F64546198E63F3C7003E8623902A
:10204800C60097D50100938565BAB9B7B5451D4651
:10205800E3EAE5F43946198E63F3C7003E86239018
:10206800C60097D501009385E5B43DB797360020A3
:102078009386C6B24146CD45173500201305059F06
:102088006F901008828082809387C18E9C4303C71B
:10209800018E83C6B18201E781473E85828003D6DF
:1020A80007006316A60003C66700E308D6FE7D177F
:1020B8001377F70FA107C5B78547631AF5001166AF
:1020C800130686A9894503C5118E6F3050048947C8
:1020D8006317F500894503C5118E6F30101A828089
:1020E80085476398F50019E2238DB18C2388C18E4A
:1020F800828009476399E50019E6238DF18C03D5A1
:10210800818D6F00B00782809387418E9C430111B7
:1021180022CC06CE2E8481CB9C4791C78297F24071
:102128006244056182806C0013057040EF70D168CD
:10213800324681452285EF806129D5B741119397B1
:10214800050122C406C6C1872E8463DF070003C5C4
:10215800118EEF30A02A19C1EF30A0232165218DFF
:10216800B24022444101828093F7150091CF17367F
:102178000020130666A39385C18103C5118EEF90D5
:10218800212313451400E9BF93F725000145E9DB36
:10219800E9391166130686A9894503C5118EEF3002
:1021A8000077134524006DBF797126D24ECE06D62E
:1021B80022D44AD052CC9147AA84AE896314F5043C
:1021C80083D7A5001306E100854513055030239CED
:1021D800F18C23070100238D018CEF90414A9387EE
:1021E800418E9C4391C7DC4781C7CE85268582975F
:1021F800B250225423AE918C02599254F249624A49
:10220800456182801387C18D1843E31AF7FC854521
:1022180003D5818D5131854503D5818DEF00C07B74
:10222800C16703DA818DF917631DFA060544930522
:10223800E10013055041238D018CA385818223077A
:102248000100EF7071578347E100C1E703C7018FB1
:102258009147E316F7F8930500030D45EF50005733
:10226800930500051145EF5060569305C0030545D9
:10227800EF50C055930500051D45EF5020559305B7
:1022880000052145EF50805485471306E100854538
:10229800130550302307F100EF90613E2388018E2B
:1022A8003DBF9387C18E03A9070003C4018E3DDC9F
:1022B8000355290011C99305E100EF80800709C57E
:1022C8004C455285EF90806F7D141374F40F2109EB
:1022D800F9BF9387818E9C4383C74700898BBDD7FD
:1022E8009305000A0D45EF50604E9305000A11450D
:1022F800EF50C04D81450545EF50404D9305000511
:102308001D45EF50A04C930500052145EF50004CAA
:102318001306E10085451305503023078100EF902F
:1023280001362DB7011117050000130565E106CE2A
:1023380022CCEF3030181384118E85471306F10034
:1023480085452300A40013054041A307F100EF8051
:10235800412F7D55EF70201D7D55EF900063393377
:10236800153CE52317050000130545D5913C1705D5
:102378000000130585D10125034504008545EF308C
:10238800A046F24062440561828023A2B18E23A454
:10239800A18E828023A6B18E2380A18E828093870E
:1023A800C18D9843797122D406D626D24AD04ECE12
:1023B80052CC91474144631FF70083C7A18D414424
:1023C80091CB9387C18E804303C7B18283C7018EA7
:1023D80099EB55442285B250225492540259F2493D
:1023E800624A4561828003484400631AA800034892
:1023F80054006316B800034864006307E800FD173B
:1024080093F7F70F2104E9B70355240093056100FA
:102418003689B284EF70F0714DDD4C4503D5818D5E
:10242800EF70D00C058955D59399040193D909010A
:10243800014781464E86ED4503D5818D035A040038
:10244800EF7000452AC64D4451D52686CA85231407
:1024580041012315310197200020E780E0AC0146B7
:102468002C0003D5818DEF8040642A8425D5ED4565
:102478002800EF70C059B9BF011185471306F10054
:1024880085451305503006CEA307F100EF90211FB4
:10249800F240056182809387C18D9843011106CE71
:1024A80091476316F70003D5818DEF90C14313065A
:1024B800F100854513055030A3070100EF90211C5A
:1024C800F24005618280C841011122CC06CE3284D7
:1024D80003461500034505002206498E19CB0D68F1
:1024E8001308B8A42D4563090607F2406244056144
:1024F80082800D651308D5A463000603130825A27E
:10250800630C060175781308E85C32984208135882
:102518000801854863EE080303D5A50036C632C412
:10252800A536B24615C19387418E9C432246834502
:10253800550003A30700A2876244F2400345450003
:10254800368785460561028323900600014571BFE1
:102558001308B5A46317060303D641831D45E37624
:10256800C7F8198E63D3C7003E86CC452390C600B2
:1025780042064182BA95228597200020E780C09ABA
:10258800F1B79307A5A46318F60091472390F600C6
:102598001146CC45CDB7930785906317F600894758
:1025A8002390F6000946F5B79307E5A4631AF600E9
:1025B800DC452390160183C707002300F40079B790
:1025C80013057590E314A6F8D9BF011122CC06CEE5
:1025D80026CA4AC82317D1002D4429EBDC412E898D
:1025E800B28403C4170083C7070022045D8C8D677B
:1025F8009386D7A46306D400938627A3631FD402C7
:102608000355A900513419E101440DA09387418E67
:102618009C43834555000345450003A807002286CF
:10262800A6871307E100814602982A842285F24092
:102638006244D2444249056182809386C7A46314E8
:10264800D4028357E10005473544E391E7FE03458B
:10265800060013040008E3EBA7FC9387418E9C4314
:10266800DC43829755B793862790631AD402835622
:10267800E1008547EF70C06C2A844DF99387C18EBD
:102688008356A9009C4303C7018E3DDF03D627006C
:102698006302D6047D171377F70FA107FDB7938759
:1026A800E7A4E313F4F68357E10005473544E39FB5
:1026B800E7F60345060013040008E3E9A7F6DC453E
:1026C8002380A7009387418E9C433335A0000905DA
:1026D800DC4341BF1387418E184303C5470083C5B8
:1026E800570083C714000328070003C70400A20784
:1026F8008946D98FC207C18705476383E7008D469E
:102708000D66A6871307E10013062690029839BFC5
:10271800411122C441641305F4FF938581B806C6AC
:1027280026C24AC0EF9080291305F4FF938581B62D
:10273800EF90C0281305F4FF938581B797240020F4
:1027480093844447EF9080279726002093868664D9
:102758004146F9452685EF90A01ACC4C2A890945AF
:10276800EFF00FEA138741848346070093870184BB
:102778000347170003C61700138481B983C50700F0
:10278800A306E40083D7A40CA30EE40003D7A41681
:10279800A302C400A30AC40003D6A4132310F400A0
:1027A800231CE40083D7A40D1387818303D5A410C9
:1027B8002318C4000357070003D6A4142311F400F8
:1027C80085472303F4002306D4002307F4002319C4
:1027D800C400230ED4002302B4002314A400230A47
:1027E800B40023150400230B0400231D0400230F49
:1027F80004002312E40203D7A418938581BC2303A1
:10280800F4022310E40203D7A4192307F4022315C2
:1028180004022311E4021387C183035707000D45FF
:102828002316E40203D7A41C2314E402EFF04FDDBF
:10283800A28521458536B24022444A859244024900
:10284800410182808D67138527A36301A6049387BE
:10285800D7A40145631EF6008947639CF5008547A8
:1028680035456397F60083470700A38BF18E014532
:1028780082808D472945E39DF5FE85473545E399D7
:10288800F6FE83470700A38AF18ED5B785473545FD
:10289800E390F6FE83470700A389F18EC9BF8D67D1
:1028A800138527A36308A6029387D7A46317F602A4
:1028B8008947639BF50083C7718F2300F70085471D
:1028C8002390F600014582808D476398F50083C701
:1028D800518FE5B783C7318FCDB723900600DDB799
:1028E8000145828025E303A84500AE888347180088
:1028F80003480800A207B3E707010D68930EF8A480
:10290800639AD70391473548639FF60203A5C80029
:102918004111B285114606C697100020E780C060B5
:10292800938741909C4305458297B2400148428570
:1029380041018280930828902948639617018547AA
:102948006F7000402D484285828041654111938512
:1029580081BD7D1506C6EF906006B240972600201F
:102968009386064A41469945172500201305454395
:1029780041016F80F07823A2A19082800111938594
:1029880081BD22CC06CE2A84EF704036058929C144
:10299800014781460546ED452285EF60706F2AC6DE
:1029A80005C9972700209387A73F83D7A705014626
:1029B8002C002314F10085472315F100230005009E
:1029C8002285EF80800E09C5ED452800EF702004B0
:1029D800F24062440561828041677917630CE50221
:1029E800411122C406C685472A84639AF5002285C8
:1029F8002244B240938581BD41016F80307C894774
:102A08006396F5008545EFB0602575D1B240224444
:102A1800410182808280411106C6EFE09F96BD4742
:102A280063F4A700EFE0FF95EFE0FFBDBD4763F457
:102A3800A700EFE05FBDB24083D5A18A03D5818AA4
:102A480041016F30E014411193962500AA852D4568
:102A580006C697100020E7804018B24001454101A2
:102A68008280411126C29394250022C44AC02A8438
:102A78003289A686AA850146254506C697100020F4
:102A8800E780A015A6864A86A285294597100020CA
:102A9800E780A014B2402244924402490145410112
:102AA8008280011122CC06CE3714004026CA4AC8BB
:102AB8004EC652C483447405034AB4058349840549
:102AC80003499405EFE07F898347A40593F4F40F45
:102AD800137AFA0F93E71700230DF40493F9F90F0B
:102AE8001379F90FB717004003C7A705058B6DFFCA
:102AF80003D5C705A38D4705238C3705A38C270568
:102B0800A38B9704F2406244D2444249B249224A14
:102B18000561828041119397050122C406C6C187C9
:102B28002E8463DD0700EF20700D19C1EF207006B9
:102B38002165218DB24022444101828093F715001E
:102B480013C51500E5FB9397250163D00702EF3005
:102B5800917DD13537F60200130606E0896503C575
:102B68008190EF20D05A0965E9B79397150101457F
:102B7800E3D207FC13060064916503C58190EF203A
:102B8800105911657DB71D71494697C50100938598
:102B9800251017C501001305653C86CEEF20F03ED1
:102BA80011E101A037F700E0F9575CC7FD571CCBCE
:102BB8008566B7E700E023A0D7101306701010C38E
:102BC800B8434146B0C323A0D718B8C301000100D9
:102BD8001306C00381454808EF20103597370020B9
:102BE8009387C7023ECA896793870780231CF10031
:102BF800ED47A301F1028567938707452312F10288
:102C0800D1472303F102A167938707E03ECE9707D8
:102C18000000938787E3BEC4970700009387A7E463
:102C2800BEC685472304F102B5472308F10297F78A
:102C3800FFFF938767E93EDAB7F5070097070000BB
:102C4800938767E63EDE8146970700009387E7DCB7
:102C58007000E1051945BEC097100020E780E0F735
:102C680058088147994670003E9603460600850736
:102C78000507A30AC700E398D7FED24791C70357B1
:102C8800810185676373F70001A04808EF300006EB
:102C980011C101A0F640256182804111170500008D
:102CA800130585E706C622C4EF30C000138481905F
:102CB8002300A4002928034504002244B24037F623
:102CC8000200130606E0896541016F205044411156
:102CD80006C622C493067005371400402300D404A6
:102CE800130780FA2300E4048347F40293F7A70F3D
:102CF800A307F4022300D4042300E4048347F40266
:102D080093E72700A307F40239331305407E230015
:102D1800040481470147814605468545EFE09FB297
:102D28002244B240014541016F3000294111130589
:102D3800800406C697100020E780A0BC05459710C0
:102D48000020E78000D4EF208042353DB937B52414
:102D5800EF80B13BEFF00FDD1D22EF208024EF1054
:102D6800B02BEF10705DEF20A00D95472391F198DF
:102D780097100020E780C0D48280011106CE8D47CD
:102D88006301F50491476301F5028547631BF5006C
:102D98002C0013054030EF80D1002C000545EF5082
:102DA800F076F2400561828083D7A5000D66130690
:102DB8000620914503C5A185239CF184EF20303579
:102DC800CDB79387819898438547E31CF7FCEFF0CC
:102DD800AFEAC1BFB688AA8EBA862E83328E3E87E6
:102DE800639508020D661306D6A483C60600631908
:102DF800CE0089476396F50085473548639CF60001
:102E080072869A8576856FF0FFA38547014863939C
:102E1800F80071B44285828041119397050122C45C
:102E280006C6C1872E8463DF070003C5A185EF208E
:102E3800E05C19C1EF20E0552165218DB2402244A4
:102E48004101828093F7150013C51500E5FB93F740
:102E5800450099CF83C7A1851307401F81461146B6
:102E6800914503D58185EF80014E13454400F9B79C
:102E780093F725000145F9D313C52500C1B7011102
:102E880017050000130585F906CE22CC26CAEF20C7
:102E980070629384A18505442380A4007000854551
:102EA8001305503023068100EF80617D13868184ED
:102EB8009D4513056030EF80817C1726002013069E
:102EC800E6F5FD4513057030EF80617B17C60100FC
:102ED800130646DDDD450145EF6000578D4770005C
:102EE8009145130570402305F10023048100A305D3
:102EF800810002C6A3040100EF70A174300085456B
:102F080013050040EF70E173130691008545130522
:102F18001040EF7001731306A1008545130520408A
:102F2800EF7021721306B100854513055040EF700C
:102F3800417199477000854505452306F100EFE08A
:102F48009FE8EFF0EFFC97250020938525EC13858B
:102F58000185EFF08FC303C504008545EF20D00835
:102F6800F2406244D2440561828083C7019185079B
:102F780093F7F70F41112388F19006C6858B8DE3EF
:102F880093860199214685450545EFF04FC1938603
:102F9800C198114685450945B24041016FF02FC0DF
:102FA8009386C198114685450945EFF04FBF938632
:102FB8000199214685450545C5B797470020938760
:102FC800E74423A6F18A974700209387275023A830
:102FD800F18A9747002093876757411123AAF18AFE
:102FE800974700209387875E06C623ACF18AEFE0F7
:102FF8009FB1B240B7E700E03707400023A0E710D1
:1030080041018280397122DC26DA2E84AA841306D3
:1030180020028145680006DE4AD8EFE08FA9914773
:1030280063EB870217C70100130747C90A043A94DC
:103038001C40BA9782879387818B9C4325571145FB
:103048002380E7040547A380070423810704A3819D
:10305800E704EFE0FFB5F2506254D25442592161BF
:103068008280EF2060049387818B884341469725AF
:1030780000209385E5691305050497100020E78073
:10308800A0EA4145F9B79387C18A8C4317250020E8
:10309800130505681386F4FF93851504971000201F
:1030A800E78080E81725002013058566EF202001BA
:1030B8009387818B9C4305452380970459BF938749
:1030C800C18A94431D4783C71604E366F7F817C7F8
:1030D8000100130767C58607BA9783D5070003C69B
:1030E80026046800EF20A0000347C10093072002D0
:1030F800E313F7F69387818B8843130620026C004D
:103108001305050497100020E78000E2130520024C
:1031180089B71384C18A0C401D4783C71504E36C23
:10312800F7F217C70100130727C08607BA97680088
:10313800130620029385350403D907009710002051
:10314800E78080DE1C40CA85680003C62704EF10AC
:10315800B07BB9BF9387C18A9C4383C507045DB51B
:10316800B787004003C767001377F70F93762700E8
:1031780063860672011106CE22CC26CA4AC84EC6FC
:1031880003C777009306000313770703630BD7027F
:1031980003C7770091461377F7036300D72263EAE2
:1031A800E60885466304D718630E07188946630E38
:1031B800D7188D466307D71CB78700400947238374
:1031C800E7003787004083477700E207E18763DF3E
:1031D8000734930720FC2301F7029386C18A8842AB
:1031E800034775008347650022075D8F239BE190A5
:1031F80083471500A38AF1908344050013F604065B
:103208006306062413F704046311071E13F7040268
:10321800630D071CF91793F7F70F2547636DF72E12
:1032280017C701001307C7AA8A07BA979C43BA971A
:103238008287930620026307D71263E9E6029306A2
:103248000002630CD70493061002E317D7F603C7EE
:103258006702134707042383E70203C7670213774C
:10326800C70F136727002383E702B9B79306300215
:103278006306D71293064002E310D7F403C7270367
:10328800134707042389E70203C727031377C70FE8
:10329800136727002389E70205B703C751919546AD
:1032A800630BD7069947630AF7008D47E306F7F0E3
:1032B800B78700402380070285A89387619103D4CC
:1032C800070013070004BE84637487001304000416
:1032D8009387C18A1389C1918843420483250900D1
:1032E80041802286EFB0817D83D704009379F40F63
:1032F800818F239BF190832709003E9423AE819010
:10330800B78700402380370303C727021347070402
:103318002381E70255B503C7370083C66191137748
:103328000708558FA381E7000947DDB703C7770072
:1033380013770704E30207E803C767021347070880
:103348002383E70283C7870085BD03C77700137708
:103358000704E30307E603C7A70213470708238503
:10336800E702CDB703C7A702134707042385E7027F
:1033780003C7A7021377C70F136727002385E70240
:1033880025BD03C7770013770704E30707E203C7E0
:10339800E702134707082387E7026DB703C7E70269
:1033A800134707042387E70203C7E7021377C70F0A
:1033B800136727002387E70201B503C77700137750
:1033C8000704E30B07DE03C727031347070823890E
:1033D800E70203C58700BD3BC5B397470020938725
:1033E800E70283C737002389F190E204E18481462C
:1033F80063D2040283D76191930600043E8763F485
:10340800F6001307000442074183998F9376F70F5C
:10341800239BF190B78700402380D702130700FC55
:10342800FDA897470020938767FE83C72700238A54
:10343800F19065BF9387219183C707001747002044
:103448002306F7FC5DB793874191FDB72D4663646A
:10345800F60C17C601001306268A8A07B2979C4302
:10346800B297828783473500834625000D46A20719
:10347800D58F93D68700638CC612636CD6008547B8
:10348800638FF6028947638AF60A1304F00F8147AF
:103498003DA893071002638AF60C93072002E3966F
:1034A800F6FE834745006396070E97C7010093878A
:1034B800A78823AEF19001449307F00F09A897C796
:1034C80001009387E78C23AEF1900144C947C207F6
:1034D800C18363F4E700239BF1909387619103D63E
:1034E80007009307000463F4C700130600049389D8
:1034F800C1911319060183A50900135909014A86C8
:10350800EFB0C15B03A609004A9623AEC1909307AA
:10351800F00FE31CF4ECB78700401307F0FC23819D
:10352800E702B787004009472383E700F240624477
:10353800D2444249B2490561828097270020938787
:10354800E78F23AEF1909727002083C7271D972682
:103558000020A385F69097260020238EF69001443C
:103568009727002083C7A78D9DB78347450089CB40
:103578008546E39CD7F0972700209387D78E29A00C
:10358800972700209387A78C23AEF1900144A54785
:103598003DBF85466397D70097B701009387C77DDE
:1035A80009BF0946E399C7F0A389D19029B793F7D2
:1035B800F70F85466380D7029DC78946E397D7EC06
:1035C80097B701009387477F23AEF1900144930793
:1035D800A002F5BD97B701009387C77C23AEF19091
:1035E8000144D147EDB597C701009387E7DC23AEC7
:1035F800F19001449147E1BD83472500239BF19059
:10360800EDB383C711912300F50003D76191854776
:10361800E3FDE7DC8547DDB783472500A388F19004
:10362800E9B313F7F40189476310F70A83474500A4
:103638008D466382D70663EEF6008546638FD7060C
:10364800E39BE7EC378700408347A70293F73707E8
:1036580095A0130720086387E704130730086381E0
:10366800E70213071008E398E7EA37870040834723
:10367800670293F7C70B93E727002303F702B5B355
:10368800378700408347E70293F7C70B93E7270084
:103698002307F70299BB378700408347E70293F770
:1036A8003707FDB7378700408347A70293F7C70B53
:1036B80093E727002305F7020DBB378700408347B0
:1036C800670293F7370755BFE31707E483473500C9
:1036D80003472500A207D98F0547E398E7D083C79A
:1036E800819193F7E70F238CF19001B313F7F4015D
:1036F80089476314F70A8347550083464500A207A4
:10370800D58F8D466380D70663E0F6028546638DC4
:10371800D706E392E7E0378700408347A70293F78D
:10372800370793E7C70079B7130720086385E704CD
:1037380013073008638FE70013071008E39DE7DCE1
:10374800378700408347670293F7C70B93E7370033
:103758002DB7378700408347E70293F7C70B93E7F6
:1037680037003DB7378700408347E70293F73707AD
:1037780093E7C70031BF378700408347A70293F715
:10378800C70B93E737003DB7378700408347670289
:1037980093F7370793E7C700CDB5E31E07D68347EE
:1037A800350003472500A207D98F0547E39FE7C2E5
:1037B80083C7819193E717003DB723000500B1B592
:1037C80093F5F4018947639FF50A230005009842A1
:1037D8008347570003464700A207D18F0D46638BE6
:1037E800C7046361F60205466384C7086386B706A3
:1037F8009C42A380070003D761918547E3F7E7BEA2
:103808008947EDBB930520086383B7049305300807
:10381800638BB70093051008E39CB7FCB78700409B
:1038280083C7670229A0B787004083C7E70293F7D9
:10383800370401A8B787004083C7E702314693F7EA
:10384800C708E397C7FA85472300F70055B7B78736
:10385800004083C7A702E1BFB787004083C7A7021C
:10386800B14593F7C708E395B7F82300C70049B7F0
:103878003786004003466602B1451376C608E31949
:10388800B6F6D9B7B5F52300050003C7819119C36A
:1038980098425DBF9C422380070099BF937617002A
:1038A80085C20947A38107002381E7022383E70232
:1038B8002385E7022387E70205472383E700828001
:1038C80093764700FDDA03C757001147FDB7B717CE
:1038D800004083A7470A411106C693961701172788
:1038E8000020034777E363C706062387019683C74B
:1038F8006196639DE70483C7019693E707042380D5
:10390800F19623830196B717004083A7470A939639
:10391800270163C806062388019683C78196639E9C
:10392800E70483C7019693E707F82380F196238479
:10393800019617260020034626DE854503C5B18576
:10394800EF10F07CB2400145410182808507238356
:10395800F19655BF2383019683C7E196639BE700E1
:1039680083C7019693F7F70B2380F1962387019677
:1039780059BF85072387F19679B785072384F19680
:103988004DBF2384019683C70197639BE70083C7D4
:10399800019693F7F7072380F1962388019651BF84
:1039A80085072388F19671B7B717004003A7470C1E
:1039B800411106C6931617019727002083C7D7D54C
:1039C80063CF06102389019603C7A1966315F710E4
:1039D80003C70196136747002380E1962385019664
:1039E800371700400327470C9316270163C00612B8
:1039F800A385019603C731966316F71003C701968E
:103A0800136787002380E196A3810196371700404A
:103A18000327470C9316370163C10612A388019642
:103A280003C791966317F71003C701961367070139
:103A38002380E196A3840196371700400327470C9B
:103A48009316070163C206122386019603C741969F
:103A58006318F71003C70196136717002380E196D0
:103A680023820196371700400327470A1377072058
:103A780063130712A386019603C751966319F710BB
:103A880003C70196136727002380E196A382019656
:103A9800371700400327470C9316970063C4061294
:103AA800A387019603C77196631AF71083C7019617
:103AB80093E707022380F196A38301961726002037
:103AC800034676C5854503C5C185EF105064B240ED
:103AD80001454101828005072385E19611B72385B9
:103AE800019603C72197631BF70003C70196137755
:103AF800B70F2380E19623890196DDB50507238951
:103B0800E196F9BD0507A381E19609B7A38101965E
:103B180003C7B196631BF70003C701961377770FA6
:103B28002380E196A3850196D5B50507A385E1967F
:103B3800F1BD0507A384E19601B7A384019603C7E5
:103B48001197631BF70003C701961377F70E2380BD
:103B5800E196A3880196CDB50507A388E196E9BD4E
:103B680005072382E196FDBD2382019603C7C1960E
:103B7800631BF70003C701961377E70F2380E196CD
:103B880023860196C5B505072386E196E1BD05079D
:103B9800A382E196F5BDA382019603C7D196631B64
:103BA800F70003C701961377D70F2380E196A38602
:103BB8000196F9BD0507A386E196D9BD0507A3833C
:103BC800E196EDBDA383019603C7F196631BF70049
:103BD80083C7019693F7F70D2380F196A387019683
:103BE800F1BD0507A387E196D1BD411106C622C4E0
:103BF80026C24AC083C701869DE793878198984368
:103C080085476312F70217260020034616B185453B
:103C180003C5E185EF10B04FB240224492440249F7
:103C280001454101828083C7219691CF2146814574
:103C380013850199EF10502F114681451385C198BE
:103C4800EF10902EC9B7172700200347F7AB972727
:103C5800002083C767AB22075D8F9727002083C7A3
:103C6800C7AAC2075D8F9727002083C717AAE20754
:103C78001384C195D98F184097240020938404A7F2
:103C88006367F70089C7A6850565EF10E06803C676
:103C9800919529CA138701998547A545B386970049
:103CA8000345070083C6060085070507C98EA30FCD
:103CB800D7FEE395B7FE9387C1981727002013070F
:103CC800E7A29385019983C60700034597008507F6
:103CD8000507C98EA38FD7FEE397B7FE1C4085075B
:103CE80023AEF1949727002083C7D7A16363F6001A
:103CF80095E39727002083C707A103C781956363CE
:103D0800F70089EB18409727002083C7D79F636C7B
:103D1800F704B1CB172700201307479D9387019914
:103D280093858199BA8603C6070003C5D60085071F
:103D38008506698EA38FC7FEE397B7FE9387C19860
:103D48001386019983C60700834557018507050730
:103D5800ED8EA38FD7FEE397C7FEA38C0194238C27
:103D6800019423AE0194172700200347378A972729
:103D7800002083C7A78922075D8F9727002083C764
:103D88000789C2075D8F9727002083C75788E207F6
:103D980013844192D98F1840972400209384448536
:103DA8006367F70089C7A6850965EF10E05603C663
:103DB800119229CA138701998547A545B3869700AB
:103DC8000345070083C6060085070507C98EA30FAC
:103DD800D7FEE395B7FE9387C198172700201307EE
:103DE80027819385019983C60700034597008507B6
:103DF8000507C98EA38FD7FEE397B7FE1C4085073A
:103E080023A2F1929727002083C717806363F600E7
:103E180095E39717002083C7477F03C70192636321
:103E2800F70089EB18409717002083C7177E636C4B
:103E3800F704B1CB171700201307877B93870199E5
:103E480093858199BA8603C6070003C5D6008507FE
:103E58008506698EA38FC7FEE397B7FE9387C1983F
:103E68001386019983C6070083455701850705070F
:103E7800ED8EA38FD7FEE397C7FEA3800192238020
:103E8800019223A20192172700200347B78597279D
:103E9800002083C7278522075D8F9727002083C7C7
:103EA8008784C2075D8F9727002083C7D783E207DF
:103EB80013844195D98F1840972400209384C48097
:103EC8006367F70089C7A6850D65EF10E04403C650
:103ED800119529CA138701998547A545B386970087
:103EE8000345070083C6060085070507C98EA30F8B
:103EF800D7FEE395B7FE9387C198171700201307DD
:103F0800A77C9385019983C6070003459700850719
:103F18000507C98EA38FD7FEE397B7FE1C40850718
:103F280023AAF1949717002083C7977B6363F60051
:103F380095E39717002083C7C77A03C70195636382
:103F4800F70089EB18409717002083C79779636CAF
:103F5800F704B1CB17170020130707779387019948
:103F680093858199BA8603C6070003C5D6008507DD
:103F78008506698EA38FC7FEE397B7FE9387C1981E
:103F88001386019983C607008345570185070507EE
:103F9800ED8EA38FD7FEE397C7FEA38801942388ED
:103FA800019423AA019417170020034777689717ED
:103FB800002083C7E76722075D8F9717002083C714
:103FC8004767C2075D8F9717002083C79766E20788
:103FD8001384C192D98F1840971400209384846366
:103FE8006367F70089C7A6851165EF10E03203C63D
:103FF800919229CA138701998547A545B3869700E9
:104008000345070083C6060085070507C98EA30F69
:10401800D7FEE395B7FE9387C198171700201307BB
:10402800675F9385019983C6070003459700850755
:104038000507C98EA38FD7FEE397B7FE1C408507F7
:1040480023A6F1929717002083C7575E6363F60093
:1040580095E39717002083C7875D03C78192636341
:10406800F70089EB18409717002083C7575C636CEB
:10407800F704B1CB171700201307C7599387019985
:1040880093858199BA8603C6070003C5D6008507BC
:104098008506698EA38FC7FEE397B7FE9387C198FD
:1040A8001386019983C607008345570185070507CD
:1040B800ED8EA38FD7FEE397C7FEA38401922384D6
:1040C800019223A60192171700200347B7589717A4
:1040D800002083C7275822075D8F9717002083C7C2
:1040E8008757C2075D8F9717002083C7D756E20707
:1040F80013844193D98F1840971400209384C45394
:104108006367F70089C7A6851565EF10E02003C629
:10411800119329CA138701998547A545B386970046
:104128000345070083C6060085070507C98EA30F48
:10413800D7FEE395B7FE9387C1981717002013079A
:10414800A74F9385019983C6070003459700850704
:104158000507C98EA38FD7FEE397B7FE1C408507D6
:1041680023AAF1929717002083C7974E6363F6003E
:1041780095E39717002083C7C74D03C7019363636F
:10418800F70089EB18409717002083C7974C636C9A
:10419800F704B1CB171700201307074A9387019933
:1041A80093858199BA8603C6070003C5D60085079B
:1041B8008506698EA38FC7FEE397B7FE9387C198DC
:1041C8001386019983C607008345570185070507AC
:1041D800ED8EA38FD7FEE317F6FEA38801922388FE
:1041E800019223AA0192171700200347F74897174F
:1041F800002083C7674822075D8F9717002083C771
:10420800C747C2075D8F9717002083C71747E20784
:104218001384C193D98F18409714002093840444C1
:104228006368F70091C7A68513050050EF10C00E0C
:1042380003C6919329CA138701998547A545B38673
:1042480097000345070083C6060085070507C98E42
:10425800A30FD7FEE395B7FE9387C19817170020E1
:104268001307C73F9385019983C607000345970045
:1042780085070507C98EA38FD7FEE397F5FE1C4077
:10428800850723AEF1929717002083C7B73E636373
:10429800F60095E39717002083C7E73D03C781938E
:1042A8006363F70089EB18409717002083C7B73C72
:1042B800636CF704B1CB171700201307273A9387CD
:1042C800019993858199BA8603C6070003C5D6006C
:1042D80085078506698EA38FC7FEE397F5FE93874A
:1042E800C1981386019983C607008345570185073E
:1042F8000507ED8EA38FD7FEE397C7FEA38C019227
:10430800238C019223AE0192171700200347173917
:104318009717002083C7873822075D8F97170020DB
:1043280083C7E737C2075D8F9717002083C73737E2
:10433800E20713844194D98F18409714002093847E
:1043480024346367F70089C7A6851965EF00D07C18
:1043580003C7119411CB83C731978507A389F196B9
:104368001C40850723A2F1949717002083C7D732F2
:104378006363F70095E39717002083C7073203C7E5
:1043880001946363F70089EB18409717002083C7EF
:10439800D7306362F706A5C383C7319781C7FD1776
:1043A800A389F196171700201307872D9387019982
:1043B80093858199BA8603C6070003C5D600850789
:1043C8008506698EA38FC7FEE397F5FE9387C1988C
:1043D8001386019983C6070083455701850705079A
:1043E800ED8EA38FD7FEE317F6FEA38001942380FA
:1043F800019423A20194171700200347772C9717DD
:10440800002083C7E72B22075D8F9717002083C7FB
:10441800472BC2075D8F9717002083C7972AE207AB
:104428001384C194D98F18401719002013098927BC
:104438006367F70089C7CA851D65EF00F06D03C77C
:10444800919401CF9387419783C707008507238AF3
:10445800F1961C40850723A6F1949717002083C77F
:10446800F7256363F70095E39717002083C727258F
:1044780003C781946363F70089EB184097170020FE
:1044880083C7F7236362F706A5C383C7419781C72C
:10449800FD17238AF196171700201307A720938783
:1044A800019993858199BA8603C6070003C5D6008A
:1044B80085078506698EA38FC7FEE397F5FE938768
:1044C800C1981386019983C607008345570185075C
:1044D8000507ED8EA38FD7FEE317F6FEA38401949C
:1044E8002384019423A6019403C7319783C7419776
:1044F80063F7E706238A019683C7F185E9C383C773
:104508003197BDC3FD17A389F19613870199854794
:104518002546B38697008345070083C606008507AE
:104528000507CD8EA30FD7FEE395C7FE9387C198E5
:10453800171700201307C7141386019983C60700AD
:104548008345970085070507CD8EA38FD7FEE31710
:10455800F6FEA38F0184238001866FF0CFEAE37D06
:10456800F7F8A389019649BF83C74197EDD7FD178F
:10457800238AF1961387019985472546B386270133
:104588008345070083C6060085070507CD8EA30F60
:10459800D7FEE395C7FE9387C19817170020130726
:1045A80067101386019983C607008345970085071E
:1045B8000507CD8EA38FD7FEE317F6FE59BF171751
:1045C80000201307270E9387019993858199BA864E
:1045D80003C6070003C5D60085078506698EA38F25
:1045E800C7FEE397F5FE9387C1981386019983C6A2
:1045F80007008345570185070507ED8EA38FD7FE72
:10460800E317F6FE8547A38FF184B1B7411106C6BB
:1046180083C66197854703C701966395F60019E33A
:10462800238B019683C7519785466399D70019E76D
:10463800A38A0196238CF198EF00300403C70196F2
:104648009717002083C7B70D6397E7008547A38AAC
:10465800F1962381F19683C78199A9C7EF00B01C11
:104668008547238BF19603C7019683C71196B98FA7
:1046780093F7F70389CB83C6019885476395F600BE
:1046880091472391F198171600200346060985459E
:1046980003C5D185A380E196EF106027B24001459C
:1046A80041018280938751979386619783C707005A
:1046B80083C60600D58FC5FB83C711962381019653
:1046C8001376470093F6470045CA91E683C691954D
:1046D8008506A38CD1941376870093F6870045C688
:1046E80091E683C611928506A380D19213760701BD
:1046F80093F6070145C291E683C611958506A388FE
:10470800D1941376170093F6170041CE91E683C62D
:1047180091928506A384D1921376270093F62700F9
:1047280041CA91E683C611938506A388D192137670
:10473800070293F6070241C691E683C69193850660
:10474800A38CD19213168701937607046186C5C698
:1047580093F50704639F050A6341060A83C711940A
:104768008507A380F19403C701988547E31DF7EEF9
:104778008D472391F198C5BDB9DE83C6819585061D
:10478800238CD19489BFBDD283C60192850623802C
:10479800D192A9BFBDD683C6019585062388D19439
:1047A8008DB7BDDA83C6819285062384D192ADB7D1
:1047B800BDDE83C6019385062388D1928DBFD9D2E9
:1047C80083C681938506238CD192ADBFE38D06E81D
:1047D800B98F13F7070411C703C70194050723808E
:1047E800E194E207E187E3D007E883C7819485076E
:1047F8002384F1948DBDE35D06FC139687016186E1
:10480800E34606FCF1F683C791948507A384F194E7
:1048180099BFE35A06E4D5B7196501118545130513
:10482800052006CE22CC26CA4AC84EC652C4EFD0AE
:10483800AF94854537F54000EFD06F9E17F5FFFF21
:104848001305C516EF100047138AC1852300AA0077
:1048580017F5FFFF1305E507EF10C0459389B185EC
:104868002380A90017050000130585DAEF1080449E
:104878001389D1852300A90017F5FFFF13052537F4
:10488800EF10404317140020130484E89384E18553
:104898002380A4000346740003450A008545EF10F1
:1048A80000070346840003C509008545EF1020066C
:1048B8000346A400034509008545EF10400503465B
:1048C800B400624403C50400F240D2444249B249EC
:1048D800224A854505616F108003A38C0194A3804B
:1048E8000192A3880194A3840192A3880192A38CC6
:1048F8000192A3800194A3840194238C01942380C2
:104908000192238801942384019223880192238CA5
:104918000192238001942384019423AE019423A25D
:10492800019223AA019423A6019223AA019223AEFD
:10493800019223A2019423A60194A3890196238AB4
:1049480001968547A38FF1842380F186828083C7EF
:10495800318699EFA38E0196A38C0196238E01963A
:10496800238D0196A38D0196238C019601458280A3
:1049780003C5D19741119307F5FF06C693F7F70FC3
:104988001307D00F6360F702EF90D13297A70100A9
:10499800938747459043D443EF908105EF90D12BFF
:1049A800A38EA19603C591979307F5FF93F7F70F89
:1049B8001307D00F6360F702EF90D12F97A701007C
:1049C800938747429043D443EF908102EF90D128D8
:1049D800A38CA19603C5C1979307F5FF93F7F70F2B
:1049E8001307D00F6360F702EF90D12C97A701004F
:1049F8009387473F9043D443EF80917FEF90D12531
:104A0800238EA19603C5A1979307F5FF93F7F70F98
:104A18001307D00F6360F702EF90D12997A7010021
:104A28009387473C9043D443EF80917CEF90D12209
:104A3800238DA19603C5B1979307F5FF93F7F70F59
:104A48001307D00F6360F702EF90D12697A70100F4
:104A5800938747399043D443EF809179EF90D11FE2
:104A6800A38DA19603C581979307F5FF93F7F70FD9
:104A78001307D00F6360F702EF90D12397A70100C7
:104A8800938747369043D443EF809176EF90D11CBB
:104A9800238CA19683C7019613F7470025C37D573A
:104AA800A38EE19613F7870025C37D57A38CE19663
:104AB80013F7070125C37D57238EE19613F71700D7
:104AC80025C37D57238DE19613F7270025C37D570E
:104AD800A38DE19603C78199FD5619E703C6E197AF
:104AE80085466315D600F956238CD196B240A38F1C
:104AF800F196238FE19601454101828003C7F19722
:104B0800118B4DD3795769BF03C7F197218B4DD3CB
:104B1800795769BF03C7F197418B4DD3795769BF5F
:104B280003C7F197058B4DD3795769BF03C7F19731
:104B3800098B4DD3795769BF056541118D4513051B
:104B4800058006C622C426C2EFC01FE31716002040
:104B5800130606AA9705002093858571373400400F
:104B6800930700054206C205854641822326F48044
:104B7800C1810545EFC03FF781450145EFC03FF5CD
:104B8800A1472303F48037070002B7E700E023A01A
:104B9800E7108347248017050000130585DB9384FD
:104BA800218693E787002301F480EF10A01023806B
:104BB800A400170500001305C509EF10A00F138402
:104BC80011862300A40003C5040041468545EF0073
:104BD800D067034504002244B240924441468545CB
:104BE80041016F0090662A879D477D533358F640F0
:104BF800137818009308300363130800E94823204A
:104C08001701FD171107E39367FE130705029D4778
:104C1800FD5833D6F540058A1308300311E2694878
:104C280023200701FD171107E39517FF1305050456
:104C38009D47FD5533D7F640058B1306300311E326
:104C4800694610C1FD171105E396B7FE82808547B6
:104C58004111A38BF19606C683C6D1979307F00F2F
:104C6800639CF6169306100C1306600B9305F00F61
:104C7800170500201305C521BD3713060006970543
:104C880000209385E520170500201305653297F06D
:104C9800FF1FE780602983C691979307F00F639001
:104CA800F6149306100C1306600B9305F00F170506
:104CB80000201305E51D053F130600069705002093
:104CC8009385051D170500201305852897F0FF1FFC
:104CD800E780802583C6C1979307F00F6394F61089
:104CE8009306100C1306600B9305F00F17050020B0
:104CF8001305051ACD3D1306000697050020938578
:104D08002519170500201305A51E97F0FF1FE7803A
:104D1800A02183C6A1979307F00F6398F60C93061A
:104D2800100C1306600B9305F00F170500201305F0
:104D38002516553D13060006970500209385451551
:104D4800170500201305C53297F0FF1FE780C01D27
:104D580083C6B1979307F00F639CF6089306100C6F
:104D68001306600B9305F00F170500201305451275
:104D78009D3D1306000697050020938565111705CC
:104D880000201305E53497F0FF1FE780E01983C67C
:104D980081979307F00F6390F6069306100C13069D
:104DA800600B9305F00F170500201305650E253DD0
:104DB800170500201305C5251306000697050020D2
:104DC8009385050D97F0FF1FE7800016B240A38B6F
:104DD80001960145410182803686B68551BD3686E9
:104DE800B685F1B53686B68511B73686B68535BF30
:104DF8003686B68595BF3686B68575B783D721982A
:104E080081C7FD172391F19803D7219883D741983B
:104E180011CF89EBB716004083A7860A93E70740AE
:104E280023A4F60A2392E19801458280E5DFB716AC
:104E3800004083A7C60A93E7074023A6F60ADDB712
:104E480041118D451305004006C6EFC0FFB2371764
:104E580000408327C70A17050000130565FA93E782
:104E680007402326F70AEF00F064B2402382A186A8
:104E78004146854541016F00503D411122C4371418
:104E880000408327840A06C6794593E70740232410
:104E9800F40A97F0FF1FE780C0BE8327C40AB24018
:104EA80093E707402326F40A2244410182804111F6
:104EB8009397050106C622C4C18763D907002164F8
:104EC8002D8C2285B24022444101828093F5F50F52
:104ED8000144E5D9171600200346A683971700203A
:104EE80083C7178322065D8E9717002083C77782B2
:104EF800C207D18F171600200346C68162065D8E51
:104F0800854503C55186EF00902065BF939705013D
:104F1800C18763D5070021652D8D8280858901456C
:104F2800A5CD938781989C43411106C689CB054737
:104F38006382E704170600200346D67D91A0938775
:104F4800018B884321469385019913050504EF9049
:104F5800F1369387418B884311469385C198130591
:104F68000504EF90B1352145EFC0DFC11145EFC011
:104F7800DFC2C9B7EFD07FFF170600200346A67926
:104F8800854503C56186EF009018B24085472380A8
:104F9800F186014541018280828023A401986FD067
:104FA8008FCF4111170500001305A5F006C622C4CE
:104FB80026C24AC0EF001050138951862300A90069
:104FC800170500001305C5F4EF00D04E93846186E1
:104FD800170400201304C4732380A4007D3F0346F4
:104FE8002400834714000345090022065D8E834789
:104FF80034008545C207D18F0346440062065D8EA2
:10500800EF00F01003465400224403C50400B240E8
:1050180092440249854541016F00700F854723A4DA
:10502800F1986FD06FC5411183C7019606C613F773
:1050380027000DCB03C71196098B0DE7938781983D
:105048009C4389CF0547638DE700EFF01F89238CC8
:1050580001982535B240014541018280C137F5B735
:105068002D3FE5B713F7170009C703C71196058B3E
:1050780069DF13F7470001CF03C71196118B01EBC6
:1050880083C7318693B71700A381F1867DBFA18BB3
:10509800F1D383C71196A18BD5FF83C7019893B726
:1050A80017002380F19855B7C1461706002013064C
:1050B800266681452D4517F3FF1F670003B241118E
:1050C80022C4930600102A8401468145254506C658
:1050D80097F0FF1FE78060B022862244B240C146A5
:1050E80081452945410117F3FF1F670003AF930767
:1050F8002002B307F602930620022A862D45BE95A4
:1051080017F3FF1F670063AD5D71A2C4A6C2130445
:105118002002B28433848402CAC04EDE2A89AE8952
:10512800130620028145680086C6EFC08F98680084
:10513800130620029305F00FC52B4E947000A2852C
:1051480093062002294597F0FF1FE78000A94A86A9
:10515800A28593062002294597F0FF1FE780E0A764
:10516800B640264496440649F2596161828001118D
:105178008546700081452D4506CE2306010097F02F
:10518800FF1FE78080A50347C100C1476304F716E6
:10519800170500201305C5571D377000856585461E
:1051A8002D4597F0FF1FE78040A30347C1009307F1
:1051B8002002014685651705002013052553630D58
:1051C800F71299377000896585462D4597F0FF1FBE
:1051D800E780A0A00347C100930720020146896524
:1051E800170500201305C540630AF710313F70000A
:1051F8008D6585462D4597F0FF1FE780009E034784
:10520800C1009307200201468D651705002013058C
:10521800A54B6307F70ECD3D7000916585462D457A
:1052280097F0FF1FE780609B0347C10093072002A8
:1052380001469165170500201305C53D6304F70C69
:10524800E1357000956585462D4597F0FF1FE7808D
:10525800C0980347C10093072002014695651705CA
:1052680000201305653D6301F70A793D7000930539
:10527800005085462D4597F0FF1FE78000960347AD
:10528800C10093072002014693050050170500202E
:105298001305C53C630CF706853D70009965854686
:1052A8002D4597F0FF1FE78040930347C100930700
:1052B800200201469965170500201305653C63091E
:1052C800F704993570009D6585462D4597F0FF1FB9
:1052D800E780A0900347C1009307200201469D651F
:1052E800170500201305053C6306F702313DF2401F
:1052F80005618280553B55B5DD3BE9B5CD3BC5BD64
:10530800FD3319BFED3335BFDD338DB7CD3371B7FD
:10531800F93B4DBFE93BE1BF011126CA4AC806CE99
:1053280022CC03C4150283C70502130920022204F4
:105338005D8C33042403AE84854670002306010087
:105348002A94A2852D4597F0FF1FE780008983479F
:10535800C100639B2701930620022686A2852D455E
:1053680097F0FF1FE7806087F2406244D2444249C9
:105378000561828023AC05FE1C4191E70100010014
:105388000CC18280BA8703A787FF6DFF23ACB7FEE5
:1053980082801DC18346E5FF1307F00F9147639E86
:1053A800E600411106C697F0FF1FE780405CB24057
:1053B80081473E854101828095473E85828001E98B
:1053C800014582800145B240224441018280411159
:1053D80022C42A84210542059305D004418106C6CA
:1053E80097F0FF1FE780004F71DDFD572320050070
:1053F800231285002303F5002105F1B71387C1990E
:105408001C43411122C426C24AC006C601440149B0
:10541800BA8489E7A16595250DC401A803C7E7FFEC
:105428006318A7021DC8A165C1269840832784FF79
:105438006317E40223AEF198FD57232C04FE230FD3
:10544800F4FE2285B24022449244024941018280FE
:1054580011E03E8983A787FF6DBF3E84E5BF232CFB
:10546800F9FED9BFA9C9411122C406C62A849727C3
:10547800002083C777212E856368F400193F0D4506
:10548800B24022444101828083A785FF99E703C780
:10549800E5FF9307F00F6305F700E53D1545CDB728
:1054A800238F85FE1385C199F13522852244B240A8
:1054B800A165410115AE1545828023AE0198828011
:1054C8009387419B9C4399E33E85828003D72700BD
:1054D8006316B70003C70700E308A7FEDC47E5B774
:1054E8004111939705014AC006C622C426C2C18746
:1054F8002E8963DE0700193711C1613D21653345E7
:10550800A900B24022449244024941018280AA86FD
:105518000145E5D901443D47B3578940858B95CB73
:105528009387819A8443BD4791E28147A2978E076A
:105538000545BE9433158500131405019C40C840E9
:105548004180829723A0040023A20400334524014C
:105558004DBF0504E312E4FC0144CDBF97270020AA
:105568009387C70E9C53411122C406C613848186B3
:1055780095C7829723A4A1860840B747030093875D
:10558800D73F3305F502B7A72600938737ECB2401B
:1055980022443E9523A4A1864101828097270020BA
:1055A8009387870E18409C4BBA9723A4F186E9B7D6
:1055B8009387019A90439726002083C6F60C81476B
:1055C80013F7F70F6360D70A172700200347F71F61
:1055D800914763E0E70A9727002083C7A723918BA9
:1055E800C9EB0111680006CE22CC26CAEFC0002EF6
:1055F800FD56630FD50C32479727002083C737061F
:1056080063F3E70C172700201307070840471727FD
:1056180000200347E7046305D406058B21CF5147D3
:105628003304E40263F1870A97F0FF1FE780E0B4D0
:10563800B2476373F400A287172700200347370295
:10564800998F3E95972700209387470083874701C6
:1056580063CD0702B707C0A86369F502B7074057CB
:105668003E9525A085071397170032970357E7FF44
:1056780021DB8280130790023304E40205805DB7C2
:1056880062076187635707001D8D19E93705C0A8B0
:1056980001A8E37BF5FE3707C0A8B307F7403E959E
:1056A80097270020938787FADC53829709ED97277D
:1056B8000020938727119C4F99C7EF10E101EF1045
:1056C800615AEF00D175F2406244D244056182808C
:1056D80097270020938747FBDC47E386A7FE172719
:1056E80000201307A7F683464701BA84858A9DC61A
:1056F8005144338487029727002083C757F6E3F481
:1057080087FC97F0FF1FE78040A79727002083C7F3
:1057180017F51D8C2295838744011DBF1304900241
:10572800338487020580C1BF2A9609E58280050572
:10573800A30FB5FEE31DC5FED5BF81473307F500AE
:105748000307070019E33E8582808507C5BF01115D
:105758002E8626CAAA84131506019305F0044181F2
:1057680022CC06CE32C697F0FF1FE780A0162A8407
:1057780019C53246A68597E0FF1FE780E07A2285A3
:10578800F2406244D2440561828081476314F60086
:10579800054582803307F5008507B386F500034782
:1057A800070083C6F6FFE383E6FE01458280930780
:1057B800F6FFBE952A966313C5008280FD1583C740
:1057C80015000505A30FF5FEFDB7814711E9014551
:1057D80082803307F50003470700E31AB7FE850701
:1057E800E319F6FE054582809727002083C7D7E98D
:1057F800637FF5001387019A9317150008433E95B8
:1058080083570500DD8D2310B500014582800D45C5
:105818008280FD57011117270020232DF7E6938773
:10582800419B22CC80434EC697290020938909E2E8
:1058380026CA4AC852C456C206CE5AC02A898144CA
:105848004E8A972A0020938A2AE418448147637471
:10585800E900B307274103A749021CC409CB03A7E2
:10586800CA0063F6E700172700202325F7E2A1E71F
:10587800835524009DE95C44A1E823AAF19A032BEF
:10588800C400228597F0FF1FE780600E5A8455FCFC
:1058980083274A0285CF6244F240D2444249B24942
:1058A800224A924A024B056121B3034504002D3F69
:1058B8005C4081CB1CC483572400D5DFA2844044BC
:1058C800F9B71C44CDDBC5BFDCC455BFF240624408
:1058D800D2444249B249224A924A024B0561828027
:1058E8009727002083C757DA6371F5021387019A57
:1058F80093171500084393C5F5FF3E958357050098
:10590800FD8D2310B500014582800D4582809727C3
:10591800002083C777D76364F50001458280411171
:1059280022C426C24AC006C62A842E89B284EFF051
:105938003FB901C504C505452DA0936504F0C2050E
:10594800C181414597F0FF1FE780C0F80DE1972717
:1059580000209387A7CF9C5B81C7A28511458297BA
:105968000145B24022449244024941018280938712
:10597800419B9C438DE323AAA19A854723260500D2
:1059880004C52311250123008500A300F500232267
:10599800050055B7BA87D84775FFC8C7F9BF45C5C9
:1059A80039715AD0138B819A22DC26DA4AD84ED61E
:1059B80052D45ECE66CA6AC86EC606DE56D262CCBD
:1059C8003689328AAE89AA8401445A8DB94D854BED
:1059D800F94C03270B00131C3400937AF40F6297D9
:1059E8001C43A9EF13B5FA0013451500B3978B00B4
:1059F80063F65D01930714FFB397FB0093950701C6
:105A0800C181528629371DC983270D000145E297B8
:105A180084C323A237016304090023005901F2500B
:105A28006254D2544259B259225A925A025BF24BEA
:105A3800624CD24C424DB24D216182800504E31A7A
:105A480094F92145E9BF09458280411122C426C243
:105A58004AC006C6AA842E893284553DCA85268541
:105A6800EFF01FA609C940C10145B2402244924443
:105A78000249410182802145CDBF411122C426C27D
:105A88004AC006C6AA842E89EFF09FA32A8419C1AA
:105A9800231105009727002083C707BF6394970049
:105AA8002396219BCA852685253D014511E0194588
:105AB800B240224492440249410182807547636B97
:105AC800A7041387819A1443411126C29314350001
