:040000006F10001D60
:1000040000000000000000006F0080086F00E02284
:1000140000000000000000000000000000000000DC
:1000240000000000000000000000000000000000CC
:100034006F004006000000006F00E00500000000B3
:100044006F0080056F0060056F0040056F0020059C
:100054006F0000056F00E0046F00402700000000FF
:100064006F0060046F0040046F0020046F00000400
:100074006F00E0236F00C003000000006F00600306
:100084006F0040036F0020036F0000036F00E00265
:1000940001A001A001A001A001A001A001A001A054
:1000A40001A001A001A001A001A001A001A001A044
:1000B40001A001A001A001A001A001A0B717004068
:1000C400130770052380E704130780FA2380E704ED
:1000D4002396A70223800704371700408347270588
:1000E400898BEDDF835707053717004083472705C2
:1000F400898BEDFF3717004083472705898BEDDF98
:10010400035507058280B7170040930670052380C6
:10011400D704130780FA2380E70403C6B7041376D1
:10012400F60DA385C70423800704137605022DC6A4
:1001340003C6A700118A0DE22380D7042380E704B5
:1001440003C7A700136747002385E7009307004B05
:1001540001000100FD17EDFFB7170040930670057D
:100164002380D704130780FA2380E7047D8923942E
:10017400A70001000100010001002380070423807F
:10018400D7042380E7049306100537270040A30310
:10019400D780238007048280137605046DDE03C6AE
:1001A400A700418A0DE22380D7042380E70403C714
:1001B400A700136707012385E7009307007D01006B
:1001C4000100FD17EDFFB71700409306700523806B
:1001D400D704130780FA7D892380E7041365050497
:1001E4002394A700010001000100010023800704FB
:1001F4002380D7042380E704930630053727004083
:1002040079B74111814601468145114506C65922F7
:10021400B7170040130770052380E704130780FA1B
:100224002380E70403C76704136717002383E704E5
:1002340023800704B2404101828081460146814502
:100244001145892AB7170040930670052380D70407
:10025400130780FA2380E7047D562396C702238080
:10026400D7042380E70403C76704136717002383B5
:10027400E7042380070401A0BD473305F50201000C
:100284007D1575FD8280411122C426C206C6AA844A
:10029400014463179400B240224492444101828095
:1002A40005041305803E4204C13F4180DDB7B71702
:1002B4000040130700032388E702854723A6F19033
:1002C40073002030411106C69929FDBF97F0FFDF66
:1002D400E780A063730020302303048015472303C1
:1002E400E48001002302A480828083076480E3CE3B
:1002F40007FE23030480828083076480E3CE07FE25
:1003040003454480828083076480E3CE07FE230292
:10031400A4808280411126C44AC24EC006C6137707
:10032400F50BAD47AA892E8995446306F700194554
:100334006537653F8D444E854537FD59FD146398F7
:100344003401B240A24412498249410182801355CA
:1003540009011375F50F453F2209CDB7011126CCCC
:1003640006CEB704080051371545BD3771376937D4
:100374002AC6A53F32459377150089EB136515000E
:100384001375F50FF240E24405618280FD14E9FC27
:100394000145CDBF397126DC4ADA4ED852D656D43F
:1003A4005AD25ED006DE62CE66CCB7E700E07D5757
:1003B40083AA070022C603AA470023A0E71823A2A2
:1003C400E718B7170040130770052380E7041307E5
:1003D40080FA2380E70483C74704930B75FFB68430
:1003E400E20793FBFB0F8546AA892E8B32893724BB
:1003F4000040E187015763FA76016308D500894616
:10040400130700026313D5000157D98F93F7F70F31
:10041400B71C00402382FC0411472303E480130526
:10042400F00F5D3D094CD13563697C11B7070700B6
:100434003E9B378707007955637EEB02B3079B0029
:10044400636AF702A9476399F90689E48144713D17
:1004540026850DA0DA850945753D05090345F9FF93
:10046400FD14050B4D3581C49377FB0FFDF7FD3566
:1004740069FD7D55B7170040130770052380E70415
:10048400130780FA2380E70403C74704418B2382C0
:10049400E704F250B7E700E023A0571123A2471165
:1004A400E25432445259C259325AA25A125B825B04
:1004B400724CE24C21618280A5476395F9068569F7
:1004C4001309F00FB3069900B3742B01B6941349C2
:1004D400F9FFB3749900856B33796901416B938794
:1004E400F9FFB3F7270199E363FC340193D9490079
:1004F400C147E3E637FF99BF0569C1697D19D9B7DB
:100504001305800D63886901130500026384790172
:1005140013051008CA85FD3B913521DD4E99B3843E
:100524003441D9B7DA852D45F533CA94E30099F2FD
:100534000509D933A30FA9FED5BF9387F9FF93F714
:10054400F70F636CFC0803C75C04B7070800137754
:10055400070219E3B78707007955E37DFBF03307FA
:100564009B00E3E9E7F089476390F9048980D54962
:10057400E38E04ECDA850945713B11090327C9FFB1
:1005840091472320E48003076480E34E07FE23039E
:100594003481FD17EDFBFD14110B81C49377FB0F20
:1005A400E9FF6D3B71F5F1B58547E387F9F4DA8529
:1005B4002D458D339389F4FFE38A04E8353B93F7A3
:1005C400390091EB8326048003270900930749002F
:1005D400E39FE6E63E89CE84F1BFB5476396F90012
:1005E4001305900BD5399DB5B1471305B00AE38BBC
:1005F400F9FE9947639EF902DA852D45213B814432
:100604008D4BA149D5396396740183270480232037
:10061400F9008504E39834FF8327048013172B0122
:10062400635507002312F90015B52322F90039BDDB
:100634009D476399F90281451305B004E139BD442E
:100644002320090023220900FD597D3193F774000A
:10065400CA9703C70700FD14398D2380A700E396CA
:1006640034FFEDB3A1476392F904CD398144630D9E
:100674000B008D479304C0036308FB00930400053B
:1006840063048B01930440041375C507E30095DCF0
:10069400194599319939054581312685AD31094589
:1006A4009D316D39E31405DAE9B391476399F90093
:1006B40013056006153115391305900925B7E3872D
:1006C40009D8F15469B309CDB71700401307700571
:1006D4002380E704130780FA2380E7042396A70204
:1006E400828019C1814799E982803387F500834666
:1006F40007003307F50085072300D700E397C7FEFB
:10070400E5B719C1FD5781E98280910503A7C5FFAB
:100714001105232EE5FE7D16E319F6FEF5B7797172
:1007240022D4173400001304A4FC1C4006D626D29D
:100734004AD04ECE91C782979737000023AA07FA72
:100744005C4089CB03D50199BD3F5C40829703D5BA
:100754002199953F1C40639907189737000083C778
:10076400F70A858B95C797370000A381070A1737C7
:1007740000000347D709914763FCE7004D2B9737E7
:10078400000083C7D708F9178A07A2979C4382976A
:100794009737000083C7470C918B89C7972001E0E6
:1007A400E780C0711C4491C382979387C198984392
:1007B40017360000034696F13E899734000093846F
:1007C400E4F09737000083C767F093961700BA9652
:1007D40083D60600638006109737000083C707EFAF
:1007E40063F2C70886073E97835507002310070066
:1007F40003D501992EC6239C0198F1359387419A1C
:100804009C4317350000034565EC13172500BA9780
:100814009C43B2458297AA8903D521996D359737B0
:10082400000083C7A7EA139717008327090003D59D
:1008340081991345F5FFBA9703D70700337535013E
:10084400598D2390A70083C70400850793F7F70FFA
:1008540017370000230CF7E617370000034717E7A4
:1008640063E6E70097370000238207E61C40ADEFFC
:100874009387C19998433E8425CB9737000083C75B
:1008840057F991CB9737000083C777F889E797200A
:1008940001E0E78060131C4082972A8431C59C489C
:1008A400AA9717370000232BF7E29387019A9C43FA
:1008B40085CF03D50199013D2285971000E0E7809B
:1008C40020022254B25092540259F24903D521997C
:1008D4004561D5BB850793F7F70F9736000023874B
:1008E400F6DEE3E0C7EECDBDB25022549254025975
:1008F400F249456182809167B7C6004093873730DB
:1009040023A6F6200F10000097370000938707DC1A
:10091400884F938741A99C43316713073730F053BD
:10092400B7071000FD17918F99833A0523A6E62097
:100934005D8D82804111B7170040985F3AC6945F7D
:100944003247E39CE6FE324541018280411106C6EE
:10095400D5379736000083C6E6D4858AB1C6930797
:1009640030333307F502B337F5023983CA07D98F19
:1009740017370000130787D5584B01456303F70267
:100984003385E740636BF70037653D0889C63785D3
:100994006F0813050590198D3E9517370000232124
:1009A400F7D4B24041018280E5473307F502B337FB
:1009B400F5022583DE0765BF0327C50F8346B5000F
:1009C40097370000938747E49C4F58439386160259
:1009D40095829043FD1693F6F60F10C3D04350C38F
:1009E400904710C7D04750C7904B10CBD04B50CB3B
:1009F400904F10CFD04F50CF91C613070702938763
:100A04000702C1BF82808347E50193F7E70FF1E74F
:100A14002A870345F50171E10346070183468700F0
:100A240009CA8345A7029737000083C7B7C763E79E
:100A3400F50093F70601C5C7814709C6C18A8357E4
:100A4400071581C603574715BA97D1CB173700004E
:100A5400130707E73847411122C406C67D5483268D
:100A6400070863F386003684184375FB17370000C4
:100A7400034747C393168701E18663D90602938728
:100A8400C713958317370000034767C2BA9763D02B
:100A940006041D8C9387819A9C4382973335A40066
:100AA400B24022441345150041018280058B93878F
:100AB400C71209CB8A079387F7031305D007B3D767
:100AC400A702C9B78607FD071305D003CDBFE3729C
:100AD400F4FC3705C0A82A946DBF0145828082804A
:100AE400411122C4138441A818404AC006C61C5FA1
:100AF40026C2138901A89983858BC1C31C5F9734CF
:100B04000000938464D093F7F7F91CDF9737000053
:100B140083C787CF93F707048DC39387819A9C4338
:100B240082979737000023A9A7CE83C7040093F7C1
:100B3400F70B173700002309F7CC85471737000058
:100B4400A306F7CC83C7440093F7070481EF938788
:100B540041A99C43D844B8D3930700FC173700003D
:100B64002306F7CA8387640063D907008327090033
:100B74009C4317370000230CF7C818401C5F85837B
:100B8400858BC9CBF5571CDF010001000100010072
:100B94000100010001000100010001000100010049
:100BA4000100010001000100010001000100010039
:100BB4000100010001000100010001000100010029
:100BC4000100010001000100010001000100010019
:100BD4000100010001000100010001000100010009
:100BE40001000100010001000100010001000100F9
:100BF40001000100010001000100010001000100E9
:100C04000100010001000100938741A99C431307DF
:100C14005004B8CB18401C5F9183858B89CFBD5796
:100C24001CDF938741A99C4323A8070485471737F2
:100C34000000230DF7BC83270900D8430583058BE7
:100C440019C7D843759BD8C3D843799BD8C3B2403E
:100C540022449244024941018280397106DE16DC45
:100C64001ADA1ED82AD62ED432D236D03ACE3ECC78
:100C740042CA46C872C676C47AC27EC09535F2505E
:100C8400E2525253C2533255A255125682567247FB
:100C9400E2475248C248324EA24E124F824F21615F
:100CA40073002030938741A994431737000013073A
:100CB400A7B5BC5289CF83472700858B89EB83472F
:100CC4003700858BFDD797370000238107B48280D6
:100CD400938701A99C4399CB944BD04B9842518F55
:100CE40098C294439C479842D98F9CC2938741A948
:100CF4009C4337C700401306C003A8CB93062003C8
:100D040097350000938545B083278720C18393F7E7
:100D1400F7036369F60083278720C18393F7F703FA
:100D240063E6F60083C74500858BF9DF82809387ED
:100D340041A9944317370000130707ADBC5289CB70
:100D440083470700858B91CB97370000238007AC3E
:100D540097370000A38C07AA828083471700858BEE
:100D6400F1DFDDB7938701A99C4399CB944BD04B1A
:100D74009842518F98C294439C479842D98F9CC201
:100D8400938741A9944337C70040C145A8CA654623
:100D940083278720C18393F7F70363FBF500832739
:100DA4008720C18393F7F7036364F600BC52EDF325
:100DB4008280138741A81843AA87185F1583058B7F
:100DC40025EF0345150015051377C51F19C6B3860E
:100DD400E70083C626002300D60095C59736000099
:100DE40083C6E6A293F606040945A1CAB386E700C2
:100DF40083C63600054693F5F6066390C504E206FD
:100E0400E18663CC06023385E70083471500034778
:100E14000500A20793F70770D98F13970701418341
:100E24009376074099C6136707802396E1A8014586
:100E340082802396F1A8E5BF05458280938641A967
:100E44008C423685973600009386069C9845931706
:100E54000701C183137817203E86630408041377BF
:100E6400072079C303C7260013671700173800004B
:100E7400230DE89813070019B8D1130700F8973524
:100E840000002385E598138741A80C433708001018
:100E9400D855719B13672700D8D59841336707014C
:100EA40098C11377261005C31376061059CE03C7CD
:100EB400060013671700173600002307E694173758
:100EC40000002317079483C6460093C7F7FFC207A1
:100ED400E206E186C183184163D1060293961701A5
:100EE40063DE060630538D4663E9C6008546173631
:100EF4000000230DD6903453FDFE97260000938600
:100F040026798386460163DD060093960701C18630
:100F140063DC06047053894663E4C6007453FDFE23
:100F24001447F58F1CC7828003C716001367170088
:100F340097350000A38AE58C173700002308078C37
:100F4400173700002316078CA9BF03C736001367A1
:100F5400170017360000A30AE68A95B785461736A8
:100F640000002305D68A51BF5447139606016351E6
:100F74000602B7061000FD1674D397260000938668
:100F8400E674944E850617260000232DD67449BFB7
:100F9400A166D58F71B7397106DE16DC1ADA1ED850
:100FA4002AD62ED432D236D03ACE3ECC42CA46C805
:100FB40072C676C47AC27EC05135F250E2525253A0
:100FC400C2533255A255125682567247E2475248CE
:100FD400C248324EA24E124F824F2161730020301C
:100FE40017370000130707848346B70197370000BB
:100FF40083C79786B69793F7F70FFD4663EAF6041F
:101004004C4B97360000A38FF6809737000083C7B8
:10101400778105473317F70097360000A38EF682D1
:101024006D8F1DEF9736000083C65683B3F6D70243
:1010340013050002814733D6F500058A13F8F70F2C
:1010440009CE6399E60097270000A38D077D82806F
:1010540081177DB705071377F70F8507E39DA7FC75
:101064008280938701AA9843B75702009387279FEA
:10107400832607091396560063580600832607093A
:101084001396660063440600FD17FDF3828051C980
:10109400AA870145C9C98D07C207C183F19BC2074D
:1010A400C18313074003636BF702138701B308433B
:1010B400138781B214436396A6021727000013070F
:1010C400275D185B014525C34111C20706C60545C6
:1010D400DD8D0297B2400145410182801387C1B280
:1010E400F9B70357650005EF035745006369F70235
:1010F400B306F74021466370D602104193868700F9
:101104001D8FAA96611790C22392E60023930600CE
:1011140014C12312F5002313B50021058280084170
:1011240059BF01458280828001CD938701B303A812
:101134000700938781B28C430147C28763E3B700FA
:1011440082809443636FF50663EDA60613868700D9
:10115400E368C5FE03D56700216605066317C5006D
:1011640003C6C1A30506238EC1A22393070063848B
:1011740007031386C1B21042630FF60003566700DB
:1011840019EA83D7470014C383564700B697A107CB
:101194002312F700BA879843E304B7FA9386C1B2DF
:1011A4009442E30FD7F883566700D9FA83D64700F1
:1011B400035647001843A106B2962392D70098C35A
:0811C40082803E87B6879DBFC3
:1011D000974100209381816A17710020130181E2F9
:1011E00013054000972500209385C5611736002020
:1011F0001306C67D63FAC5008322050023A05500AF
:1012000011059105E3EAC5FE17D501001305054652
:10121000973500209385857B1386818A63FAC50004
:101220008322050023A0550011059105E3EAC5FEC0
:101230001385818A97650020938545F36377B50010
:10124000232005001105E36DB5FE9302800873A00D
:101250000230972200209382E25A93E212007390A8
:10126000523097220000938222A5739012347300AB
:1012700020303D432A876373C3029377F700BDEFA5
:10128000ADE5937606FF3D8ABA960CC34CC30CC7F6
:101290004CC74107E36BD7FE11E28280B306C3401F
:1012A0008A069702000096966780A6002307B7007B
:1012B000A306B7002306B700A305B7002305B700B0
:1012C000A304B7002304B700A303B7002303B700A8
:1012D000A302B7002302B700A301B7002301B700A0
:1012E000A300B7002300B700828093F5F50F939613
:1012F0008500D58D93960501D58D61B7939627000E
:101300009702000096968682E78086FA9680C1173B
:101310001D8F3E96E374C3F8A5B7B717004003C707
:1013200077051377E70FA38BE704130700F8A38D66
:10133000E7043D47238CE70413075003A38CE7041D
:101340008280B717004003D587005D715ED64205E5
:10135000418186C6A2C4A6C2CAC04EDE52DC56DA9D
:101360005AD862D466D26AD06ECE9377050C130732
:101370000008814B6388E71813070004639CE71497
:10138000B7240D8F7D8993840480B3D4A402916720
:10139000938707E8BE94A167938707D0B3D4F4027C
:1013A000EFC0813C97D701009387C7A89043D443EF
:1013B000EFB05170EFC0C17D2A8B939C040103D91B
:1013C000818A93DC0C016315090005691309098002
:1013D000B7170040130770052380E704130780FA4E
:1013E0002380E704371A00400547939D0401096CE8
:1013F00085662389E704D14A814E8145130D0A048D
:1014000013087005130680FA894893DD0D01130C4B
:101410000C712943FD1623000D012300CD00231676
:101420002A0323000D0083472A05898BEDDF8357AC
:101430000A0583472A05898BEDFF83472A05898B97
:10144000EDDF83570A052394218BC207C1833385BF
:1014500097419319050193D909416384091633878C
:10146000B902635E070C850EC20E93DE0E0163E8BF
:10147000D80D63D9050A3305B04093150501C18520
:10148000C204C18063D7350B096513050571338527
:10149000A502B7170040130770052380E704130760
:1014A00080FA2380E70423967703238007043345DB
:1014B000950242054181B640264496440649F259B8
:1014C000625AD25A425BB25B225C925C025DF24D80
:1014D00061618280B1E3B77489097D899384048056
:1014E000B3C4A4029167938707E8BE94A16793876A
:1014F00007D0B3C4F402EFC0212797D70100938728
:10150000E7936DB597D7010093874792856403AB46
:1015100007009384843855B5130B0000954471BDC2
:101520003A89D5BDB387FC409399070193D9094106
:1015300081BF0965130505713385A9028DBF338508
:10154000B74163E4FC003385FD4033058503334434
:10155000B5036345830013150401A9BF4E8536C644
:1015600042C432C2EFC06156DA85EFC0E126EFC057
:10157000A14F931E050193DE0E41B307D941C20767
:10158000C183056E3E871246224889482943B246E8
:1015900063E3C701368742074183631A27011307B4
:1015A0001900634430011307F9FF42074183FD1A14
:1015B00093FAFA0FCA8BCE85E3940AF62394E18A54
:1015C00059BF0145CDBDB717004003D587005D71F8
:1015D00086C642054181A2C4A6C2CAC04EDE52DC04
:1015E00056DA5AD85ED662D466D26AD06ECE02C6B9
:1015F0009377050C13070008638BE71413070004A7
:10160000639FE710B7240D8F7D8993840480B3D442
:10161000A4029167938707E8BE94A167938707D0D8
:10162000B3D4F402EFC0411497D7010093878780A9
:101630009043D443EFB01148EFC081552A89939A63
:10164000040103DBA18A93DA0A0163150B00056B21
:10165000130B0B80B7170040130770052380E704B6
:10166000130780FA2380E704939B040105478969E7
:10167000056A2389E704D14D014D814C93DB0B01B1
:10168000938909717D1A5A8597200020E7804023AD
:10169000330C5541420C135C0C412395618B630163
:1016A0000C16B3079C0363D1070E050D420D135DA5
:1016B0000D01894763EAA70D63DB0C0A33059041EE
:1016C000931C050193DC0C41C204C18063D88C0BD0
:1016D0000965130505713385AC02B7170040130780
:1016E00070052380E704130780FA2380E70432475C
:1016F0002396E70223800704334595024205418182
:10170000B640264496440649F259625AD25A425B80
:10171000B25B225C925C025DF24D61618280B1E35A
:10172000B77489097D8993840480B3C4A402916746
:10173000938707E8BE94A167938707D0B3C4F402E8
:10174000EFC0810297C701009387476FD5B597C750
:1017500001009387A76D856403A9070093848438EB
:10176000F9BD130900009544D9BD3E8B29BF3385CF
:10177000AA40131C0501135C0C41B9B70965130598
:1017800005713305AC028DBF63FEAA0033057541B8
:1017900033053503A9473344750363C88700131520
:1017A0000401B1BF3385AB40E5B76285EFC0E131DD
:1017B000CA85EFC06102EFC0212B131D0501135D27
:1017C0000D413307AB41420741838565BA876363A7
:1017D000B700D287C207C183639A670193071B00D2
:1017E000634480019307FBFFC207C183FD1D93FD86
:1017F000FD0F5AC6E28CE39A0DF62395F18A45B7A0
:101800000145FDBD41112A83014E930E407E130F09
:101810000019930F400663EB6E0A93080019130337
:101820004006B3781503854E0D4FA14F3373650203
:101830000D891335150063E5BE0C1308F6FF7946D4
:1018400072984208135808013307C70213D61700CD
:10185000BE0732976146B3F6C60213068070B386A0
:10186000C6023697A166F58F42075D8FB717004015
:1018700083C6F70293F60608A307D1000346F100DA
:1018800083C6F70293F60608E394C6FE8346F1008A
:1018900093F6F60FF1DE930670052380D7049306C6
:1018A00080FA2380D70423AA070383C6170393E68D
:1018B0000608A388D702D8DB03C7170313670704FA
:1018C000A388E70223800704410182807D133368E7
:1018D000E3039308E016630E08003368F3039308EC
:1018E000D016630808009378330093B818009388E3
:1018F000D81633081E01131E0801135E0E0121BF06
:101900006393E50305486386080001486303030009
:101910002A8871087298FD15131E0801C205135E0E
:101920000E01C18109BF13F8150063F4BF007908E7
:10193000D5B713381800E5BF914763EEB70217C754
:101940000100130727508A05BA959C41BA978287F0
:10195000B717004003A7470B1345F5FF698F23AA6C
:10196000E70A03A7070B698F23A8E70A03A7070A5B
:10197000798D23A0A70A8280B717004083A6470B62
:101980001347F5FFF98E23AAD70A83A6070B558DB7
:1019900023A8A70A83A6070A758F23A0E70A8280D7
:1019A000B717004003A7470B498F23AAE70A03A7ED
:1019B000070B1345F5FF45BFB717004083A6470B3C
:1019C0001347F5FF758F23AAE70A03A7070A598D66
:1019D0004DB7B717004003A7470B498FEDB79147A5
:1019E00063EEB70217C70100130707478A05BA95C8
:1019F0009C41BA978287B717004003A7470D13454C
:101A0000F5FF698F23AAE70C03A7070D698F23A8A9
:101A1000E70C03A7070C798D23A0A70C8280B717CA
:101A2000004083A6470D1347F5FFF98E23AAD70C74
:101A300083A6070D558D23A8A70C83A6070C758FC9
:101A400023A0E70C8280B717004003A7470D498FFA
:101A500023AAE70C03A7070D1345F5FF45BFB717EA
:101A6000004083A6470D1347F5FF758F23AAE70CA7
:101A700003A7070C598D4DB7B717004003A7470DB3
:101A8000498FEDB7B7F700E0C8439C478280B7871E
:101A90000040238007001307C0FC2386E700A386CD
:101AA000E70003D7C18A2398E70003D7018B239A65
:101AB000E70003D7418B239CE70003D7818B239E4C
:101AC000E70089462381D70249472383E70223851C
:101AD000E7022387E7022389D702A38107001307C0
:101AE00090022380E700B716004003D7A6011367D2
:101AF000070C239DE6007D572383E700130710F8AA
:101B0000A380E7001D472381E7008280B78700405C
:101B10002382A70203C767021377C70F2383E70255
:101B20008280B78700402384A70203C7A7021377E8
:101B3000C70F2385E7028280B78700402386A7026C
:101B400003C7E7021377C70F2387E70282809387D3
:101B5000818C9C43411106C691C382979387C18CA7
:101B60009C4391C38297173700200357475193072F
:101B7000001963F7E70403D541809306F01863E486
:101B8000A6049386418C03A3060063070300B240BA
:101B900013050019410102830507098F3385A7400A
:101BA000E5473305F5024207418309839307F7FFB1
:101BB0003E953345E5021375F50FB2404101828031
:101BC00013054006DDBF0145CDBF03A84500411107
:101BD00026C206C622C48347180003480800A94449
:101BE000A207B3E70701C2070D68C1871308289051
:101BF0006396070385473284EF70D020AA8419EDDD
:101C00009387018C9C4399CB034514000347040040
:101C10002205598D1335150005058297B2402244DF
:101C200026859244410182802D452DEFD8414111F6
:101C300022C426C206C68347170003470700B6849E
:101C4000A207D98F0D67930697A13284639CD702B0
:101C5000FD3D9737002083C767426376F5009737CD
:101C60000020238DA74085472390F400973700205C
:101C700083C7C7402300F4000145B2402244924488
:101C800041018280130787902945E398E7FECC4500
:101C900089472390F4000946228597200020E78099
:101CA0008024D9BF828083474500858BBDC7011141
:101CB00022CC2A8403552500938541B406CEEF70CB
:101CC000300F058939C50355240001478146054673
:101CD000ED45EF7020482AC60DCD97370020938739
:101CE000E7CE83D7A70201462C002314F1008547D5
:101CF0002315F1009737002083C747382300F500EC
:101D000003552400EF80A06609C5ED452800EF705B
:101D1000405CF240624405618280828041654111ED
:101D2000938541B47D1506C6EF908055B240973635
:101D300000209386A6CE4146954517350020130511
:101D4000E5C841016F90004823A0A18C8280411119
:101D500022C406C6854709446313F502834706007B
:101D60000144238EF18A1737002003472731637817
:101D7000F70017050000130545F3EFB0E07F22855B
:101D8000B24022444101828085476303F50209C9BC
:101D900009476304E5020D476308E50209458280AF
:101DA0009737002083C7872D2380F5000145828067
:101DB0009387C18B83C70700C5BF9737002083D7A0
:101DC00087C12390F500DDB7138781800357070093
:101DD0002392E50017370020130747BF8356A70259
:101DE0000357A7032383F5002390D5002391E50033
:101DF00075BF411106C6A13B9737002083C707284E
:101E0000637CF50097370020238AA726170500007A
:101E10001305A5E9EFB04076B2400145410182804B
:101E200041677917630CE502411122C406C6854754
:101E30002A84639AF50022852244B240938541B4F6
:101E400041016F90E04389476396F5008545EFB007
:101E5000206D75D1B2402244410182808280CC4104
:101E6000411106C6328503C6150083C5050022064A
:101E70004D8E42068D654186138875A2630C060F50
:101E80006348C804138845A26306060B634AC8006A
:101E9000938535A26309B60623900600294679A0EA
:101EA000138855A26308060B938565A2E316B6FE58
:101EB000C1451D4663ECE5064546198E63F3C70030
:101EC0003E862390C60097C50100938525FB89A80F
:101ED000138895A26300060F634E060B1388A5A214
:101EE000630A060F938505A5E318B6FA99451D46C2
:101EF00063EEE502198E63F3C7003E862390C600A9
:101F00009385018131A89D451D4663E1E502214687
:101F1000198E63F3C7003E862390C6009385018D1A
:101F2000BA9597200020E78000FC0146B240328538
:101F300041018280AD451D46E3EAE5FE3146198E3A
:101F400063F3C7003E862390C60097C501009385C2
:101F5000A5F6F9B7B1451D46E3EAE5FC3546198E0D
:101F600063F3C7003E862390C60097C501009385A2
:101F7000A5F57DB7C1451D46E3EAE5FA4546198E4C
:101F800063F3C7003E862390C60097C50100938582
:101F900025F079B7C1451D46E3EAE5F84546198EB7
:101FA00063F3C7003E862390C60097C50100938562
:101FB000A5F2BDB7C1451D46E3EAE5F64546198ED3
:101FC00063F3C7003E862390C60097C50100938542
:101FD00065EDB9B7B5451D46E3EAE5F43946198E16
:101FE00063F3C7003E862390C60097C50100938522
:101FF000E5E73DB797360020938606B64146CD45C6
:1020000017350020130545A26F90C01B8280828087
:102010009387C18E9C4303C7018E83C6B18201E7BB
:1020200081473E85828003D607006316A60003C65B
:102030006700E308D6FE7D171377F70FA107C5B732
:102040008547631AF5001166130686A9894503C5FD
:10205000118E6F30601889476317F500894503C5F5
:10206000118E6F30202E828085476398F50019E22B
:10207000238DB18C2388C18E828009476399E50046
:1020800019E6238DF18C03D5818D6F00B007828016
:102090009387418E9C43011122CC06CE2E8481CBA6
:1020A0009C4791C78297F2406244056182806C0030
:1020B00013057040EF70817C324681452285EF70B8
:1020C000313DD5B741119397050122C406C6C1879A
:1020D0002E8463DF070003C5118EEF20D03E19C1A7
:1020E000EF20D0372165218DB2402244410182800A
:1020F00093F7150091CF173600201306A6A69385F7
:10210000C18103C5118EEF80F13613451400E9BF7C
:1021100093F725000145E9DBE9391166130686A925
:10212000894503C5118EEF30200B134524006DBF88
:10213000797126D24ECE06D622D44AD052CC9147BF
:10214000AA84AE896314F50483D7A5001306E100C1
:10215000854513055030239CF18C23070100238D06
:10216000018CEF80115E9387418E9C4391C7DC47C1
:1021700081C7CE8526858297B250225423AE918C9A
:1021800002599254F249624A456182801387C18D97
:102190001843E31AF7FC854503D5818D51318545F8
:1021A00003D5818DEF00C07BC16703DA818DF917FC
:1021B000631DFA0605449305E10013055041238D84
:1021C000018CA385818223070100EF70216B834777
:1021D000E100C1E703C7018F9147E316F7F89305C4
:1021E00000030D45EF40106B930500051145EF40CE
:1021F000706A9305C0030545EF40D069930500055B
:102200001D45EF403069930500052145EF4090687A
:1022100085471306E1008545130550302307F1007B
:10222000EF8031522388018E3DBF9387C18E03A971
:10223000070003C4018E3DDC0355290011C9930535
:10224000E100EF70501B09C54C455285EF904003EB
:102250007D141374F40F2109F9BF9387818E9C4379
:1022600083C74700898BBDD79305000A0D45EF4012
:1022700070629305000A1145EF40D0618145054524
:10228000EF405061930500051D45EF40B060930598
:1022900000052145EF4010601306E1008545130558
:1022A000503023078100EF80D1492DB70111170568
:1022B0000000130565E106CE22CCEF30402C1384DC
:1022C000118E85471306F10085452300A4001305F0
:1022D0004041A307F100EF7011437D55EF60F030EE
:1022E0007D55EF80D0763933153CE5231705000086
:1022F000130545D5913C17050000130585D101252F
:10230000034504008545EF20D05AF2406244056140
:10231000828023A2B18E23A4A18E828023A6B18EB7
:102320002380A18E82809387C18D9843797122D4B6
:1023300006D626D24AD04ECE52CC91474144631F96
:10234000F70083C7A18D414491CB9387C18E804311
:1023500003C7B18283C7018E99EB55442285B250E1
:10236000225492540259F249624A456182800348DC
:102370004400631AA800034854006316B8000348D9
:1023800064006307E800FD1793F7F70F2104E9B72E
:1023900003552400930561003689B284EF70B005BF
:1023A0004DDD4C4503D5818DEF708020058955D5D5
:1023B0009399040193D90901014781464E86ED4561
:1023C00003D5818D035A0400EF60D0582AC64D44CE
:1023D00051D52686CA852314410123153101972042
:1023E0000020E78040B001462C0003D5818DEF70BE
:1023F00010782A8425D5ED452800EF60906DB9BF8F
:10240000011185471306F10085451305503006CEAE
:10241000A307F100EF80F132F240056182809387DB
:10242000C18D9843011106CE91476316F70003D57D
:10243000818DEF8091571306F100854513055030CB
:10244000A3070100EF80F12FF24005618280C841AF
:10245000011122CC06CE3284034615000345050047
:102460002206498E19CB0D681308B8A42D456309BF
:102470000607F2406244056182800D651308D5A409
:1024800063000603130825A2630C06017578130880
:10249000E85C3298420813580801854863EE080347
:1024A00003D5A50036C632C4A536B24615C19387FA
:1024B000418E9C4322468345550003A30700A28713
:1024C0006244F24003454500368785460561028334
:1024D00023900600014571BF1308B5A463170603D6
:1024E00003D641831D45E376C7F8198E63D3C70031
:1024F0003E86CC452390C60042064182BA9522858D
:1025000097200020E780209EF1B79307A5A46318C9
:10251000F60091472390F6001146CC45CDB79307BE
:1025200085906317F60089472390F6000946F5B7B2
:102530009307E5A4631AF600DC452390160183C7D0
:1025400007002300F40079B713057590E314A6F88B
:10255000D9BF011122CC06CE26CA4AC82317D10002
:102560002D4429EBDC412E89B28403C4170083C7B4
:10257000070022045D8C8D679386D7A46306D40080
:10258000938627A3631FD4020355A900513419E190
:1025900001440DA09387418E9C438345550003451C
:1025A000450003A807002286A6871307E10081469D
:1025B00002982A842285F2406244D244424905614D
:1025C00082809386C7A46314D4028357E100054731
:1025D0003544E391E7FE0345060013040008E3EBEE
:1025E000A7FC9387418E9C43DC43829755B7938623
:1025F0002790631AD4028356E1008547EF7080006C
:102600002A844DF99387C18E8356A9009C4303C742
:10261000018E3DDF03D627006302D6047D171377B2
:10262000F70FA107FDB79387E7A4E313F4F68357E9
:10263000E10005473544E39FE7F603450600130430
:102640000008E3E9A7F6DC452380A7009387418EC5
:102650009C433335A0000905DC4341BF1387418EFD
:10266000184303C5470083C5570083C714000328D8
:10267000070003C70400A2078946D98FC207C18794
:1026800005476383E7008D460D66A6871307E100C3
:1026900013062690029839BF411122C441641305E4
:1026A000F4FF938541B706C626C24AC0EF80503D6D
:1026B0001305F4FF938541B5EF80903C1305F4FFBB
:1026C000938541B6972400209384844AEF80503B41
:1026D000972600209386C6674146F9452685EF80F8
:1026E000702ECC4C2A890945EFF00FEA13874184FC
:1026F00083460700938701840347170003C617002A
:10270000138441B883C50700A306E40083D7A40C53
:10271000A30EE40003D7A416A302C400A30AC400B6
:1027200003D6A4132310F400231CE40083D7A40DC4
:102730001387818303D5A4102318C400035707000F
:1027400003D6A4142311F40085472303F4002306C1
:10275000D4002307F4002319C400230ED40023025D
:10276000B4002314A400230AB40023150400230B8F
:102770000400231D0400230F04002312E40203D7E6
:10278000A418938541BB2303F4022310E40203D76A
:10279000A4192307F402231504022311E40213876A
:1027A000C183035707000D452316E40203D7A41C79
:1027B0002314E402EFF04FDDA28521458536B240B7
:1027C00022444A8592440249410182808D671385E3
:1027D00027A36301A6049387D7A40145631EF600CF
:1027E0008947639CF500854735456397F600834725
:1027F0000700A38BF18E014582808D472945E39D1B
:10280000F5FE85473545E399F6FE83470700A38A21
:10281000F18ED5B785473545E390F6FE834707002F
:10282000A389F18EC9BF8D67138527A36308A6020C
:102830009387D7A46317F6028947639BF50083C784
:10284000718F2300F70085472390F60001458280B1
:102850008D476398F50083C7518FE5B783C7318FE4
:10286000CDB723900600DDB70145828025E303A89C
:102870004500AE888347180003480800A207B3E765
:1028800007010D68930EF8A4639AD7039147354862
:10289000639FF60203A5C8004111B285114606C622
:1028A00097100020E7802064938741909C43054562
:1028B0008297B24001484285410182809308289066
:1028C00029486396170185476F60D0532D4842858C
:1028D000828041654111938541BC7D1506C6EF801C
:1028E000301AB240972600209386464D41469945BE
:1028F000172500201305854641016F80B00C23A2E7
:10290000A19082800111938541BC22CC06CE2A84FD
:10291000EF60104A058929C1014781460546ED450A
:102920002285EF6030032AC605C9972700209387C8
:10293000E74283D7A70501462C002314F100854701
:102940002315F100230005002285EF70502209C5F0
:10295000ED452800EF60F017F24062440561828087
:1029600041677917630CE502411122C406C6854709
:102970002A84639AF50022852244B240938541BCA3
:1029800041016F80F00F89476396F5008545EFA000
:10299000303975D1B2402244410182808280411198
:1029A00006C6EFE01F9ABD4763F4A700EFE07F99EA
:1029B000EFE07FC1BD4763F4A700EFE0DFC0B240A6
:1029C00083D5A18A03D5818A41016F201029411145
:1029D00093962500AA852D4506C697100020E7800E
:1029E000A01BB240014541018280411126C293944F
:1029F000250022C44AC02A843289A686AA850146B7
:102A0000254506C697100020E7800019A6864A864D
:102A1000A285294597100020E7800018B240224483
:102A200092440249014541018280011122CC06CE27
:102A30003714004026CA4AC84EC652C4834474059F
:102A4000034AB4058349840503499405EFE0FF8CEC
:102A50008347A40593F4F40F137AFA0F93E7170052
:102A6000230DF40493F9F90F1379F90FB717004008
:102A700003C7A705058B6DFF03D5C705A38D4705C4
:102A8000238C3705A38C2705A38B9704F24062445F
:102A9000D2444249B249224A05618280411193974A
:102AA000050122C406C6C1872E8463DD0700EF201E
:102AB000802119C1EF20801A2165218DB240224466
:102AC0004101828093F7150013C51500E5FB93972C
:102AD000250163D00702EF305111D13537F60200DE
:102AE000130606E0896503C58190EF20E06E096555
:102AF000E9B7939715010145E3D207FC130600647B
:102B0000916503C58190EF20206D11657DB71D7122
:102B1000494697B501009385254317B50100130574
:102B2000E56E86CEEF20005311E101A037F700E0FB
:102B3000F9575CC7FD571CCB8566B7E700E023A0BB
:102B4000D7101306701010C3B8434146B0C323A07A
:102B5000D718B8C3010001001306C0038145480817
:102B6000EF202049973700209387878E3ECA8967D8
:102B700093870780231CF100ED47A301F1028567CD
:102B8000938707452312F102D1472303F102A1677E
:102B9000938707E03ECE97070000938787E3BEC484
:102BA000970700009387A7E4BEC685472304F10278
:102BB000B5472308F10297F7FFFF9387E7EC3EDA6A
:102BC000B7F5070097070000938767E63EDE81466A
:102BD000970700009387E7DC7000E1051945BEC048
:102BE00097100020E78040FB580881479946700005
:102BF0003E960346060085070507A30AC700E3982B
:102C0000D7FED24791C70357810185676373F700E9
:102C100001A04808EF20301A11C101A0F64025613B
:102C20008280411117050000130585E706C622C4FE
:102C3000EF20F014138481902300A4002928034579
:102C400004002244B24037F60200130606E089650C
:102C500041016F206058411106C622C493067005D9
:102C6000371400402300D404130780FA2300E4043F
:102C70008347F40293F7A70FA307F4022300D404B9
:102C80002300E4048347F40293E72700A307F40238
:102C900039331305407E23000404814701478146F0
:102CA00005468545EFE01FB62244B240014541018B
:102CB0006F20303D41111305800406C69710002097
:102CC000E780A0C4294597100020E78000DCEF10C2
:102CD000B056353DB9376924EF80614FEFF00FDD15
:102CE0009122EF10F0408D454145EFE05FCF8D45DB
:102CF00013050008EFE0BFCE8D450565EFE0DFC3AB
:102D0000B717004003A7870C85661367070123A444
:102D1000E70C03A7870C1367070823A4E70C03A796
:102D2000870A558F23A4E70AEF10B01D97100020E3
:102D3000E78080D98280011106CE85476308F500BF
:102D40009147630FF500F240056182802C00130566
:102D50004030EF8041112C000545EF507007E5B77A
:102D600083D7A5000D6613060620914503C5A185EE
:102D7000239CF184EF204046F9B7B688AA8EBA8624
:102D80002E83328E3E87639508020D661306D6A405
:102D900083C606006319CE0089476396F500854710
:102DA0003548639CF60072869A8576856FF01FA27F
:102DB000854701486393F800BDB442858280411184
:102DC0009397050122C406C6C1872E8463DF0700DE
:102DD00003C5A185EF10306F19C1EF103068216570
:102DE000218DB24022444101828093F7150013C522
:102DF0001500E5FB93F7450099CF83C7A18513071D
:102E0000401F81461146914503D58185EF70F15FE2
:102E100013454400F9B793F725000145F9D313C5CD
:102E20002500C1B7011117050000130585F906CE6D
:102E300022CC26CAEF20A0749384A1850544238068
:102E4000A400700085451305503023068100EF80F3
:102E5000410F138681849D4513056030EF80610E1C
:102E600017260020130646F7FD4513057030EF8046
:102E7000410D17B601001306660EDD450145EF5002
:102E8000F0688D4770009145130570402305F100EF
:102E900023048100A305810002C6A3040100EF7092
:102EA00081063000854513050040EF70C10513060B
:102EB0009100854513051040EF70E1041306A10051
:102EC000854513052040EF7001041306B1008545C8
:102ED00013055040EF702103994770008545054563
:102EE0002306F100EFE0BFE6EFF00FFB972500208F
:102EF000938585ED13850185EFF0AFC103C504000F
:102F00008545EF20001BF2406244D2440561828077
:102F100083C70191850793F7F70F41112388F1903B
:102F200006C6858B8DE39386C19721468545054569
:102F3000EFF06FBF93868197114685450945B240F2
:102F400041016FF04FBE9386819711468545094533
:102F5000EFF06FBD9386C197214685450545C5B7FE
:102F6000974700209387C7CE23A6F18A9747002072
:102F7000938707DA23A8F18A97470020938747E1D0
:102F8000411123AAF18A97470020938767E806C674
:102F900023ACF18AEFE0BFAFB240B7E700E03707FC
:102FA000400023A0E71041018280397122DC26DA3B
:102FB0002E84AA84130620028145680006DE4AD8C2
:102FC000EFE02FAB914763EB870217B701001307C0
:102FD00067FA0A043A941C40BA9782879387818BD8
:102FE0009C43255711452380E7040547A380070428
:102FF00023810704A381E704EFE01FB4F250625479
:10300000D254425921618280EF10B0169387818B90
:1030100088433D4697250020938545F51305050413
:1030200097100020E78020EC3D45F9B79387C18ACF
:103030008C4317250020130565F31386F4FF938551
:10304000150497100020E78000EA172500201305DB
:10305000E5F1EF1070139387818B9C430545238026
:10306000970459BF9387C18A94431D4783C71604A9
:10307000E366F7F817B70100130787F68607BA97D4
:1030800083D5070003C626046800EF10F01203473B
:10309000C10093072002E313F7F69387818B8843DF
:1030A000130620026C001305050497100020E7802A
:1030B00080E31305200289B71384C18A0C401D47A1
:1030C00083C71504E36CF7F217B70100130747F144
:1030D0008607BA976800130620029385350403D942
:1030E000070097100020E78000E01C40CA856800B8
:1030F00003C62704EF10F00DB9BF9387C18A9C4324
:1031000083C507045DB5B787004003C76700137721
:10311000F70F9376270063860672011106CE22CC44
:1031200026CA4AC84EC603C7770093060003137722
:103130000703630BD70203C7770091461377F703A2
:103140006300D72263EAE60885466304D718630E56
:1031500007188946630ED7188D466307D71CB787B3
:10316000004009472383E700378700408347770003
:10317000E207E18763DF0734930720FC2301F702AE
:103180009386C18A884203477500834765002207FA
:103190005D8F239BE19083471500A38AF1908344C0
:1031A000050013F604066306062413F704046311EE
:1031B000071E13F70402630D071CF91793F7F70FA7
:1031C0002547636DF72E17B701001307E7DB8A0762
:1031D000BA979C43BA978287930620026307D71257
:1031E00063E9E60293060002630CD704930610021B
:1031F000E317D7F603C76702134707042383E702E1
:1032000003C767021377C70F136727002383E702FB
:10321000B9B7930630026306D71293064002E31053
:10322000D7F403C72703134707042389E70203C71B
:1032300027031377C70F136727002389E70205B712
:1032400003C751919546630BD7069947630AF70068
:103250008D47E306F7F0B78700402380070285A873
:103260009387619103D4070013070004BE8463743D
:103270008700130400049387C18A1389C19188438E
:1032800042048325090041802286EFA0712E83D756
:1032900004009379F40F818F239BF1908327090019
:1032A0003E9423AE8190B78700402380370303C745
:1032B0002702134707042381E70255B503C73700E8
:1032C00083C6619113770708558FA381E7000947EB
:1032D000DDB703C7770013770704E30207E803C7E6
:1032E0006702134707082383E70283C7870085BD6A
:1032F00003C7770013770704E30307E603C7A702B2
:10330000134707082385E702CDB703C7A702134772
:1033100007042385E70203C7A7021377C70F1367C4
:1033200027002385E70225BD03C77700137707042D
:10333000E30707E203C7E702134707082387E7020B
:103340006DB703C7E702134707042387E70203C7E4
:10335000E7021377C70F136727002387E70201B53A
:1033600003C7770013770704E30B07DE03C72703C0
:10337000134707082389E70203C58700BD3BC5B390
:10338000974700209387C78C83C737002389F19024
:10339000E204E184814663D2040283D761919306FB
:1033A00000043E8763F4F6001307000442074183DC
:1033B000998F9376F70F239BF190B7870040238076
:1033C000D702130700FCFDA8974700209387478882
:1033D00083C72700238AF19065BF9387219183C714
:1033E0000700174700202305F7865DB793874191B3
:1033F000FDB72D466364F60C17B60100130646BBF5
:103400008A07B2979C43B2978287834735008346E9
:1034100025000D46A207D58F93D68700638CC61270
:10342000636CD6008547638FF6028947638AF60A84
:103430001304F00F81473DA893071002638AF60C2E
:1034400093072002E396F6FE834745006396070E36
:1034500097B701009387C7B923AEF1900144930752
:10346000F00F09A897B70100938707BE23AEF1902C
:103470000144C947C207C18363F4E700239BF1906D
:103480009387619103D607009307000463F4C70094
:10349000130600049389C1911319060183A509003D
:1034A000135909014A86EFA0B10C03A609004A96F8
:1034B00023AEC1909307F00FE31CF4ECB7870040F4
:1034C0001307F0FC2381E702B787004009472383F5
:1034D000E700F2406244D2444249B2490561828029
:1034E000972700209387479123AEF19097270020DC
:1034F00083C787A897260020A380F69297260020EE
:103500002389F69201449727002083C7078F9DB730
:103510008347450089CB8546E39CD7F09727002059
:103520009387379029A0972700209387078E23AE93
:10353000F1900144A5473DBF85466397D70097B7F3
:1035400001009387E7AE09BF0946E399C7F0A38955
:10355000D19029B793F7F70F85466380D7029DC7AF
:103560008946E397D7EC97B70100938767B023AEFE
:10357000F19001449307A002F5BD97B7010093872E
:10358000E7AD23AEF1900144D147EDB597B7010007
:103590009387870923AEF19001449147E1BD8347AA
:1035A0002500239BF190EDB383C711912300F50013
:1035B00003D761918547E3FDE7DC8547DDB78347A6
:1035C0002500A388F190E9B313F7F401894763104C
:1035D000F70A834745008D466382D70663EEF600FF
:1035E0008546638FD706E39BE7EC37870040834728
:1035F000A70293F7370795A0130720086387E7040E
:10360000130730086381E70213071008E398E7EA1D
:10361000378700408347670293F7C70B93E727007C
:103620002303F702B5B3378700408347E70293F7D8
:10363000C70B93E727002307F70299BB37870040A2
:103640008347E70293F73707FDB737870040834783
:10365000A70293F7C70B93E727002305F7020DBBDB
:10366000378700408347670293F7370755BFE31753
:1036700007E48347350003472500A207D98F054794
:10368000E398E7D083C7819193F7E70F238CF190FC
:1036900001B313F7F40189476314F70A8347550010
:1036A00083464500A207D58F8D466380D70663E029
:1036B000F6028546638DD706E392E7E03787004040
:1036C0008347A70293F7370793E7C70079B7130734
:1036D00020086385E70413073008638FE7001307AA
:1036E0001008E39DE7DC378700408347670293F7C4
:1036F000C70B93E737002DB7378700408347E702B2
:1037000093F7C70B93E737003DB7378700408347F0
:10371000E70293F7370793E7C70031BF37870040C9
:103720008347A70293F7C70B93E737003DB7378767
:1037300000408347670293F7370793E7C700CDB58B
:10374000E31E07D68347350003472500A207D98F1C
:103750000547E39FE7C283C7819193E717003DB711
:1037600023000500B1B593F5F4018947639FF50A7D
:103770002300050098428347570003464700A207ED
:10378000D18F0D46638BC7046361F60205466384DF
:10379000C7086386B7069C42A380070003D76191E0
:1037A0008547E3F7E7BE8947EDBB930520086383B0
:1037B000B70493053008638BB70093051008E39CAA
:1037C000B7FCB787004083C7670229A0B7870040CE
:1037D00083C7E70293F7370401A8B787004083C780
:1037E000E702314693F7C708E397C7FA85472300F6
:1037F000F70055B7B787004083C7A702E1BFB78777
:10380000004083C7A702B14593F7C708E395B7F80F
:103810002300C70049B73786004003466602B1451A
:103820001376C608E319B6F6D9B7B5F52300050037
:1038300003C7819119C398425DBF9C422380070052
:1038400099BF9376170085C20947A381070023819A
:10385000E7022383E7022385E7022387E702054780
:103860002383E700828093764700FDDA03C7570081
:103870001147FDB7411103C7019683C7119606C6CC
:103880001376470093F64700630F060A91E683C656
:1038900091958506A38CD1941376870093F68700C3
:1038A00055CA91E683C611928506A380D1921376FC
:1038B000070193F6070155C691E683C61195850663
:1038C000A388D1941376170093F6170055C291E69A
:1038D00083C691928506A384D1921376270093F62E
:1038E000270051CE91E683C611938506A388D19215
:1038F0001376070293F6070251CA91E683C69193A5
:103900008506A38CD19213168701937607046186EE
:103910006387060C93F50704CDE56346060A83C763
:1039200011948507A380F194171600200346A6641E
:10393000854503C5D185A380E196EF10F009B2401B
:10394000014541018280A9DA83C681958506238CD1
:10395000D19499B7A9DE83C6019285062380D192BE
:10396000B9B7ADD283C6019585062388D19499BF96
:10397000ADD683C6819285062384D192B9BFADDAD4
:1039800083C6019385062388D1929DB7ADDE83C699
:1039900081938506238CD192BDB7D9D6B98F93F682
:1039A000070491C683C6019485062380D194E2075B
:1039B000E187E3DB07F683C7819485072384F194CD
:1039C000A5B7E35306F6139687016186E34706FC25
:1039D000F1F683C791948507A384F194B1B7E35FAF
:1039E00006FAD5B7B717004083A7470A411106C6A4
:1039F00093961701171700200347D75763C706068A
:103A0000A386019683C75196639DE70483C70196F9
:103A100093E707042380F196A3820196B71700402D
:103A200083A7470A9396270163C80606A3870196D2
:103A300083C77196639EE70483C7019693E707F8EF
:103A40002380F196A3830196171600200346865221
:103A5000854503C5B185EF102078B240014541018D
:103A600082808507A382F19655BFA382019683C702
:103A7000D196639BE70083C7019693F7F70B2380EA
:103A8000F196A386019659BF8507A386F19679B76B
:103A90008507A383F1964DBFA383019683C7F19653
:103AA000639BE70083C7019693F7F7072380F1969E
:103AB000A387019651BF8507A387F19671B7B71702
:103AC000004003A7470C411106C69316070197173C
:103AD000002083C7374A63CF0610A388019603C727
:103AE00091966315F71003C701961367470023806B
:103AF000E196A3840196371700400327470C9316DD
:103B0000170163C006122385019603C72196631629
:103B1000F71003C70196136787002380E19623817E
:103B20000196371700400327470C9316270163C1FE
:103B300006122388019603C781966317F71003C7FF
:103B40000196136707012380E196238401963717B6
:103B500000400327470A1377071063120712A38553
:103B6000019603C731966318F71003C701961367D0
:103B700017002380E196A3810196371700400327A1
:103B8000470C9316370163C306122386019603C7B9
:103B900041966319F71003C7019613672700238026
:103BA000E19623820196371700400327470A9316B0
:103BB000070163C406122387019603C76196631A3F
:103BC000F71083C7019693E707022380F1962383BA
:103BD0000196171600200346D639854503C5C185D1
:103BE000EF10805FB2400145410182800507A38448
:103BF000E19611B7A384019603C71197631BF700E1
:103C000003C701961377B70F2380E196A388019627
:103C1000DDB50507A388E196F9BD05072381E19687
:103C200009B72381019603C7A196631BF70003C759
:103C300001961377770F2380E19623850196D5B5FA
:103C400005072385E196F1BD05072384E19601B7B9
:103C50002384019603C70197631BF70003C70196EE
:103C60001377F70E2380E19623880196CDB50507DB
:103C70002388E196E9BD0507A381E196FDBDA381F7
:103C8000019603C7B196631BF70003C7019613772C
:103C9000E70F2380E196A3850196C5B50507A385A7
:103CA000E196E1BD05072382E196F5BD23820196E9
:103CB00003C7C196631BF70003C701961377D70F9D
:103CC0002380E19623860196F9BD05072386E196B8
:103CD000D9BD05072383E196EDBD2383019603C774
:103CE000E196631BF70083C7019693F7F70D2380D6
:103CF000F19623870196F1BD05072387E196D1BD93
:103D0000411106C622C426C24AC083C701869DE768
:103D100093874197984389476312F702171600204B
:103D200003467625854503C5E185EF10E04AB2409C
:103D30002244924402490145410182801717002024
:103D4000034757229717002083C7C72122075D8F9B
:103D50009717002083C72721C2075D8F9717002080
:103D600083C77720E2071384C195D98F1840971431
:103D700000209384641D6367F70089C7A6850565E5
:103D8000EF00306603C6919529CA1387C19785470E
:103D9000A545B38697000345070083C6060085073F
:103DA0000507C98EA30FD7FEE395B7FE93878197CA
:103DB00017170020130747199385C19783C607007B
:103DC0000345970085070507C98EA38FD7FEE397A4
:103DD000B7FE1C40850723AEF1949717002083C7D8
:103DE00037186363F60095E39717002083C76717BA
:103DF00003C781956363F70089EB1840971700208C
:103E000083C73716636CF704B1CB1717002013076D
:103E1000A7139387C19793854198BA8603C6070075
:103E200003C5D60085078506698EA38FC7FEE39775
:103E3000B7FE938781971386C19783C60700834592
:103E4000570185070507ED8EA38FD7FEE397C7FEC1
:103E5000A38C0194238C019423AE019417170020A6
:103E6000034797009717002083C7070022075D8F3D
:103E70009717002083C767FFC2075D8F9717002041
:103E800083C7B7FEE20713844192D98F1840971475
:103E900000209384A4FB6367F70089C7A6850965A2
:103EA000EF00305403C6119229CA1387C197854782
:103EB000A545B38697000345070083C6060085071E
:103EC0000507C98EA30FD7FEE395B7FE93878197A9
:103ED00017170020130787F79385C19783C607003C
:103EE0000345970085070507C98EA38FD7FEE39783
:103EF000B7FE1C40850723A2F1929717002083C7C5
:103F000077F66363F60095E39717002083C7A7F55C
:103F100003C701926363F70089EB184097170020ED
:103F200083C777F4636CF704B1CB1717002013072E
:103F3000E7F19387C19793854198BA8603C6070036
:103F400003C5D60085078506698EA38FC7FEE39754
:103F5000B7FE938781971386C19783C60700834571
:103F6000570185070507ED8EA38FD7FEE397C7FEA0
:103F7000A38001922380019223A2019217170020AF
:103F8000034717FC9717002083C787FB22075D8F25
:103F90009717002083C7E7FAC2075D8F97170020A5
:103FA00083C737FAE20713844195D98F18409714D5
:103FB0000020938424F76367F70089C7A6850D6501
:103FC000EF00304203C6119529CA1387C197854770
:103FD000A545B38697000345070083C606008507FD
:103FE0000507C98EA30FD7FEE395B7FE9387819788
:103FF00017170020130707F39385C19783C607009F
:104000000345970085070507C98EA38FD7FEE39761
:10401000B7FE1C40850723AAF1949717002083C799
:10402000F7F16363F60095E39717002083C727F144
:1040300003C701956363F70089EB184097170020C9
:1040400083C7F7EF636CF704B1CB17170020130792
:1040500067ED9387C19793854198BA8603C6070099
:1040600003C5D60085078506698EA38FC7FEE39733
:10407000B7FE938781971386C19783C60700834550
:10408000570185070507ED8EA38FD7FEE397C7FE7F
:10409000A38801942388019423AA01941717002070
:1040A0000347D7DE9717002083C747DE22075D8FBF
:1040B0009717002083C7A7DDC2075D8F97170020E1
:1040C00083C7F7DCE2071384C192D98F1840971495
:1040D00000209384E4D96367F70089C7A68511653A
:1040E000EF00303003C6919229CA1387C1978547E4
:1040F000A545B38697000345070083C606008507DC
:104100000507C98EA30FD7FEE395B7FE9387819766
:10411000171700201307C7D59385C19783C60700DB
:104120000345970085070507C98EA38FD7FEE39740
:10413000B7FE1C40850723A6F1929717002083C77E
:10414000B7D46363F60095E39717002083C7E7D3DE
:1041500003C781926363F70089EB1840971700202B
:1041600083C7B7D2636CF704B1CB171700201307CE
:1041700027D09387C19793854198BA8603C60700D5
:1041800003C5D60085078506698EA38FC7FEE39712
:10419000B7FE938781971386C19783C6070083452F
:1041A000570185070507ED8EA38FD7FEE397C7FE5E
:1041B000A38401922384019223A601921717002061
:1041C000034717CF9717002083C787CE22075D8F3D
:1041D0009717002083C7E7CDC2075D8F9717002090
:1041E00083C737CDE20713844193D98F18409714C2
:1041F0000020938424CA6367F70089C7A6851565E4
:10420000EF00301E03C6119329CA1387C197854753
:10421000A545B38697000345070083C606008507BA
:104220000507C98EA30FD7FEE395B7FE9387819745
:1042300017170020130707C69385C19783C6070089
:104240000345970085070507C98EA38FD7FEE3971F
:10425000B7FE1C40850723AAF1929717002083C759
:10426000F7C46363F60095E39717002083C727C45C
:1042700003C701936363F70089EB18409717002089
:1042800083C7F7C2636CF704B1CB1717002013077D
:1042900067C09387C19793854198BA8603C6070084
:1042A00003C5D60085078506698EA38FC7FEE397F1
:1042B000B7FE938781971386C19783C6070083450E
:1042C000570185070507ED8EA38FD7FEE317F6FE8E
:1042D000A38801922388019223AA01921717002034
:1042E000034757BF9717002083C7C7BE22075D8FBC
:1042F0009717002083C727BEC2075D8F971700203E
:1043000083C777BDE2071384C193D98F18409714F0
:104310000020938464BA6368F70091C7A6851305EB
:104320000050EF00100C03C6919329CA1387C19760
:104330008547A545B38697000345070083C6060059
:1043400085070507C98EA30FD7FEE395B7FE9387B0
:10435000819717170020130727B69385C19783C647
:1043600007000345970085070507C98EA38FD7FE71
:10437000E397F5FE1C40850723AEF19297170020C6
:1043800083C717B56363F60095E39717002083C7CB
:1043900047B403C781936363F70089EB184097170D
:1043A000002083C717B3636CF704B1CB1717002045
:1043B000130787B09387C19793854198BA8603C640
:1043C000070003C5D60085078506698EA38FC7FE43
:1043D000E397F5FE938781971386C19783C60700FD
:1043E0008345570185070507ED8EA38FD7FEE39719
:1043F000C7FEA38C0192238C019223AE0192171762
:104400000020034777AF9717002083C7E7AE220746
:104410005D8F9717002083C747AEC2075D8F971740
:10442000002083C797ADE20713844194D98F1840C9
:1044300097140020938484AA6367F70089C7A68530
:104440001965EF00007A03C7119411CB83C7219738
:1044500085072389F1961C40850723A2F1949717BD
:10446000002083C737A96363F70095E397170020FF
:1044700083C767A803C701946363F70089EB1840FB
:104480009717002083C737A76362F706A5C383C7C2
:10449000219781C7FD172389F1961717002013076D
:1044A000E7A39387C19793854198BA8603C607000F
:1044B00003C5D60085078506698EA38FC7FEE397DF
:1044C000F5FE938781971386C19783C607008345BE
:1044D000570185070507ED8EA38FD7FEE317F6FE7C
:1044E000A38001942380019423A201941717002034
:1044F0000347D7A29717002083C747A222075D8FE3
:104500009717002083C7A7A1C2075D8F97170020C8
:1045100083C7F7A0E2071384C194D98F18401719F5
:1045200000201309E99D6367F70089C7CA851D65E7
:10453000EF00206B03C7919401CF9387319783C716
:1045400007008507A389F1961C40850723A6F194EF
:104550009717002083C7579C6363F70095E397176D
:10456000002083C7879B03C781946363F70089EBAF
:1045700018409717002083C7579A6362F706A5C3B0
:1045800083C7319781C7FD17A389F19617170020BC
:10459000130707979387C19793854198BA8603C6F7
:1045A000070003C5D60085078506698EA38FC7FE61
:1045B000E397F5FE938781971386C19783C607001B
:1045C0008345570185070507ED8EA38FD7FEE317B7
:1045D000F6FEA38401942384019423A6019403C7C7
:1045E000219783C7319763F7E706A389019683C7AD
:1045F000F185E9C383C72197BDC3FD172389F196D0
:104600001387C19785472546B386970083450700E2
:1046100083C6060085070507CD8EA30FD7FEE39559
:10462000C7FE93878197171700201307278B1386E0
:10463000C19783C607008345970085070507CD8E80
:10464000A38FD7FEE317F6FEA38F01842380018694
:104650006FF0CFECE37DF7F82389019649BF83C75C
:104660003197EDD7FD17A389F1961387C197854739
:104670002546B38627018345070083C606008507C4
:104680000507CD8EA30FD7FEE395C7FE93878197CD
:10469000171700201307C7861386C19783C6070024
:1046A0008345970085070507CD8EA38FD7FEE317B7
:1046B000F6FE59BF17170020130787849387C19709
:1046C00093854198BA8603C6070003C5D6008507BF
:1046D0008506698EA38FC7FEE397F5FE93878197C2
:1046E0001386C19783C607008345570185070507D1
:1046F000ED8EA38FD7FEE317F6FE8547A38FF184D7
:10470000B1B73965011185451305051006CE22CCD8
:1047100026CA4AC84EC652C4EFD00FA285453D6591
:10472000EFD0EFAB17F5FFFF1305A539EF003065AC
:10473000138AC1852300AA0017F5FFFF1305C52AB8
:10474000EF00F0639389B1852380A90017F5FFFF7F
:1047500013058512EF00B0621389D1852300A900EB
:1047600017F5FFFF1305055AEF00706117040020CD
:104770001304C47F9384E1852380A400034674005E
:1047800003450A008545EF0030250346840003C534
:1047900009008545EF0050240346A40003450900A5
:1047A0008545EF0070230346B400624403C504004E
:1047B000F240D2444249B249224A854505616F0020
:1047C000B02193970501C18763D5070021652D8D21
:1047D000828085890145B5CD938741979C434111DE
:1047E00006C60547638AE70009476382E7041706A0
:1047F00000200346F67791A09387018B88432146DA
:104800009385C19713050504EF9081569387418BDB
:10481000884311469385819713050504EF90415510
:104820002145EFD0AFAE1145EFD0AFAFC9B7EFE044
:104830002FEE170600200346C673854503C5218663
:10484000EF009019B24085472380F1860145410170
:104850008280828093970501C18763D50700216517
:104860002D8D828085890145D9C1B717004083A766
:10487000470A411106C693F70720B337F0008507B2
:1048800023AAF1961387419818436308F700054758
:104890006389E70409476389E704938741979C4349
:1048A000170600200346A66C220623A2F19897075C
:1048B000002083C7B76B5D8E9707002083C7376BD7
:1048C000C207D18F170600200346866A62065D8EF6
:1048D000854503C51186EF003010B2400145410106
:1048E0008280EFD0DFB355BFEFD09FB17DB782801C
:1048F000411185451305002006C622C426C24AC0C0
:10490000EFD08F8317050000130505F5EF00304742
:10491000138911862300A900170500001305A5EAD5
:10492000EF00F045170400201304446403462400FC
:10493000834714009384218622065D8E83473400CA
:104940002380A40003450900C207D18F0346440019
:10495000854562065D8EEF00300803465400224410
:1049600003C50400B24092440249854541016F00ED
:10497000B006BD46170600201306465F81452D454B
:1049800017F3FF1F67004321411122C49306001053
:104990002A8401468145254506C697F0FF1FE7801A
:1049A000A01F22862244B240BD46814529454101CF
:1049B00017F3FF1F6700431E93072002B307F60299
:1049C000930620022A862D45BE9517F3FF1F670028
:1049D000A31C5D71A2C4A6C213042002B284338456
:1049E0008402CAC04EDE2A89AE89130620028145A0
:1049F000680086C6EFC0FF87680013062002930593
:104A0000F00FC52B4E947000A28593062002294515
:104A100097F0FF1FE78040184A86A2859306200280
:104A2000294597F0FF1FE7802017B640264496449B
:104A30000649F25961618280011185467000814505
:104A40002D4506CE2306010097F0FF1FE780C01416
:104A50000347C100BD476304F7161705002013057F
:104A6000E5501D377000856585462D4597F0FF1F81
:104A7000E78080120347C100930720020146856545
:104A8000170500201305454C630DF7129937700088
:104A9000896585462D4597F0FF1FE780E00F0347A6
:104AA000C100930720020146896517050020130500
:104AB000E539630AF710313F70008D6585462D4555
:104AC00097F0FF1FE780400D0347C10093072002C6
:104AD00001468D65170500201305C5446307F70ED1
:104AE000CD3D7000916585462D4597F0FF1FE7800D
:104AF000A00A0347C10093072002014691651705EC
:104B000000201305E5366304F70CE1357000956568
:104B100085462D4597F0FF1FE78000080347C10039
:104B20009307200201469565170500201305853679
:104B30006301F70A793D70009305005085462D45C5
:104B400097F0FF1FE78040050347C100930720024D
:104B5000014693050050170500201305E535630C49
:104B6000F706853D7000996585462D4597F0FF1F36
:104B7000E78080020347C100930720020146996540
:104B800017050020130585356309F7049935700072
:104B90009D6585462D4597F0FF1FE780E0FF0347A1
:104BA000C1009307200201469D65170500201305EB
:104BB00025356306F702313DF24005618280553BA1
:104BC00055B5DD3BE9B5CD3BC5BDFD3319BFED3373
:104BD00035BFDD338DB7CD3371B7F93B4DBFE93B01
:104BE000E1BF011126CA4AC806CE22CC03C4150271
:104BF00083C705021309200222045D8C33042403B9
:104C0000AE8485467000230601002A94A2852D45B6
:104C100097F0FF1FE78040F88347C100639B27019F
:104C2000930620022686A2852D4597F0FF1FE78078
:104C3000A0F6F2406244D24442490561828023AC2E
:104C400005FE1C4191E7010001000CC18280BA877A
:104C500003A787FF6DFF23ACB7FE82801DC183468B
:104C6000E5FF1307F00F9147639EE600411106C66A
:104C700097000020E78080CBB24081473E8541010C
:104C8000828095473E85828001E901458280014509
:104C9000B240224441018280411122C42A8421056C
:104CA00042059305D004418106C697000020E780A5
:104CB00040BE71DDFD57232005002312850023032C
:104CC000F5002105F1B7138781981C43411122C4D7
:104CD00026C24AC006C601440149BA8489E7A165D3
:104CE00095250DC401A803C7E7FF6318A7021DC8D7
:104CF000A165C1269840832784FF6317E40223A49B
:104D0000F198FD57232C04FE230FF4FE2285B240B8
:104D10002244924402494101828011E03E8983A7E6
:104D200087FF6DBF3E84E5BF232CF9FED9BFA9C91B
:104D3000411122C406C62A849727002083C7171969
:104D40002E856368F400193F0D45B24022444101AD
:104D5000828083A785FF99E703C7E5FF9307F00FDC
:104D60006305F700E53D1545CDB7238F85FE138517
:104D70008198F13522852244B240A165410115AEEA
:104D80001545828023A4019882809387019A9C43D1
:104D900099E33E85828003D727006316B70003C7D7
:104DA0000700E308A7FEDC47E5B74111939705012B
:104DB0004AC006C622C426C2C1872E8963DE070008
:104DC000193711C1613D21653345A900B240224424
:104DD0009244024941018280AA860145E5D90144F5
:104DE0003D47B3578940858B95CB93874199844341
:104DF000BD4791E28147A2978E070545BE943315C2
:104E00008500131405019C40C8404180829723A06F
:104E1000040023A20400334524014DBF0504E3121E
:104E2000E4FC0144CDBF97270020938767069C537D
:104E3000411122C406C61384418695C7829723A2D6
:104E4000A1860840B74703009387D73F3305F50293
:104E5000B7A72600938737ECB24022443E9523A2A1
:104E6000A18641018280972700209387270618405A
:104E70009C4BBA9723A2F186E9B79387C1989043D8
:104E80009726002083C69604814713F7F70F6360C7
:104E9000D70A1727002003479717914763E0E70ACF
:104EA0009727002083C7471B918BC9EB011168002E
:104EB00006CE22CC26CAEFC0A02DFD56630FD50C1E
:104EC00032479727002083C7D7FD63F3E70C1727E6
:104ED00000201307A7FF404717270020034787FC40
:104EE0006305D406058B21CF51473304E40263F1F7
:104EF000870A97F0FF1FE7802024B2476373F4000E
:104F0000A287172700200347D7F9998F3E95972747
:104F100000209387E7F78387470163CD0702B70730
:104F2000C0A86369F502B70740573E9525A08507DD
:104F30001397170032970357E7FF21DB828013078F
:104F400090023304E40205805DB76207618763570E
:104F500007001D8D19E93705C0A801A8E37BF5FE00
:104F60003707C0A8B307F7403E95972700209387DF
:104F700027F2DC53829709ED972700209387C70813
:104F80009C4F99C7EF108101EF10015AEF00717526
:104F9000F2406244D24405618280972700209387C3
:104FA000E7F2DC47E386A7FE17270020130747EE4A
:104FB00083464701BA84858A9DC65144338487025B
:104FC0009727002083C7F7EDE3F487FC97F0FF1FD6
:104FD000E78080169727002083C7B7EC1D8C2295A9
:104FE000838744011DBF1304900233848702058028
:104FF000C1BF2A9609E582800505A30FB5FEE31D12
:10500000C5FED5BF81473307F5000307070019E345
:105010003E8582808507C5BF01112E8626CAAA84D7
:10502000131506019305F004418122CC06CE32C649
:1050300097000020E780E0852A8419C53246A685BE
:1050400097F0FF1FE78020EA2285F2406244D244B5
:105050000561828081476314F6000545828033072D
:10506000F5008507B386F5000347070083C6F6FF02
:10507000E383E6FE014582809307F6FFBE952A96FC
:105080006313C5008280FD1583C715000505A30FB6
:10509000F5FEFDB7814711E9014582803307F50030
:1050A00003470700E31AB7FE8507E319F6FE054537
:1050B00082809727002083C777E1637FF5001387FD
:1050C000C1989317150008433E9583570500DD8D61
:1050D0002310B500014582800D458280FD570111E6
:1050E00017270020232AF7DE9387019A22CC8043DA
:1050F0004EC6972900209389A9D926CA4AC852C406
:1051000056C206CE5AC02A8981444E8A972A002068
:10511000938ACADB184481476374E900B3072741C7
:1051200003A749021CC409CB03A7CA0063F6E70022
:10513000172700202322F7DAA1E7835524009DE9F1
:105140005C44A1E823A0F19A032BC400228597F0C8
:10515000FF1FE780A07D5A8455FC83274A0285CF34
:105160006244F240D2444249B249224A924A024B36
:10517000056121B3034504002D3F5C4081CB1CC475
:1051800083572400D5DFA2844044F9B71C44CDDB0B
:10519000C5BFDCC455BFF2406244D2444249B24963
:1051A000224A924A024B056182809727002083C7DA
:1051B000F7D16371F5021387C1989317150008435F
:1051C00093C5F5FF3E9583570500FD8D2310B5006F
:1051D000014582800D4582809727002083C717CF25
:1051E0006364F50001458280411122C426C24AC091
:1051F00006C62A842E89B284EFF03FB901C504C5E2
:1052000005452DA0936504F0C205C181414597F085
:10521000FF1FE78000680DE197270020938747C7AD
:105220009C5B81C7A285114582970145B24022440B
:1052300092440249410182809387019A9C438DE305
:1052400023A0A19A85472326050004C52311250123
:1052500023008500A300F5002322050055B7BA8777
:10526000D84775FFC8C7F9BF45C539715AD0138BE8
:10527000419922DC26DA4AD84ED652D45ECE66CA8E
:105280006AC86EC606DE56D262CC3689328AAE89CC
:10529000AA8401445A8DB94D854BF94C03270B0064
:1052A000131C3400937AF40F62971C43A9EF13B5D3
:1052B000FA0013451500B3978B0063F65D01930761
:1052C00014FFB397FB0093950701C18152862937DC
:1052D0001DC983270D000145E29784C323A237012E
:1052E0006304090023005901F2506254D254425918
:1052F000B259225A925A025BF24B624CD24C424D46
:10530000B24D216182800504E31A94F92145E9BF79
:1053100009458280411122C426C24AC006C6AA8419
:105320002E893284553DCA852685EFF01FA609C90E
:1053300040C10145B2402244924402494101828069
:105340002145CDBF411122C426C24AC006C6AA8447
:105350002E89EFF09FA32A8419C1231105009727F6
:10536000002083C7A7B663949700239C2199CA8520
:105370002685253D014511E01945B240224492445D
:105380000249410182807547636BA70413874199E5
:105390001443411126C293143500A696944222C4A8
:1053A00006C6AA873A84094595C613B5F70039475A
:1053B000134515006373F700C5178545B395F500D0
:1053C000C205C18141371C400145A69723A00700B3
:1053D00023A20700B2402244924441018280094541
:1053E0008280411106C6EFF05F9A09C50845B240B8
:1053F000410182800145E5BFF54763EDA70493872E
:1054000041999C4313173500BA979843894721C7A0
:10541000011126CA06CE9334F50022CCB94793C4B5
:10542000140063F3A700451505443314A400420497
:1054300041802EC62685A2856D378947324609C52B
:10544000A2852685513B8147F2406244D2443E8585
:105450000561828089473E8582802398A19823999F
:10546000B1988280411106C623AEA1980295B24040
:105470009727002023A6A7A60145410182809947CE
:1054800063E9B7008A0597270020938767A6BE9532
:1054900088C18280411106C6EF50715A714681451C
:1054A000172500201305C5A4EFF0BFB41306400272
:1054B000814517250020130565A1EFF09FB323A0B8
:1054C000019A23AE01989727002083C7279E13D502
:1054D00027008D8B3E958D473305F50293051010FF
:1054E00035051375F50F972700202382A79E99474E
:1054F0003305F5021305050F97F0FF1FE7806039AC
:1055000023AAA19835C99947172600200346269C4F
:105510003306F60281451306060FEFF09FAD938721
:1055200041999C439387070F23A2F19A17270020E4
:105530000347E7990A07BA9723A6F198EFF09F84EB
:1055400045269387419A98439727002083C7179849
:1055500093962700BA96170600001306468590C258
:1055600093862700850793F7F70F8A079725002072
:10557000A38ED594BA9790C3B240410182809727F9
:10558000002083C7B794172700200347479463F18F
:10559000E7021387419A18439386170017260020C5
:1055A000A306D69293962700369708C33E8582803D
:1055B0009307F00FE5BF1C41638E071841777D8F7D
:1055C000B706002089476318D718035745006304BE
:1055D0000718411122C419462A849305F00F590572
:1055E00006C6EFF03FAB05478D476300E5161C4448
:1055F00081CB58589947630A0714185C630707144E
:105600001306C00381451725002013056588EFF0B8
:105610005F9E1306C003A28517250020130545874A
:1056200097F0FF1FE780208C9727002083D70787FC
:10563000972600209386C68599E7930700101727C1
:105640000020231DF7849727002083C7478591E713
:105650008547172700202304F7849727002083C756
:10566000178491E7ED4717270020A30AF7829727B1
:10567000002083C7E78291E7954717270020230181
:10568000F7829727002083C7B78191E785471727BF
:105690000020A307F7809727002083C7B78099E7EA
:1056A00083C7060117170020A30EF77E9717002067
:1056B00083C7277F91E7D147171700202303F77E81
:1056C0009717002083C7A77E95E717170020034789
:1056D000677D1316870161869307C0026348060041
:1056E0009377170093B717009387D70217170020F7
:1056F000230FF77A9717002083C7B77A95E7171714
:1057000000200347277A1316870161869307C0029A
:10571000634806009377170093B717009387D70263
:1057200017170020A30FF7768347D40191E7894725
:1057300017170020A30CF7769C5691C782979717EE
:1057400000202398A778B9338147B24022443E8590
:105750004101828089473E858280011122CC06CE9C
:105760002A842EC6EFF02FECB245F240818D33A58E
:10577000A502229562441375F50F0561828001111F
:1057800022CC06CE2A842EC6EFF0EFE9B245F240D5
:10579000818D33A5A50222956244420541810561B0
:1057A0008280011122CC06CE2A842EC6EFF0AFE70C
:1057B000B245F240818D33B5A50222956244056160
:1057C0008280971700209387A76C985725C34111B3
:1057D00022C426C206C6BE840297171700200357AC
:1057E000476F2A8441C7BA876373A700AA87C20795
:1057F000C183BA866373E400A286C206C182958F14
:1058000051476355F706DC5491C3829785471717B4
:105810000020230FF77EEF00513D97170020239AB9
:10582000876AB24022449244410182809717002047
:1058300083C7077E9DE7971700209387E77C83C780
:105840009700850793F7F70F17170020A302F77C3F
:10585000A18B9DC7854717170020231BF77A6F0080
:10586000B13E97170020A385077AD5BF9717002070
:1058700083C7077ADDD72244B24092444101C5B7BD
:105880008280971700209387A760D857011122CCF8
:1058900006CE3E8401C72AC60297324511CD23A405
:1058A000A19A17F5FF1F1305A58AEFF0BFBBF240C1
:1058B00062440145056182808307440163DD07007E
:1058C0009717002023A0076297F7FF1F9387E782AF
:1058D00023A4F19AF9B797F7FF1F9387E785CDBF08
:1058E000011122CC171400201304845A084406CE58
:1058F00026CA4AC801E90545F2406244D2444249F9
:10590000056182805C58E5DB185C75D770008545C1
:1059100082971844B247E300F7FE9305E004171599
:1059200000200355A55797F0FF1FE78080F6171753
:105930000020232BA75A61D11716002003560656C4
:105940009305F00FEFF0EFEA8144171900201309D7
:10595000E9579717002083C787540326C90163C1FD
:10596000F402328597F0FF1FE78040FC014597174E
:10597000002023AB07569717002023A90756ADBF79
:105980009715002083D58551B38795020844185C8C
:10599000898185043E9508C2029765BF411122C4E2
:1059A000171400201304C44E1C4426C206C64AC065
:1059B000971400209384845191EBC84C35E9B24090
:1059C0002244924402490145410182801C5CF5D782
:1059D000DC4C99EF9305E004171500200355054CA6
:1059E00097F0FF1FE780E0EA9717002023AEA74E4D
:1059F000C84C61D5171600200356464A9305F00F90
:105A0000EFF02FDF01499717002083C74749D04C9B
:105A1000E355F9FA9715002083D5454833852503CA
:105A20001C44898105093E951C5C08C28297E1BF30
:105A300097F0FF1FE78080EF9717002023A6074A03
:105A40009717002023A4074A9DBF011156C2971A39
:105A50000020938AEA4383A78A0022CC4AC84EC614
:105A600006CE26CA52C45AC0AA892E8432896385BA
:105A7000072203A74A03630707147D476366A71439
:105A8000971400209384844403AAC40163170A0A6C
:105A90009565938515E0171500200355254097F06F
:105AA000FF1FE78000DF9717002023AFA7422A8659
:105AB000630A051083A74A0303A58A0097150020EF
:105AC00083D5C53D8981829783A78A0003AAC40133
:105AD00017170020232CF7408947639CF908C1471A
